{
  "contractName": "EcommerceStore",
  "abi": [
    {
      "constant": false,
      "inputs": [],
      "name": "toggleContractActive",
      "outputs": [],
      "payable": false,
      "stateMutability": "nonpayable",
      "type": "function"
    },
    {
      "constant": true,
      "inputs": [],
      "name": "orderIndex",
      "outputs": [
        {
          "name": "",
          "type": "uint256"
        }
      ],
      "payable": false,
      "stateMutability": "view",
      "type": "function"
    },
    {
      "constant": false,
      "inputs": [],
      "name": "kill",
      "outputs": [],
      "payable": false,
      "stateMutability": "nonpayable",
      "type": "function"
    },
    {
      "constant": true,
      "inputs": [
        {
          "name": "",
          "type": "address"
        }
      ],
      "name": "admins",
      "outputs": [
        {
          "name": "",
          "type": "bool"
        }
      ],
      "payable": false,
      "stateMutability": "view",
      "type": "function"
    },
    {
      "constant": true,
      "inputs": [
        {
          "name": "",
          "type": "address"
        }
      ],
      "name": "stores",
      "outputs": [
        {
          "name": "id",
          "type": "uint256"
        },
        {
          "name": "name",
          "type": "string"
        },
        {
          "name": "category",
          "type": "string"
        },
        {
          "name": "imageLink",
          "type": "string"
        },
        {
          "name": "descriptionLink",
          "type": "string"
        }
      ],
      "payable": false,
      "stateMutability": "view",
      "type": "function"
    },
    {
      "constant": false,
      "inputs": [],
      "name": "renounceOwnership",
      "outputs": [],
      "payable": false,
      "stateMutability": "nonpayable",
      "type": "function"
    },
    {
      "constant": true,
      "inputs": [
        {
          "name": "",
          "type": "address"
        },
        {
          "name": "",
          "type": "uint256"
        }
      ],
      "name": "orders",
      "outputs": [
        {
          "name": "id",
          "type": "uint256"
        },
        {
          "name": "productId",
          "type": "uint256"
        },
        {
          "name": "quantity",
          "type": "uint256"
        },
        {
          "name": "orderAddress",
          "type": "string"
        },
        {
          "name": "status",
          "type": "uint8"
        }
      ],
      "payable": false,
      "stateMutability": "view",
      "type": "function"
    },
    {
      "constant": true,
      "inputs": [],
      "name": "owner",
      "outputs": [
        {
          "name": "",
          "type": "address"
        }
      ],
      "payable": false,
      "stateMutability": "view",
      "type": "function"
    },
    {
      "constant": true,
      "inputs": [
        {
          "name": "",
          "type": "uint256"
        }
      ],
      "name": "orderIdForBuyer",
      "outputs": [
        {
          "name": "",
          "type": "address"
        }
      ],
      "payable": false,
      "stateMutability": "view",
      "type": "function"
    },
    {
      "constant": true,
      "inputs": [],
      "name": "storeIndex",
      "outputs": [
        {
          "name": "",
          "type": "uint256"
        }
      ],
      "payable": false,
      "stateMutability": "view",
      "type": "function"
    },
    {
      "constant": true,
      "inputs": [
        {
          "name": "",
          "type": "uint256"
        }
      ],
      "name": "productIdInStore",
      "outputs": [
        {
          "name": "",
          "type": "address"
        }
      ],
      "payable": false,
      "stateMutability": "view",
      "type": "function"
    },
    {
      "constant": true,
      "inputs": [
        {
          "name": "",
          "type": "address"
        }
      ],
      "name": "approvedStores",
      "outputs": [
        {
          "name": "",
          "type": "bool"
        }
      ],
      "payable": false,
      "stateMutability": "view",
      "type": "function"
    },
    {
      "constant": true,
      "inputs": [],
      "name": "productIndex",
      "outputs": [
        {
          "name": "",
          "type": "uint256"
        }
      ],
      "payable": false,
      "stateMutability": "view",
      "type": "function"
    },
    {
      "constant": true,
      "inputs": [
        {
          "name": "",
          "type": "uint256"
        }
      ],
      "name": "productEscrow",
      "outputs": [
        {
          "name": "",
          "type": "address"
        }
      ],
      "payable": false,
      "stateMutability": "view",
      "type": "function"
    },
    {
      "constant": false,
      "inputs": [
        {
          "name": "_newOwner",
          "type": "address"
        }
      ],
      "name": "transferOwnership",
      "outputs": [],
      "payable": false,
      "stateMutability": "nonpayable",
      "type": "function"
    },
    {
      "constant": true,
      "inputs": [
        {
          "name": "",
          "type": "address"
        },
        {
          "name": "",
          "type": "uint256"
        }
      ],
      "name": "products",
      "outputs": [
        {
          "name": "id",
          "type": "uint256"
        },
        {
          "name": "name",
          "type": "string"
        },
        {
          "name": "category",
          "type": "string"
        },
        {
          "name": "quantity",
          "type": "uint256"
        },
        {
          "name": "imageLink",
          "type": "string"
        },
        {
          "name": "descriptionLink",
          "type": "string"
        },
        {
          "name": "price",
          "type": "uint256"
        }
      ],
      "payable": false,
      "stateMutability": "view",
      "type": "function"
    },
    {
      "constant": true,
      "inputs": [],
      "name": "arbiter",
      "outputs": [
        {
          "name": "",
          "type": "address"
        }
      ],
      "payable": false,
      "stateMutability": "view",
      "type": "function"
    },
    {
      "inputs": [
        {
          "name": "_arbiter",
          "type": "address"
        }
      ],
      "payable": false,
      "stateMutability": "nonpayable",
      "type": "constructor"
    },
    {
      "anonymous": false,
      "inputs": [
        {
          "indexed": false,
          "name": "_address",
          "type": "address"
        }
      ],
      "name": "NewAdmin",
      "type": "event"
    },
    {
      "anonymous": false,
      "inputs": [
        {
          "indexed": false,
          "name": "_address",
          "type": "address"
        }
      ],
      "name": "AdminDeleted",
      "type": "event"
    },
    {
      "anonymous": false,
      "inputs": [
        {
          "indexed": false,
          "name": "_id",
          "type": "uint256"
        },
        {
          "indexed": false,
          "name": "_address",
          "type": "address"
        },
        {
          "indexed": false,
          "name": "_name",
          "type": "string"
        },
        {
          "indexed": false,
          "name": "_category",
          "type": "string"
        },
        {
          "indexed": false,
          "name": "_imageLink",
          "type": "string"
        },
        {
          "indexed": false,
          "name": "_descriptionLink",
          "type": "string"
        }
      ],
      "name": "NewStore",
      "type": "event"
    },
    {
      "anonymous": false,
      "inputs": [
        {
          "indexed": false,
          "name": "_id",
          "type": "uint256"
        },
        {
          "indexed": false,
          "name": "_address",
          "type": "address"
        },
        {
          "indexed": false,
          "name": "_name",
          "type": "string"
        },
        {
          "indexed": false,
          "name": "_category",
          "type": "string"
        },
        {
          "indexed": false,
          "name": "_imageLink",
          "type": "string"
        },
        {
          "indexed": false,
          "name": "_descriptionLink",
          "type": "string"
        }
      ],
      "name": "StoreUpdated",
      "type": "event"
    },
    {
      "anonymous": false,
      "inputs": [
        {
          "indexed": false,
          "name": "_address",
          "type": "address"
        },
        {
          "indexed": false,
          "name": "_id",
          "type": "uint256"
        }
      ],
      "name": "StoreRemoved",
      "type": "event"
    },
    {
      "anonymous": false,
      "inputs": [
        {
          "indexed": false,
          "name": "_address",
          "type": "address"
        }
      ],
      "name": "StoreApproved",
      "type": "event"
    },
    {
      "anonymous": false,
      "inputs": [
        {
          "indexed": false,
          "name": "_storeAddress",
          "type": "address"
        },
        {
          "indexed": false,
          "name": "_storeId",
          "type": "uint256"
        },
        {
          "indexed": false,
          "name": "_id",
          "type": "uint256"
        },
        {
          "indexed": false,
          "name": "_name",
          "type": "string"
        },
        {
          "indexed": false,
          "name": "_category",
          "type": "string"
        },
        {
          "indexed": false,
          "name": "_quantity",
          "type": "uint256"
        },
        {
          "indexed": false,
          "name": "_imageLink",
          "type": "string"
        },
        {
          "indexed": false,
          "name": "_descriptionLink",
          "type": "string"
        },
        {
          "indexed": false,
          "name": "_price",
          "type": "uint256"
        }
      ],
      "name": "NewProduct",
      "type": "event"
    },
    {
      "anonymous": false,
      "inputs": [
        {
          "indexed": false,
          "name": "_id",
          "type": "uint256"
        },
        {
          "indexed": false,
          "name": "_name",
          "type": "string"
        },
        {
          "indexed": false,
          "name": "_category",
          "type": "string"
        },
        {
          "indexed": false,
          "name": "_quantity",
          "type": "uint256"
        },
        {
          "indexed": false,
          "name": "_imageLink",
          "type": "string"
        },
        {
          "indexed": false,
          "name": "_descriptionLink",
          "type": "string"
        },
        {
          "indexed": false,
          "name": "_price",
          "type": "uint256"
        }
      ],
      "name": "ProductUpdated",
      "type": "event"
    },
    {
      "anonymous": false,
      "inputs": [
        {
          "indexed": false,
          "name": "_id",
          "type": "uint256"
        }
      ],
      "name": "ProductRemoved",
      "type": "event"
    },
    {
      "anonymous": false,
      "inputs": [
        {
          "indexed": false,
          "name": "_buyer",
          "type": "address"
        },
        {
          "indexed": false,
          "name": "_seller",
          "type": "address"
        },
        {
          "indexed": false,
          "name": "_id",
          "type": "uint256"
        },
        {
          "indexed": false,
          "name": "_productId",
          "type": "uint256"
        },
        {
          "indexed": false,
          "name": "_quantity",
          "type": "uint256"
        },
        {
          "indexed": false,
          "name": "_orderAddress",
          "type": "string"
        },
        {
          "indexed": false,
          "name": "_arbiter",
          "type": "address"
        }
      ],
      "name": "NewOrder",
      "type": "event"
    },
    {
      "anonymous": false,
      "inputs": [
        {
          "indexed": false,
          "name": "_caller",
          "type": "address"
        },
        {
          "indexed": false,
          "name": "_orderId",
          "type": "uint256"
        },
        {
          "indexed": false,
          "name": "_fundDisbursed",
          "type": "bool"
        }
      ],
      "name": "FundReleaseToSeller",
      "type": "event"
    },
    {
      "anonymous": false,
      "inputs": [
        {
          "indexed": false,
          "name": "_caller",
          "type": "address"
        },
        {
          "indexed": false,
          "name": "_orderId",
          "type": "uint256"
        },
        {
          "indexed": false,
          "name": "_fundDisbursed",
          "type": "bool"
        }
      ],
      "name": "FundReleaseToBuyer",
      "type": "event"
    },
    {
      "anonymous": false,
      "inputs": [
        {
          "indexed": true,
          "name": "previousOwner",
          "type": "address"
        }
      ],
      "name": "OwnershipRenounced",
      "type": "event"
    },
    {
      "anonymous": false,
      "inputs": [
        {
          "indexed": true,
          "name": "previousOwner",
          "type": "address"
        },
        {
          "indexed": true,
          "name": "newOwner",
          "type": "address"
        }
      ],
      "name": "OwnershipTransferred",
      "type": "event"
    },
    {
      "constant": false,
      "inputs": [
        {
          "name": "_address",
          "type": "address"
        }
      ],
      "name": "changeArbiter",
      "outputs": [],
      "payable": false,
      "stateMutability": "nonpayable",
      "type": "function"
    },
    {
      "constant": false,
      "inputs": [
        {
          "name": "_address",
          "type": "address"
        }
      ],
      "name": "addAdmin",
      "outputs": [],
      "payable": false,
      "stateMutability": "nonpayable",
      "type": "function"
    },
    {
      "constant": false,
      "inputs": [
        {
          "name": "_address",
          "type": "address"
        }
      ],
      "name": "removeAdmin",
      "outputs": [],
      "payable": false,
      "stateMutability": "nonpayable",
      "type": "function"
    },
    {
      "constant": false,
      "inputs": [
        {
          "name": "_name",
          "type": "string"
        },
        {
          "name": "_category",
          "type": "string"
        },
        {
          "name": "_imageLink",
          "type": "string"
        },
        {
          "name": "_descriptionLink",
          "type": "string"
        }
      ],
      "name": "addStore",
      "outputs": [],
      "payable": false,
      "stateMutability": "nonpayable",
      "type": "function"
    },
    {
      "constant": false,
      "inputs": [
        {
          "name": "_address",
          "type": "address"
        }
      ],
      "name": "removeStore",
      "outputs": [],
      "payable": false,
      "stateMutability": "nonpayable",
      "type": "function"
    },
    {
      "constant": false,
      "inputs": [
        {
          "name": "_name",
          "type": "string"
        },
        {
          "name": "_category",
          "type": "string"
        },
        {
          "name": "_imageLink",
          "type": "string"
        },
        {
          "name": "_descriptionLink",
          "type": "string"
        }
      ],
      "name": "updateStore",
      "outputs": [],
      "payable": false,
      "stateMutability": "nonpayable",
      "type": "function"
    },
    {
      "constant": false,
      "inputs": [
        {
          "name": "_address",
          "type": "address"
        }
      ],
      "name": "approveStore",
      "outputs": [],
      "payable": false,
      "stateMutability": "nonpayable",
      "type": "function"
    },
    {
      "constant": false,
      "inputs": [
        {
          "name": "_name",
          "type": "string"
        },
        {
          "name": "_category",
          "type": "string"
        },
        {
          "name": "_quantity",
          "type": "uint256"
        },
        {
          "name": "_imageLink",
          "type": "string"
        },
        {
          "name": "_descriptionLink",
          "type": "string"
        },
        {
          "name": "_price",
          "type": "uint256"
        }
      ],
      "name": "addProduct",
      "outputs": [],
      "payable": false,
      "stateMutability": "nonpayable",
      "type": "function"
    },
    {
      "constant": false,
      "inputs": [
        {
          "name": "_productId",
          "type": "uint256"
        },
        {
          "name": "_name",
          "type": "string"
        },
        {
          "name": "_category",
          "type": "string"
        },
        {
          "name": "_quantity",
          "type": "uint256"
        },
        {
          "name": "_imageLink",
          "type": "string"
        },
        {
          "name": "_descriptionLink",
          "type": "string"
        },
        {
          "name": "_price",
          "type": "uint256"
        }
      ],
      "name": "updateProduct",
      "outputs": [],
      "payable": false,
      "stateMutability": "nonpayable",
      "type": "function"
    },
    {
      "constant": false,
      "inputs": [
        {
          "name": "_productId",
          "type": "uint256"
        }
      ],
      "name": "removeProduct",
      "outputs": [],
      "payable": false,
      "stateMutability": "nonpayable",
      "type": "function"
    },
    {
      "constant": false,
      "inputs": [
        {
          "name": "_productId",
          "type": "uint256"
        },
        {
          "name": "_quantity",
          "type": "uint256"
        },
        {
          "name": "_orderAddress",
          "type": "string"
        }
      ],
      "name": "newOrder",
      "outputs": [],
      "payable": true,
      "stateMutability": "payable",
      "type": "function"
    },
    {
      "constant": true,
      "inputs": [
        {
          "name": "_orderId",
          "type": "uint256"
        }
      ],
      "name": "escrowInfo",
      "outputs": [
        {
          "name": "",
          "type": "address"
        },
        {
          "name": "",
          "type": "address"
        },
        {
          "name": "",
          "type": "address"
        },
        {
          "name": "",
          "type": "bool"
        },
        {
          "name": "",
          "type": "uint256"
        },
        {
          "name": "",
          "type": "uint256"
        }
      ],
      "payable": false,
      "stateMutability": "view",
      "type": "function"
    },
    {
      "constant": false,
      "inputs": [
        {
          "name": "_orderId",
          "type": "uint256"
        }
      ],
      "name": "releaseAmountToSeller",
      "outputs": [],
      "payable": false,
      "stateMutability": "nonpayable",
      "type": "function"
    },
    {
      "constant": false,
      "inputs": [
        {
          "name": "_orderId",
          "type": "uint256"
        }
      ],
      "name": "releaseAmountToBuyer",
      "outputs": [],
      "payable": false,
      "stateMutability": "nonpayable",
      "type": "function"
    }
  ],
  "bytecode": "0x608060405260008060146101000a81548160ff02191690831515021790555034801561002a57600080fd5b50604051602080615a9a83398101806040528101908080519060200190929190505050336000806101000a81548173ffffffffffffffffffffffffffffffffffffffff021916908373ffffffffffffffffffffffffffffffffffffffff1602179055506001600560003373ffffffffffffffffffffffffffffffffffffffff1673ffffffffffffffffffffffffffffffffffffffff16815260200190815260200160002060006101000a81548160ff0219169083151502179055507f71614071b88dee5e0b2ae578a9dd7b2ebbe9ae832ba419dc0242cd065a290b6c33604051808273ffffffffffffffffffffffffffffffffffffffff1673ffffffffffffffffffffffffffffffffffffffff16815260200191505060405180910390a1600160028190555060018081905550600160038190555080600460006101000a81548173ffffffffffffffffffffffffffffffffffffffff021916908373ffffffffffffffffffffffffffffffffffffffff160217905550506158ea806101b06000396000f30060806040526004361061018b576000357c0100000000000000000000000000000000000000000000000000000000900463ffffffff1680630202ae28146101905780631385d24c146102005780631785f53c14610217578063247ee9971461025a57806330471fee146103b357806331157c15146103de57806341c0e1b514610421578063429b62e5146104385780635ee95cae14610493578063621df534146104c057806370480275146106c7578063715018a61461070a57806376cfa31214610721578063793b8c6d1461076457806383560525146108545780638da5cb5b146109405780638dbe1a171461099757806391908a2e146109da5780639a3a7c6914610b15578063a261215814610b42578063a8939abd14610c7d578063b21539bd14610caa578063baa66e6414610d17578063c0bc03c814610d42578063c18e6e5e14610daf578063c897d5a614610e0a578063dd6cb58114610e35578063debe417314610f84578063f2fde38b14610ff1578063fc64094914611034578063fe25e00a14611253575b600080fd5b6101fe6004803603810190808035906020019092919080359060200190929190803590602001908201803590602001908080601f01602080910402602001604051908101604052809392919081815260200183838082843782019150505050505091929192905050506112aa565b005b34801561020c57600080fd5b50610215611ad2565b005b34801561022357600080fd5b50610258600480360381019080803573ffffffffffffffffffffffffffffffffffffffff169060200190929190505050611b59565b005b34801561026657600080fd5b506103b160048036038101908080359060200190929190803590602001908201803590602001908080601f0160208091040260200160405190810160405280939291908181526020018383808284378201915050505050509192919290803590602001908201803590602001908080601f016020809104026020016040519081016040528093929190818152602001838380828437820191505050505050919291929080359060200190929190803590602001908201803590602001908080601f0160208091040260200160405190810160405280939291908181526020018383808284378201915050505050509192919290803590602001908201803590602001908080601f016020809104026020016040519081016040528093929190818152602001838380828437820191505050505050919291929080359060200190929190505050611d37565b005b3480156103bf57600080fd5b506103c8612138565b6040518082815260200191505060405180910390f35b3480156103ea57600080fd5b5061041f600480360381019080803573ffffffffffffffffffffffffffffffffffffffff16906020019092919050505061213e565b005b34801561042d57600080fd5b506104366122db565b005b34801561044457600080fd5b50610479600480360381019080803573ffffffffffffffffffffffffffffffffffffffff169060200190929190505050612370565b604051808215151515815260200191505060405180910390f35b34801561049f57600080fd5b506104be60048036038101908080359060200190929190505050612390565b005b3480156104cc57600080fd5b50610501600480360381019080803573ffffffffffffffffffffffffffffffffffffffff169060200190929190505050612585565b6040518086815260200180602001806020018060200180602001858103855289818151815260200191508051906020019080838360005b83811015610553578082015181840152602081019050610538565b50505050905090810190601f1680156105805780820380516001836020036101000a031916815260200191505b50858103845288818151815260200191508051906020019080838360005b838110156105b957808201518184015260208101905061059e565b50505050905090810190601f1680156105e65780820380516001836020036101000a031916815260200191505b50858103835287818151815260200191508051906020019080838360005b8381101561061f578082015181840152602081019050610604565b50505050905090810190601f16801561064c5780820380516001836020036101000a031916815260200191505b50858103825286818151815260200191508051906020019080838360005b8381101561068557808201518184015260208101905061066a565b50505050905090810190601f1680156106b25780820380516001836020036101000a031916815260200191505b50995050505050505050505060405180910390f35b3480156106d357600080fd5b50610708600480360381019080803573ffffffffffffffffffffffffffffffffffffffff16906020019092919050505061281b565b005b34801561071657600080fd5b5061071f6129b8565b005b34801561072d57600080fd5b50610762600480360381019080803573ffffffffffffffffffffffffffffffffffffffff169060200190929190505050612aba565b005b34801561077057600080fd5b506107af600480360381019080803573ffffffffffffffffffffffffffffffffffffffff16906020019092919080359060200190929190505050612b59565b60405180868152602001858152602001848152602001806020018360018111156107d557fe5b60ff168152602001828103825284818151815260200191508051906020019080838360005b838110156108155780820151818401526020810190506107fa565b50505050905090810190601f1680156108425780820380516001836020036101000a031916815260200191505b50965050505050505060405180910390f35b34801561086057600080fd5b5061087f60048036038101908080359060200190929190505050612c41565b604051808773ffffffffffffffffffffffffffffffffffffffff1673ffffffffffffffffffffffffffffffffffffffff1681526020018673ffffffffffffffffffffffffffffffffffffffff1673ffffffffffffffffffffffffffffffffffffffff1681526020018573ffffffffffffffffffffffffffffffffffffffff1673ffffffffffffffffffffffffffffffffffffffff16815260200184151515158152602001838152602001828152602001965050505050505060405180910390f35b34801561094c57600080fd5b50610955612d63565b604051808273ffffffffffffffffffffffffffffffffffffffff1673ffffffffffffffffffffffffffffffffffffffff16815260200191505060405180910390f35b3480156109a357600080fd5b506109d8600480360381019080803573ffffffffffffffffffffffffffffffffffffffff169060200190929190505050612d88565b005b3480156109e657600080fd5b50610b13600480360381019080803590602001908201803590602001908080601f0160208091040260200160405190810160405280939291908181526020018383808284378201915050505050509192919290803590602001908201803590602001908080601f0160208091040260200160405190810160405280939291908181526020018383808284378201915050505050509192919290803590602001908201803590602001908080601f0160208091040260200160405190810160405280939291908181526020018383808284378201915050505050509192919290803590602001908201803590602001908080601f01602080910402602001604051908101604052809392919081815260200183838082843782019150505050505091929192905050506132b7565b005b348015610b2157600080fd5b50610b40600480360381019080803590602001909291905050506136b5565b005b348015610b4e57600080fd5b50610c7b600480360381019080803590602001908201803590602001908080601f0160208091040260200160405190810160405280939291908181526020018383808284378201915050505050509192919290803590602001908201803590602001908080601f0160208091040260200160405190810160405280939291908181526020018383808284378201915050505050509192919290803590602001908201803590602001908080601f0160208091040260200160405190810160405280939291908181526020018383808284378201915050505050509192919290803590602001908201803590602001908080601f0160208091040260200160405190810160405280939291908181526020018383808284378201915050505050509192919290505050613853565b005b348015610c8957600080fd5b50610ca860048036038101908080359060200190929190505050613c6e565b005b348015610cb657600080fd5b50610cd560048036038101908080359060200190929190505050613e0c565b604051808273ffffffffffffffffffffffffffffffffffffffff1673ffffffffffffffffffffffffffffffffffffffff16815260200191505060405180910390f35b348015610d2357600080fd5b50610d2c613e3f565b6040518082815260200191505060405180910390f35b348015610d4e57600080fd5b50610d6d60048036038101908080359060200190929190505050613e45565b604051808273ffffffffffffffffffffffffffffffffffffffff1673ffffffffffffffffffffffffffffffffffffffff16815260200191505060405180910390f35b348015610dbb57600080fd5b50610df0600480360381019080803573ffffffffffffffffffffffffffffffffffffffff169060200190929190505050613e78565b604051808215151515815260200191505060405180910390f35b348015610e1657600080fd5b50610e1f613e98565b6040518082815260200191505060405180910390f35b348015610e4157600080fd5b50610f82600480360381019080803590602001908201803590602001908080601f0160208091040260200160405190810160405280939291908181526020018383808284378201915050505050509192919290803590602001908201803590602001908080601f016020809104026020016040519081016040528093929190818152602001838380828437820191505050505050919291929080359060200190929190803590602001908201803590602001908080601f0160208091040260200160405190810160405280939291908181526020018383808284378201915050505050509192919290803590602001908201803590602001908080601f016020809104026020016040519081016040528093929190818152602001838380828437820191505050505050919291929080359060200190929190505050613e9e565b005b348015610f9057600080fd5b50610faf6004803603810190808035906020019092919050505061438e565b604051808273ffffffffffffffffffffffffffffffffffffffff1673ffffffffffffffffffffffffffffffffffffffff16815260200191505060405180910390f35b348015610ffd57600080fd5b50611032600480360381019080803573ffffffffffffffffffffffffffffffffffffffff1690602001909291905050506143c1565b005b34801561104057600080fd5b5061107f600480360381019080803573ffffffffffffffffffffffffffffffffffffffff16906020019092919080359060200190929190505050614428565b604051808881526020018060200180602001878152602001806020018060200186815260200185810385528b818151815260200191508051906020019080838360005b838110156110dd5780820151818401526020810190506110c2565b50505050905090810190601f16801561110a5780820380516001836020036101000a031916815260200191505b5085810384528a818151815260200191508051906020019080838360005b83811015611143578082015181840152602081019050611128565b50505050905090810190601f1680156111705780820380516001836020036101000a031916815260200191505b50858103835288818151815260200191508051906020019080838360005b838110156111a957808201518184015260208101905061118e565b50505050905090810190601f1680156111d65780820380516001836020036101000a031916815260200191505b50858103825287818151815260200191508051906020019080838360005b8381101561120f5780820151818401526020810190506111f4565b50505050905090810190601f16801561123c5780820380516001836020036101000a031916815260200191505b509b50505050505050505050505060405180910390f35b34801561125f57600080fd5b506112686146d7565b604051808273ffffffffffffffffffffffffffffffffffffffff1673ffffffffffffffffffffffffffffffffffffffff16815260200191505060405180910390f35b6112b26149a1565b60008060149054906101000a900460ff161515611acb5784600073ffffffffffffffffffffffffffffffffffffffff166009600083815260200190815260200160002060009054906101000a900473ffffffffffffffffffffffffffffffffffffffff1673ffffffffffffffffffffffffffffffffffffffff16141515156113a2576040517f08c379a00000000000000000000000000000000000000000000000000000000081526004018080602001828103825260148152602001807f70726f6475637420646f206e6f7420657869737400000000000000000000000081525060200191505060405180910390fd5b858580600860006009600086815260200190815260200160002060009054906101000a900473ffffffffffffffffffffffffffffffffffffffff1673ffffffffffffffffffffffffffffffffffffffff1673ffffffffffffffffffffffffffffffffffffffff1681526020019081526020016000206000848152602001908152602001600020600301541015801561143b575060008114155b15156114af576040517f08c379a00000000000000000000000000000000000000000000000000000000081526004018080602001828103825260138152602001807f7175616e7469747920697320746f6f206c6f770000000000000000000000000081525060200191505060405180910390fd5b8787611541600860006009600086815260200190815260200160002060009054906101000a900473ffffffffffffffffffffffffffffffffffffffff1673ffffffffffffffffffffffffffffffffffffffff1673ffffffffffffffffffffffffffffffffffffffff168152602001908152602001600020600084815260200190815260200160002060030154826146fd565b34101515156115b8576040517f08c379a00000000000000000000000000000000000000000000000000000000081526004018080602001828103825260108152602001807f707269636520697320746f6f206c6f770000000000000000000000000000000081525060200191505060405180910390fd5b60a06040519081016040528060035481526020018b81526020018a8152602001898152602001600060018111156115eb57fe5b815250965086600a60003373ffffffffffffffffffffffffffffffffffffffff1673ffffffffffffffffffffffffffffffffffffffff16815260200190815260200160002060006003548152602001908152602001600020600082015181600001556020820151816001015560408201518160020155606082015181600301908051906020019061167d9291906149dc565b5060808201518160040160006101000a81548160ff021916908360018111156116a257fe5b021790555090505033600b6000600354815260200190815260200160002060006101000a81548173ffffffffffffffffffffffffffffffffffffffff021916908373ffffffffffffffffffffffffffffffffffffffff1602179055508860086000600960008e815260200190815260200160002060009054906101000a900473ffffffffffffffffffffffffffffffffffffffff1673ffffffffffffffffffffffffffffffffffffffff1673ffffffffffffffffffffffffffffffffffffffff16815260200190815260200160002060008c8152602001908152602001600020600301600082825403925050819055503460035433600960008e815260200190815260200160002060009054906101000a900473ffffffffffffffffffffffffffffffffffffffff16600460009054906101000a900473ffffffffffffffffffffffffffffffffffffffff166117f6614a5c565b808581526020018473ffffffffffffffffffffffffffffffffffffffff1673ffffffffffffffffffffffffffffffffffffffff1681526020018373ffffffffffffffffffffffffffffffffffffffff1673ffffffffffffffffffffffffffffffffffffffff1681526020018273ffffffffffffffffffffffffffffffffffffffff1673ffffffffffffffffffffffffffffffffffffffff1681526020019450505050506040518091039082f0801580156118b4573d6000803e3d6000fd5b509050955085600c6000600354815260200190815260200160002060006101000a81548173ffffffffffffffffffffffffffffffffffffffff021916908373ffffffffffffffffffffffffffffffffffffffff1602179055507fd385d4bd32d34c5643fd95688c9bf7da12aad2345e277f2b4f8aaee2f0eb499433600960008d815260200190815260200160002060009054906101000a900473ffffffffffffffffffffffffffffffffffffffff166003548d8d8d600460009054906101000a900473ffffffffffffffffffffffffffffffffffffffff16604051808873ffffffffffffffffffffffffffffffffffffffff1673ffffffffffffffffffffffffffffffffffffffff1681526020018773ffffffffffffffffffffffffffffffffffffffff1673ffffffffffffffffffffffffffffffffffffffff168152602001868152602001858152602001848152602001806020018373ffffffffffffffffffffffffffffffffffffffff1673ffffffffffffffffffffffffffffffffffffffff168152602001828103825284818151815260200191508051906020019080838360005b83811015611a74578082015181840152602081019050611a59565b50505050905090810190601f168015611aa15780820380516001836020036101000a031916815260200191505b509850505050505050505060405180910390a1600160036000828254019250508190555050505050505b5050505050565b6000809054906101000a900473ffffffffffffffffffffffffffffffffffffffff1673ffffffffffffffffffffffffffffffffffffffff163373ffffffffffffffffffffffffffffffffffffffff16141515611b2d57600080fd5b600060149054906101000a900460ff1615600060146101000a81548160ff021916908315150217905550565b60011515600560003373ffffffffffffffffffffffffffffffffffffffff1673ffffffffffffffffffffffffffffffffffffffff16815260200190815260200160002060009054906101000a900460ff161515141515611c21576040517f08c379a000000000000000000000000000000000000000000000000000000000815260040180806020018281038252600a8152602001807f6f6e6c792061646d696e0000000000000000000000000000000000000000000081525060200191505060405180910390fd5b600560008273ffffffffffffffffffffffffffffffffffffffff1673ffffffffffffffffffffffffffffffffffffffff16815260200190815260200160002060009054906101000a900460ff161515611c7957600080fd5b6000600560008373ffffffffffffffffffffffffffffffffffffffff1673ffffffffffffffffffffffffffffffffffffffff16815260200190815260200160002060006101000a81548160ff0219169083151502179055507f989ddfce057dad219e0ae16f691b121bb0e348f0d8ae0ad400b4d5ac8d616c8b81604051808273ffffffffffffffffffffffffffffffffffffffff1673ffffffffffffffffffffffffffffffffffffffff16815260200191505060405180910390a150565b611d3f614a6c565b876009600082815260200190815260200160002060009054906101000a900473ffffffffffffffffffffffffffffffffffffffff1673ffffffffffffffffffffffffffffffffffffffff163373ffffffffffffffffffffffffffffffffffffffff16141515611e16576040517f08c379a00000000000000000000000000000000000000000000000000000000081526004018080602001828103825260108152602001807f6f6e6c792073746f7265206f776e65720000000000000000000000000000000081525060200191505060405180910390fd5b60e0604051908101604052808a815260200189815260200188815260200187815260200186815260200185815260200184815250915081600860003373ffffffffffffffffffffffffffffffffffffffff1673ffffffffffffffffffffffffffffffffffffffff16815260200190815260200160002060008b8152602001908152602001600020600082015181600001556020820151816001019080519060200190611ec39291906149dc565b506040820151816002019080519060200190611ee09291906149dc565b50606082015181600301556080820151816004019080519060200190611f079291906149dc565b5060a0820151816005019080519060200190611f249291906149dc565b5060c082015181600601559050507f450982f9f72538461271dbc5c3bc2966100030c65cfd233a0382dc8121bc121989898989898989604051808881526020018060200180602001878152602001806020018060200186815260200185810385528b818151815260200191508051906020019080838360005b83811015611fb8578082015181840152602081019050611f9d565b50505050905090810190601f168015611fe55780820380516001836020036101000a031916815260200191505b5085810384528a818151815260200191508051906020019080838360005b8381101561201e578082015181840152602081019050612003565b50505050905090810190601f16801561204b5780820380516001836020036101000a031916815260200191505b50858103835288818151815260200191508051906020019080838360005b83811015612084578082015181840152602081019050612069565b50505050905090810190601f1680156120b15780820380516001836020036101000a031916815260200191505b50858103825287818151815260200191508051906020019080838360005b838110156120ea5780820151818401526020810190506120cf565b50505050905090810190601f1680156121175780820380516001836020036101000a031916815260200191505b509b50505050505050505050505060405180910390a1505050505050505050565b60035481565b600060149054906101000a900460ff1615156122d85760011515600560003373ffffffffffffffffffffffffffffffffffffffff1673ffffffffffffffffffffffffffffffffffffffff16815260200190815260200160002060009054906101000a900460ff16151514151561221c576040517f08c379a000000000000000000000000000000000000000000000000000000000815260040180806020018281038252600a8152602001807f6f6e6c792061646d696e0000000000000000000000000000000000000000000081525060200191505060405180910390fd5b6001600760008373ffffffffffffffffffffffffffffffffffffffff1673ffffffffffffffffffffffffffffffffffffffff16815260200190815260200160002060006101000a81548160ff0219169083151502179055507f64f6ecbb7c389b2c41ec88fcdb57966c6dc74466fafbd0381c4e27f331ceac2a81604051808273ffffffffffffffffffffffffffffffffffffffff1673ffffffffffffffffffffffffffffffffffffffff16815260200191505060405180910390a15b50565b6000809054906101000a900473ffffffffffffffffffffffffffffffffffffffff1673ffffffffffffffffffffffffffffffffffffffff163373ffffffffffffffffffffffffffffffffffffffff1614151561233657600080fd5b6000809054906101000a900473ffffffffffffffffffffffffffffffffffffffff1673ffffffffffffffffffffffffffffffffffffffff16ff5b60056020528060005260406000206000915054906101000a900460ff1681565b806009600082815260200190815260200160002060009054906101000a900473ffffffffffffffffffffffffffffffffffffffff1673ffffffffffffffffffffffffffffffffffffffff163373ffffffffffffffffffffffffffffffffffffffff16141515612467576040517f08c379a00000000000000000000000000000000000000000000000000000000081526004018080602001828103825260108152602001807f6f6e6c792073746f7265206f776e65720000000000000000000000000000000081525060200191505060405180910390fd5b600860003373ffffffffffffffffffffffffffffffffffffffff1673ffffffffffffffffffffffffffffffffffffffff16815260200190815260200160002060008381526020019081526020016000206000808201600090556001820160006124d09190614aaa565b6002820160006124e09190614aaa565b60038201600090556004820160006124f89190614aaa565b6005820160006125089190614aaa565b6006820160009055505060096000600254815260200190815260200160002060006101000a81549073ffffffffffffffffffffffffffffffffffffffff02191690557f07015631cff457b5b13492c2045e70c6305a0a4aa773e432e79abbe2cf52c1eb826040518082815260200191505060405180910390a15050565b6006602052806000526040600020600091509050806000015490806001018054600181600116156101000203166002900480601f0160208091040260200160405190810160405280929190818152602001828054600181600116156101000203166002900480156126375780601f1061260c57610100808354040283529160200191612637565b820191906000526020600020905b81548152906001019060200180831161261a57829003601f168201915b505050505090806002018054600181600116156101000203166002900480601f0160208091040260200160405190810160405280929190818152602001828054600181600116156101000203166002900480156126d55780601f106126aa576101008083540402835291602001916126d5565b820191906000526020600020905b8154815290600101906020018083116126b857829003601f168201915b505050505090806003018054600181600116156101000203166002900480601f0160208091040260200160405190810160405280929190818152602001828054600181600116156101000203166002900480156127735780601f1061274857610100808354040283529160200191612773565b820191906000526020600020905b81548152906001019060200180831161275657829003601f168201915b505050505090806004018054600181600116156101000203166002900480601f0160208091040260200160405190810160405280929190818152602001828054600181600116156101000203166002900480156128115780601f106127e657610100808354040283529160200191612811565b820191906000526020600020905b8154815290600101906020018083116127f457829003601f168201915b5050505050905085565b600060149054906101000a900460ff1615156129b55760011515600560003373ffffffffffffffffffffffffffffffffffffffff1673ffffffffffffffffffffffffffffffffffffffff16815260200190815260200160002060009054906101000a900460ff1615151415156128f9576040517f08c379a000000000000000000000000000000000000000000000000000000000815260040180806020018281038252600a8152602001807f6f6e6c792061646d696e0000000000000000000000000000000000000000000081525060200191505060405180910390fd5b6001600560008373ffffffffffffffffffffffffffffffffffffffff1673ffffffffffffffffffffffffffffffffffffffff16815260200190815260200160002060006101000a81548160ff0219169083151502179055507f71614071b88dee5e0b2ae578a9dd7b2ebbe9ae832ba419dc0242cd065a290b6c81604051808273ffffffffffffffffffffffffffffffffffffffff1673ffffffffffffffffffffffffffffffffffffffff16815260200191505060405180910390a15b50565b6000809054906101000a900473ffffffffffffffffffffffffffffffffffffffff1673ffffffffffffffffffffffffffffffffffffffff163373ffffffffffffffffffffffffffffffffffffffff16141515612a1357600080fd5b6000809054906101000a900473ffffffffffffffffffffffffffffffffffffffff1673ffffffffffffffffffffffffffffffffffffffff167ff8df31144d9c2f0f6b59d69b8b98abd5459d07f2742c4df920b25aae33c6482060405160405180910390a260008060006101000a81548173ffffffffffffffffffffffffffffffffffffffff021916908373ffffffffffffffffffffffffffffffffffffffff160217905550565b6000809054906101000a900473ffffffffffffffffffffffffffffffffffffffff1673ffffffffffffffffffffffffffffffffffffffff163373ffffffffffffffffffffffffffffffffffffffff16141515612b1557600080fd5b80600460006101000a81548173ffffffffffffffffffffffffffffffffffffffff021916908373ffffffffffffffffffffffffffffffffffffffff16021790555050565b600a60205281600052604060002060205280600052604060002060009150915050806000015490806001015490806002015490806003018054600181600116156101000203166002900480601f016020809104026020016040519081016040528092919081815260200182805460018160011615610100020316600290048015612c245780601f10612bf957610100808354040283529160200191612c24565b820191906000526020600020905b815481529060010190602001808311612c0757829003601f168201915b5050505050908060040160009054906101000a900460ff16905085565b600080600080600080600c600088815260200190815260200160002060009054906101000a900473ffffffffffffffffffffffffffffffffffffffff1673ffffffffffffffffffffffffffffffffffffffff1663f3d259046040518163ffffffff167c010000000000000000000000000000000000000000000000000000000002815260040160c060405180830381600087803b158015612ce157600080fd5b505af1158015612cf5573d6000803e3d6000fd5b505050506040513d60c0811015612d0b57600080fd5b8101908080519060200190929190805190602001909291908051906020019092919080519060200190929190805190602001909291908051906020019092919050505095509550955095509550955091939550919395565b6000809054906101000a900473ffffffffffffffffffffffffffffffffffffffff1681565b60008060011515600560003373ffffffffffffffffffffffffffffffffffffffff1673ffffffffffffffffffffffffffffffffffffffff16815260200190815260200160002060009054906101000a900460ff1615151480612e2c57506000600660003373ffffffffffffffffffffffffffffffffffffffff1673ffffffffffffffffffffffffffffffffffffffff16815260200190815260200160002060000154115b1515612ea0576040517f08c379a00000000000000000000000000000000000000000000000000000000081526004018080602001828103825260198152602001807f6f6e6c792061646d696e206f722073746f7265206f776e65720000000000000081525060200191505060405180910390fd5b600560003373ffffffffffffffffffffffffffffffffffffffff1673ffffffffffffffffffffffffffffffffffffffff16815260200190815260200160002060009054906101000a900460ff16156130c957600760008473ffffffffffffffffffffffffffffffffffffffff1673ffffffffffffffffffffffffffffffffffffffff16815260200190815260200160002060009054906101000a900460ff1615612f9d57600760008473ffffffffffffffffffffffffffffffffffffffff1673ffffffffffffffffffffffffffffffffffffffff16815260200190815260200160002060006101000a81549060ff0219169055612f9c8361473b565b5b8291506000600660008573ffffffffffffffffffffffffffffffffffffffff1673ffffffffffffffffffffffffffffffffffffffff16815260200190815260200160002060000154111561303557600660008473ffffffffffffffffffffffffffffffffffffffff1673ffffffffffffffffffffffffffffffffffffffff16815260200190815260200160002060000154905061303a565b600090505b600660008473ffffffffffffffffffffffffffffffffffffffff1673ffffffffffffffffffffffffffffffffffffffff1681526020019081526020016000206000808201600090556001820160006130929190614aaa565b6002820160006130a29190614aaa565b6003820160006130b29190614aaa565b6004820160006130c29190614aaa565b5050613247565b600760003373ffffffffffffffffffffffffffffffffffffffff1673ffffffffffffffffffffffffffffffffffffffff16815260200190815260200160002060009054906101000a900460ff161561324657600760003373ffffffffffffffffffffffffffffffffffffffff1673ffffffffffffffffffffffffffffffffffffffff16815260200190815260200160002060006101000a81549060ff02191690556131733361473b565b339150600660003373ffffffffffffffffffffffffffffffffffffffff1673ffffffffffffffffffffffffffffffffffffffff168152602001908152602001600020600001549050600660003373ffffffffffffffffffffffffffffffffffffffff1673ffffffffffffffffffffffffffffffffffffffff1681526020019081526020016000206000808201600090556001820160006132139190614aaa565b6002820160006132239190614aaa565b6003820160006132339190614aaa565b6004820160006132439190614aaa565b50505b5b7f866ad6bc1d4c37c9c81f580fb77d4f0a75ddc503bdd8e689d194d7b5fa8f196a8282604051808373ffffffffffffffffffffffffffffffffffffffff1673ffffffffffffffffffffffffffffffffffffffff1681526020018281526020019250505060405180910390a1505050565b6132bf614af2565b600060149054906101000a900460ff1615156136ae576000600660003373ffffffffffffffffffffffffffffffffffffffff1673ffffffffffffffffffffffffffffffffffffffff1681526020019081526020016000206000015414151561338f576040517f08c379a00000000000000000000000000000000000000000000000000000000081526004018080602001828103825260128152602001807f73746f726520646f206e6f74206578697374000000000000000000000000000081525060200191505060405180910390fd5b60a060405190810160405280600154815260200186815260200185815260200184815260200183815250905080600660003373ffffffffffffffffffffffffffffffffffffffff1673ffffffffffffffffffffffffffffffffffffffff1681526020019081526020016000206000820151816000015560208201518160010190805190602001906134219291906149dc565b50604082015181600201908051906020019061343e9291906149dc565b50606082015181600301908051906020019061345b9291906149dc565b5060808201518160040190805190602001906134789291906149dc565b509050507fad5eb7a8cef108a44cdae7039b6f9583e7c8989bdaf322ac2fb0e5c3e88dad0d6001543387878787604051808781526020018673ffffffffffffffffffffffffffffffffffffffff1673ffffffffffffffffffffffffffffffffffffffff16815260200180602001806020018060200180602001858103855289818151815260200191508051906020019080838360005b8381101561352957808201518184015260208101905061350e565b50505050905090810190601f1680156135565780820380516001836020036101000a031916815260200191505b50858103845288818151815260200191508051906020019080838360005b8381101561358f578082015181840152602081019050613574565b50505050905090810190601f1680156135bc5780820380516001836020036101000a031916815260200191505b50858103835287818151815260200191508051906020019080838360005b838110156135f55780820151818401526020810190506135da565b50505050905090810190601f1680156136225780820380516001836020036101000a031916815260200191505b50858103825286818151815260200191508051906020019080838360005b8381101561365b578082015181840152602081019050613640565b50505050905090810190601f1680156136885780820380516001836020036101000a031916815260200191505b509a505050505050505050505060405180910390a1600180600082825401925050819055505b5050505050565b60008060149054906101000a900460ff16151561384f57600c600083815260200190815260200160002060009054906101000a900473ffffffffffffffffffffffffffffffffffffffff1673ffffffffffffffffffffffffffffffffffffffff166358aad10b336040518263ffffffff167c0100000000000000000000000000000000000000000000000000000000028152600401808273ffffffffffffffffffffffffffffffffffffffff1673ffffffffffffffffffffffffffffffffffffffff168152602001915050602060405180830381600087803b15801561379a57600080fd5b505af11580156137ae573d6000803e3d6000fd5b505050506040513d60208110156137c457600080fd5b810190808051906020019092919050505090507fe952c4c99a0f877a622376d1af72df46f18aa28a6787cbd3ec9dcceb43afa5b3338383604051808473ffffffffffffffffffffffffffffffffffffffff1673ffffffffffffffffffffffffffffffffffffffff16815260200183815260200182151515158152602001935050505060405180910390a15b5050565b600061385d614af2565b6000600660003373ffffffffffffffffffffffffffffffffffffffff1673ffffffffffffffffffffffffffffffffffffffff16815260200190815260200160002060000154111515613917576040517f08c379a00000000000000000000000000000000000000000000000000000000081526004018080602001828103825260108152602001807f6f6e6c792073746f7265206f776e65720000000000000000000000000000000081525060200191505060405180910390fd5b600660003373ffffffffffffffffffffffffffffffffffffffff1673ffffffffffffffffffffffffffffffffffffffff16815260200190815260200160002060000154915060a06040519081016040528083815260200187815260200186815260200185815260200184815250905080600660003373ffffffffffffffffffffffffffffffffffffffff1673ffffffffffffffffffffffffffffffffffffffff1681526020019081526020016000206000820151816000015560208201518160010190805190602001906139ec9291906149dc565b506040820151816002019080519060200190613a099291906149dc565b506060820151816003019080519060200190613a269291906149dc565b506080820151816004019080519060200190613a439291906149dc565b509050507fcea9e67e6d0d92d590041a594e09840b224b4f5fdc03196a78899d4e6e8916e0823388888888604051808781526020018673ffffffffffffffffffffffffffffffffffffffff1673ffffffffffffffffffffffffffffffffffffffff16815260200180602001806020018060200180602001858103855289818151815260200191508051906020019080838360005b83811015613af2578082015181840152602081019050613ad7565b50505050905090810190601f168015613b1f5780820380516001836020036101000a031916815260200191505b50858103845288818151815260200191508051906020019080838360005b83811015613b58578082015181840152602081019050613b3d565b50505050905090810190601f168015613b855780820380516001836020036101000a031916815260200191505b50858103835287818151815260200191508051906020019080838360005b83811015613bbe578082015181840152602081019050613ba3565b50505050905090810190601f168015613beb5780820380516001836020036101000a031916815260200191505b50858103825286818151815260200191508051906020019080838360005b83811015613c24578082015181840152602081019050613c09565b50505050905090810190601f168015613c515780820380516001836020036101000a031916815260200191505b509a505050505050505050505060405180910390a1505050505050565b60008060149054906101000a900460ff161515613e0857600c600083815260200190815260200160002060009054906101000a900473ffffffffffffffffffffffffffffffffffffffff1673ffffffffffffffffffffffffffffffffffffffff1663a15dc0d8336040518263ffffffff167c0100000000000000000000000000000000000000000000000000000000028152600401808273ffffffffffffffffffffffffffffffffffffffff1673ffffffffffffffffffffffffffffffffffffffff168152602001915050602060405180830381600087803b158015613d5357600080fd5b505af1158015613d67573d6000803e3d6000fd5b505050506040513d6020811015613d7d57600080fd5b810190808051906020019092919050505090507f8aba56f24d4cb460a0ab50233a09db7fefb91ccda5a22a341492d74f906236b5338383604051808473ffffffffffffffffffffffffffffffffffffffff1673ffffffffffffffffffffffffffffffffffffffff16815260200183815260200182151515158152602001935050505060405180910390a15b5050565b600b6020528060005260406000206000915054906101000a900473ffffffffffffffffffffffffffffffffffffffff1681565b60015481565b60096020528060005260406000206000915054906101000a900473ffffffffffffffffffffffffffffffffffffffff1681565b60076020528060005260406000206000915054906101000a900460ff1681565b60025481565b613ea6614a6c565b600060149054906101000a900460ff1615156143855760011515600760003373ffffffffffffffffffffffffffffffffffffffff1673ffffffffffffffffffffffffffffffffffffffff16815260200190815260200160002060009054906101000a900460ff161515141515613f84576040517f08c379a00000000000000000000000000000000000000000000000000000000081526004018080602001828103825260128152602001807f73746f7265206e6f7420617070726f766564000000000000000000000000000081525060200191505060405180910390fd5b60e060405190810160405280600254815260200188815260200187815260200186815260200185815260200184815260200183815250905080600860003373ffffffffffffffffffffffffffffffffffffffff1673ffffffffffffffffffffffffffffffffffffffff168152602001908152602001600020600060025481526020019081526020016000206000820151816000015560208201518160010190805190602001906140359291906149dc565b5060408201518160020190805190602001906140529291906149dc565b506060820151816003015560808201518160040190805190602001906140799291906149dc565b5060a08201518160050190805190602001906140969291906149dc565b5060c082015181600601559050503360096000600254815260200190815260200160002060006101000a81548173ffffffffffffffffffffffffffffffffffffffff021916908373ffffffffffffffffffffffffffffffffffffffff1602179055507fd140a29ecb454d7952258c89cc66d88dc11f992b780d3cb81dc4860e3d7f295933600660003373ffffffffffffffffffffffffffffffffffffffff1673ffffffffffffffffffffffffffffffffffffffff168152602001908152602001600020600001546002548a8a8a8a8a8a604051808a73ffffffffffffffffffffffffffffffffffffffff1673ffffffffffffffffffffffffffffffffffffffff1681526020018981526020018881526020018060200180602001878152602001806020018060200186815260200185810385528b818151815260200191508051906020019080838360005b838110156141fc5780820151818401526020810190506141e1565b50505050905090810190601f1680156142295780820380516001836020036101000a031916815260200191505b5085810384528a818151815260200191508051906020019080838360005b83811015614262578082015181840152602081019050614247565b50505050905090810190601f16801561428f5780820380516001836020036101000a031916815260200191505b50858103835288818151815260200191508051906020019080838360005b838110156142c85780820151818401526020810190506142ad565b50505050905090810190601f1680156142f55780820380516001836020036101000a031916815260200191505b50858103825287818151815260200191508051906020019080838360005b8381101561432e578082015181840152602081019050614313565b50505050905090810190601f16801561435b5780820380516001836020036101000a031916815260200191505b509d505050505050505050505050505060405180910390a160016002600082825401925050819055505b50505050505050565b600c6020528060005260406000206000915054906101000a900473ffffffffffffffffffffffffffffffffffffffff1681565b6000809054906101000a900473ffffffffffffffffffffffffffffffffffffffff1673ffffffffffffffffffffffffffffffffffffffff163373ffffffffffffffffffffffffffffffffffffffff1614151561441c57600080fd5b614425816148a7565b50565b600860205281600052604060002060205280600052604060002060009150915050806000015490806001018054600181600116156101000203166002900480601f0160208091040260200160405190810160405280929190818152602001828054600181600116156101000203166002900480156144e75780601f106144bc576101008083540402835291602001916144e7565b820191906000526020600020905b8154815290600101906020018083116144ca57829003601f168201915b505050505090806002018054600181600116156101000203166002900480601f0160208091040260200160405190810160405280929190818152602001828054600181600116156101000203166002900480156145855780601f1061455a57610100808354040283529160200191614585565b820191906000526020600020905b81548152906001019060200180831161456857829003601f168201915b505050505090806003015490806004018054600181600116156101000203166002900480601f0160208091040260200160405190810160405280929190818152602001828054600181600116156101000203166002900480156146295780601f106145fe57610100808354040283529160200191614629565b820191906000526020600020905b81548152906001019060200180831161460c57829003601f168201915b505050505090806005018054600181600116156101000203166002900480601f0160208091040260200160405190810160405280929190818152602001828054600181600116156101000203166002900480156146c75780601f1061469c576101008083540402835291602001916146c7565b820191906000526020600020905b8154815290600101906020018083116146aa57829003601f168201915b5050505050908060060154905087565b600460009054906101000a900473ffffffffffffffffffffffffffffffffffffffff1681565b60008060008414156147125760009150614734565b828402905082848281151561472357fe5b0414151561473057600080fd5b8091505b5092915050565b6000600190505b600254811115156148a3578173ffffffffffffffffffffffffffffffffffffffff166009600083815260200190815260200160002060009054906101000a900473ffffffffffffffffffffffffffffffffffffffff1673ffffffffffffffffffffffffffffffffffffffff161415614896576009600082815260200190815260200160002060006101000a81549073ffffffffffffffffffffffffffffffffffffffff0219169055600860008373ffffffffffffffffffffffffffffffffffffffff1673ffffffffffffffffffffffffffffffffffffffff16815260200190815260200160002060008281526020019081526020016000206000808201600090556001820160006148539190614aaa565b6002820160006148639190614aaa565b600382016000905560048201600061487b9190614aaa565b60058201600061488b9190614aaa565b600682016000905550505b8080600101915050614742565b5050565b600073ffffffffffffffffffffffffffffffffffffffff168173ffffffffffffffffffffffffffffffffffffffff16141515156148e357600080fd5b8073ffffffffffffffffffffffffffffffffffffffff166000809054906101000a900473ffffffffffffffffffffffffffffffffffffffff1673ffffffffffffffffffffffffffffffffffffffff167f8be0079c531659141344cd1fd0a4f28419497f9722a3daafe3b4186f6b6457e060405160405180910390a3806000806101000a81548173ffffffffffffffffffffffffffffffffffffffff021916908373ffffffffffffffffffffffffffffffffffffffff16021790555050565b60a06040519081016040528060008152602001600081526020016000815260200160608152602001600060018111156149d657fe5b81525090565b828054600181600116156101000203166002900490600052602060002090601f016020900481019282601f10614a1d57805160ff1916838001178555614a4b565b82800160010185558215614a4b579182015b82811115614a4a578251825591602001919060010190614a2f565b5b509050614a589190614b22565b5090565b604051610d7780614b4883390190565b60e060405190810160405280600081526020016060815260200160608152602001600081526020016060815260200160608152602001600081525090565b50805460018160011615610100020316600290046000825580601f10614ad05750614aef565b601f016020900490600052602060002090810190614aee9190614b22565b5b50565b60a06040519081016040528060008152602001606081526020016060815260200160608152602001606081525090565b614b4491905b80821115614b40576000816000905550600101614b28565b5090565b9056006080604052604051608080610d778339810180604052810190808051906020019092919080519060200190929190805190602001909291908051906020019092919050505083600381905550826000806101000a81548173ffffffffffffffffffffffffffffffffffffffff021916908373ffffffffffffffffffffffffffffffffffffffff16021790555081600160006101000a81548173ffffffffffffffffffffffffffffffffffffffff021916908373ffffffffffffffffffffffffffffffffffffffff16021790555080600260006101000a81548173ffffffffffffffffffffffffffffffffffffffff021916908373ffffffffffffffffffffffffffffffffffffffff1602179055506000600960006101000a81548160ff0219169083151502179055503460048190555033600960016101000a81548173ffffffffffffffffffffffffffffffffffffffff021916908373ffffffffffffffffffffffffffffffffffffffff16021790555050505050610bf4806101836000396000f3006080604052600436106100ba576000357c0100000000000000000000000000000000000000000000000000000000900463ffffffff16806308551a53146100bf5780630bda4dbf14610116578063163de5e5146101415780632df0d5b61461016c57806358aad10b1461019b5780637150d8ae146101f65780638da5cb5b1461024d578063a15dc0d8146102a4578063aa8c217c146102ff578063b8d08db21461032a578063f3d2590414610355578063fe25e00a1461042b575b600080fd5b3480156100cb57600080fd5b506100d4610482565b604051808273ffffffffffffffffffffffffffffffffffffffff1673ffffffffffffffffffffffffffffffffffffffff16815260200191505060405180910390f35b34801561012257600080fd5b5061012b6104a8565b6040518082815260200191505060405180910390f35b34801561014d57600080fd5b506101566104ae565b6040518082815260200191505060405180910390f35b34801561017857600080fd5b506101816104b4565b604051808215151515815260200191505060405180910390f35b3480156101a757600080fd5b506101dc600480360381019080803573ffffffffffffffffffffffffffffffffffffffff1690602001909291905050506104c7565b604051808215151515815260200191505060405180910390f35b34801561020257600080fd5b5061020b6107bc565b604051808273ffffffffffffffffffffffffffffffffffffffff1673ffffffffffffffffffffffffffffffffffffffff16815260200191505060405180910390f35b34801561025957600080fd5b506102626107e1565b604051808273ffffffffffffffffffffffffffffffffffffffff1673ffffffffffffffffffffffffffffffffffffffff16815260200191505060405180910390f35b3480156102b057600080fd5b506102e5600480360381019080803573ffffffffffffffffffffffffffffffffffffffff169060200190929190505050610807565b604051808215151515815260200191505060405180910390f35b34801561030b57600080fd5b50610314610afb565b6040518082815260200191505060405180910390f35b34801561033657600080fd5b5061033f610b01565b6040518082815260200191505060405180910390f35b34801561036157600080fd5b5061036a610b07565b604051808773ffffffffffffffffffffffffffffffffffffffff1673ffffffffffffffffffffffffffffffffffffffff1681526020018673ffffffffffffffffffffffffffffffffffffffff1673ffffffffffffffffffffffffffffffffffffffff1681526020018573ffffffffffffffffffffffffffffffffffffffff1673ffffffffffffffffffffffffffffffffffffffff16815260200184151515158152602001838152602001828152602001965050505050505060405180910390f35b34801561043757600080fd5b50610440610ba2565b604051808273ffffffffffffffffffffffffffffffffffffffff1673ffffffffffffffffffffffffffffffffffffffff16815260200191505060405180910390f35b600160009054906101000a900473ffffffffffffffffffffffffffffffffffffffff1681565b60085481565b60035481565b600960009054906101000a900460ff1681565b60003373ffffffffffffffffffffffffffffffffffffffff16600960019054906101000a900473ffffffffffffffffffffffffffffffffffffffff1673ffffffffffffffffffffffffffffffffffffffff1614151561052557600080fd5b60001515600960009054906101000a900460ff16151514151561054757600080fd5b6000809054906101000a900473ffffffffffffffffffffffffffffffffffffffff1673ffffffffffffffffffffffffffffffffffffffff168273ffffffffffffffffffffffffffffffffffffffff1614806105ef5750600160009054906101000a900473ffffffffffffffffffffffffffffffffffffffff1673ffffffffffffffffffffffffffffffffffffffff168273ffffffffffffffffffffffffffffffffffffffff16145b806106475750600260009054906101000a900473ffffffffffffffffffffffffffffffffffffffff1673ffffffffffffffffffffffffffffffffffffffff168273ffffffffffffffffffffffffffffffffffffffff16145b80156106a4575060011515600560008473ffffffffffffffffffffffffffffffffffffffff1673ffffffffffffffffffffffffffffffffffffffff16815260200190815260200160002060009054906101000a900460ff16151514155b15610713576001600560008473ffffffffffffffffffffffffffffffffffffffff1673ffffffffffffffffffffffffffffffffffffffff16815260200190815260200160002060006101000a81548160ff02191690831515021790555060016007600082825401925050819055505b600260075414156107a557600160009054906101000a900473ffffffffffffffffffffffffffffffffffffffff1673ffffffffffffffffffffffffffffffffffffffff166108fc6004549081150290604051600060405180830381858888f19350505050158015610788573d6000803e3d6000fd5b506001600960006101000a81548160ff0219169083151502179055505b600960009054906101000a900460ff169050919050565b6000809054906101000a900473ffffffffffffffffffffffffffffffffffffffff1681565b600960019054906101000a900473ffffffffffffffffffffffffffffffffffffffff1681565b60003373ffffffffffffffffffffffffffffffffffffffff16600960019054906101000a900473ffffffffffffffffffffffffffffffffffffffff1673ffffffffffffffffffffffffffffffffffffffff1614151561086557600080fd5b60001515600960009054906101000a900460ff16151514151561088757600080fd5b6000809054906101000a900473ffffffffffffffffffffffffffffffffffffffff1673ffffffffffffffffffffffffffffffffffffffff168273ffffffffffffffffffffffffffffffffffffffff16148061092f5750600160009054906101000a900473ffffffffffffffffffffffffffffffffffffffff1673ffffffffffffffffffffffffffffffffffffffff168273ffffffffffffffffffffffffffffffffffffffff16145b806109875750600260009054906101000a900473ffffffffffffffffffffffffffffffffffffffff1673ffffffffffffffffffffffffffffffffffffffff168273ffffffffffffffffffffffffffffffffffffffff16145b80156109e4575060011515600660008473ffffffffffffffffffffffffffffffffffffffff1673ffffffffffffffffffffffffffffffffffffffff16815260200190815260200160002060009054906101000a900460ff16151514155b15610a53576001600660008473ffffffffffffffffffffffffffffffffffffffff1673ffffffffffffffffffffffffffffffffffffffff16815260200190815260200160002060006101000a81548160ff02191690831515021790555060016008600082825401925050819055505b60026008541415610ae4576000809054906101000a900473ffffffffffffffffffffffffffffffffffffffff1673ffffffffffffffffffffffffffffffffffffffff166108fc6004549081150290604051600060405180830381858888f19350505050158015610ac7573d6000803e3d6000fd5b506001600960006101000a81548160ff0219169083151502179055505b600960009054906101000a900460ff169050919050565b60045481565b60075481565b6000806000806000806000809054906101000a900473ffffffffffffffffffffffffffffffffffffffff16600160009054906101000a900473ffffffffffffffffffffffffffffffffffffffff16600260009054906101000a900473ffffffffffffffffffffffffffffffffffffffff16600960009054906101000a900460ff16600754600854955095509550955095509550909192939495565b600260009054906101000a900473ffffffffffffffffffffffffffffffffffffffff16815600a165627a7a7230582031d3d3dec6556402b984eaba0feb4b0cc7c2a2a35cd211366f2ecf6ac30442ba0029a165627a7a7230582026915421d108b8cab664af2f19ea4f07ba00b669050803d70380aaae108a570d0029",
  "source": "pragma solidity ^0.4.23;\n\n\nimport \"contracts/Ownable.sol\";\nimport \"contracts/Mortal.sol\";\nimport \"contracts/CircuitBreaker.sol\";\nimport 'contracts/SafeMath.sol';\nimport \"contracts/Escrow.sol\";\n\ncontract EcommerceStore is ownable, mortal, circuitBreaker {\n\n  using SafeMath for uint256;\n\n  enum OrderStatus{CREATED, PAYED}\n\n  uint public storeIndex;\n  uint public productIndex;\n  uint public orderIndex;\n  address public arbiter;\n\n  // Check if address is admin\n  mapping(address => bool) public admins;\n\n  // Store details\n  mapping(address => Store) public stores;\n  mapping(address => bool) public approvedStores;\n\n  // used for finding easily a store based on a productId\n  mapping(address => mapping(uint => Product)) public products;\n  mapping(uint => address) public productIdInStore;\n\n\n  mapping(address => mapping(uint => Order)) public orders;\n  mapping(uint => address) public orderIdForBuyer;\n\n  // productId mapping the address of the escrow contract\n  mapping(uint => address) public productEscrow;\n\n  struct Store {\n    uint id;\n    string name;\n    string category;\n    string imageLink;\n    string descriptionLink;\n  }\n\n  struct Product {\n    uint id;\n    string name;\n    string category;\n    uint quantity;\n    string imageLink;\n    string descriptionLink;\n    uint256 price;\n  }\n\n  struct Order {\n    uint id;\n    uint productId;\n    uint quantity;\n    string orderAddress;\n    OrderStatus status;\n  }\n\n  modifier onlyAdmin() {\n    require (admins[msg.sender] == true, \"only admin\");\n    _;\n  }\n\n  modifier onlyStoreOwner() {\n    require (stores[msg.sender].id > 0, \"only store owner\");\n    _;\n  }\n\n  modifier onlyAdminOrStoreOwner() {\n    require (admins[msg.sender] == true || stores[msg.sender].id > 0, \"only admin or store owner\");\n    _;\n  }\n\n  modifier onlyProductOwner(uint _id) {\n    require (msg.sender == productIdInStore[_id], \"only store owner\");\n    _;\n  }\n\n  modifier storeNotExist() {\n    require (stores[msg.sender].id == 0, \"store do not exist\");\n    _;\n  }\n\n  modifier onlyApprovedStores() {\n    require (approvedStores[msg.sender] == true, \"store not approved\");\n    _;\n  }\n\n  modifier productExist(uint _id) {\n    require (productIdInStore[_id] != address(0x0), \"product do not exist\");\n    _;\n  }\n\n  modifier productHasEnoughtQuantity(uint _productId, uint _orderQuantity) {\n    require (products[productIdInStore[_productId]][_productId].quantity >= _orderQuantity && _orderQuantity != 0, \"quantity is too low\");\n    _;\n  }\n\n  modifier OrderPriceIsEnought(uint _productId, uint _orderQuantity) {\n    require (msg.value >= SafeMath.mul(products[productIdInStore[_productId]][_productId].quantity, _orderQuantity), \"price is too low\");\n    _;\n  }\n\n\n  event NewAdmin(address _address);\n  event AdminDeleted(address _address);\n\n  event NewStore(uint _id, address _address, string _name, string _category, string _imageLink, string _descriptionLink);\n  event StoreUpdated(uint _id, address _address, string _name, string _category, string _imageLink, string _descriptionLink);\n  event StoreRemoved(address _address, uint _id);\n  event StoreApproved(address _address);\n\n  event NewProduct(address _storeAddress, uint _storeId, uint _id, string _name, string _category,  uint _quantity, string _imageLink, string _descriptionLink, uint256 _price);\n  event ProductUpdated(uint _id, string _name, string _category,  uint _quantity, string _imageLink, string _descriptionLink, uint256 _price);\n  event ProductRemoved(uint _id);\n\n  event NewOrder(address _buyer,address _seller, uint _id, uint _productId, uint _quantity, string _orderAddress,address _arbiter);\n\n  event FundReleaseToSeller(address _caller, uint _orderId, bool _fundDisbursed);\n  event FundReleaseToBuyer(address _caller, uint _orderId, bool _fundDisbursed);\n\n  constructor(address _arbiter) public {\n    admins[msg.sender] = true;\n    emit NewAdmin(msg.sender);\n    productIndex = 1;\n    storeIndex = 1;\n    orderIndex = 1;\n    arbiter = _arbiter;\n  }\n\n  function changeArbiter(address _address)\n  public\n  onlyOwner\n  {\n    arbiter = _address;\n  }\n\n  function addAdmin(address _address)\n  public\n  stopInEmergency\n  onlyAdmin\n  {\n    admins[_address] = true;\n    emit NewAdmin(_address);\n  }\n\n  function removeAdmin(address _address)\n  public\n  onlyAdmin\n  {\n    require(admins[_address]);\n    admins[_address] = false;\n    emit AdminDeleted(_address);\n  }\n\n  function addStore(string _name, string _category, string _imageLink, string _descriptionLink)\n  public\n  stopInEmergency\n  storeNotExist\n  {\n    Store memory store = Store(storeIndex, _name, _category, _imageLink, _descriptionLink);\n    stores[msg.sender] = store;\n    emit NewStore(storeIndex, msg.sender, _name, _category, _imageLink, _descriptionLink);\n    storeIndex += 1;\n  }\n\n  function removeStore(address _address)\n  public\n  onlyAdminOrStoreOwner\n  {\n    address storeAddress;\n    uint storeId;\n    if (admins[msg.sender]) {\n      if(approvedStores[_address]) {\n        delete approvedStores[_address];\n        removeAllProductFromStore(_address);\n      }\n      storeAddress = _address;\n      if (stores[_address].id > 0) {\n        storeId = stores[_address].id;\n      }\n      else {\n        storeId = 0;\n      }\n      delete stores[_address];\n    }\n    else if (approvedStores[msg.sender]) {\n      delete approvedStores[msg.sender];\n      removeAllProductFromStore(msg.sender);\n      storeAddress = msg.sender;\n      storeId = stores[msg.sender].id;\n      delete stores[msg.sender];\n    }\n    emit StoreRemoved(storeAddress, storeId);\n  }\n\n  function updateStore(string _name, string _category, string _imageLink, string _descriptionLink)\n  public\n  onlyStoreOwner\n  {\n    uint storeId = stores[msg.sender].id;\n    Store memory store = Store(storeId, _name, _category, _imageLink, _descriptionLink);\n    stores[msg.sender] = store;\n    emit StoreUpdated(storeId, msg.sender, _name, _category, _imageLink, _descriptionLink);\n  }\n\n  function approveStore(address _address)\n  public\n  stopInEmergency\n  onlyAdmin\n  {\n    approvedStores[_address] = true;\n    emit StoreApproved(_address);\n  }\n\n  function addProduct(string _name, string _category, uint _quantity, string _imageLink, string _descriptionLink, uint256 _price)\n  public\n  stopInEmergency\n  onlyApprovedStores\n  {\n    Product memory product = Product(productIndex, _name, _category, _quantity, _imageLink, _descriptionLink, _price);\n    products[msg.sender][productIndex] = product;\n    productIdInStore[productIndex] = msg.sender;\n    emit NewProduct(msg.sender, stores[msg.sender].id, productIndex, _name, _category, _quantity, _imageLink, _descriptionLink, _price);\n    productIndex += 1;\n  }\n\n  function updateProduct(uint _productId, string _name, string _category, uint _quantity, string _imageLink, string _descriptionLink, uint256 _price)\n  public\n  onlyProductOwner(_productId)\n  {\n    Product memory product = Product(_productId, _name, _category, _quantity, _imageLink, _descriptionLink, _price);\n    products[msg.sender][_productId] = product;\n    emit ProductUpdated(_productId, _name, _category, _quantity, _imageLink, _descriptionLink, _price);\n  }\n\n  function removeProduct(uint _productId)\n  public\n  onlyProductOwner(_productId)\n  {\n    delete products[msg.sender][_productId];\n    delete productIdInStore[productIndex];\n    emit ProductRemoved(_productId);\n  }\n\n  function removeAllProductFromStore(address _storeAddress)\n  internal\n  {\n    for (uint i=1; i<=productIndex; i++) {\n      if (productIdInStore[i] == _storeAddress) {\n        delete productIdInStore[i];\n        delete products[_storeAddress][i];\n      }\n    }\n  }\n  // payable\n  function newOrder(uint _productId, uint _quantity, string _orderAddress)\n  payable\n  public\n  stopInEmergency\n  productExist(_productId)\n  productHasEnoughtQuantity(_productId, _quantity)\n  OrderPriceIsEnought(_productId, _quantity)\n  {\n    Order memory order = Order(orderIndex, _productId, _quantity, _orderAddress, OrderStatus.CREATED);\n    orders[msg.sender][orderIndex] = order;\n    orderIdForBuyer[orderIndex] = msg.sender;\n    products[productIdInStore[_productId]][_productId].quantity -= _quantity;\n    Escrow escrow = (new Escrow).value(msg.value)(orderIndex, msg.sender, productIdInStore[_productId], arbiter);\n    productEscrow[orderIndex] = escrow;\n    emit NewOrder(msg.sender, productIdInStore[_productId], orderIndex, _productId, _quantity, _orderAddress, arbiter);\n    orderIndex += 1;\n  }\n\n  function escrowInfo(uint _orderId)\n  view\n  public\n  returns (address, address, address, bool, uint, uint)\n  {\n    return Escrow(productEscrow[_orderId]).escrowInfo();\n  }\n\n  function releaseAmountToSeller(uint _orderId)\n  public\n  stopInEmergency\n  {\n    bool disbursed = Escrow(productEscrow[_orderId]).releaseAmountToSeller(msg.sender);\n    emit FundReleaseToSeller(msg.sender, _orderId, disbursed);\n  }\n\n  function releaseAmountToBuyer(uint _orderId)\n  public\n  stopInEmergency\n  {\n    bool disbursed = Escrow(productEscrow[_orderId]).releaseAmountToBuyer(msg.sender);\n    emit FundReleaseToBuyer(msg.sender, _orderId, disbursed);\n  }\n\n}\n\n\n",
  "sourcePath": "/home/jonathan/Bureau/Ethereum/consensys-project/contracts/EcommerceStore.sol",
  "compiler": {
    "name": "solc",
    "version": "0.4.24+commit.e67f0147.Emscripten.clang"
  },
  "schemaVersion": "2.0.1",
  "updatedAt": "2018-08-26T03:33:15.108Z"
}