{
  "contractName": "EcommerceStore",
  "abi": [
    {
      "constant": true,
      "inputs": [],
      "name": "productIndex",
      "outputs": [
        {
          "name": "",
          "type": "uint256"
        }
      ],
      "payable": false,
      "stateMutability": "view",
      "type": "function"
    },
    {
      "constant": true,
      "inputs": [],
      "name": "arbiter",
      "outputs": [
        {
          "name": "",
          "type": "address"
        }
      ],
      "payable": false,
      "stateMutability": "view",
      "type": "function"
    },
    {
      "inputs": [
        {
          "name": "_arbiter",
          "type": "address"
        }
      ],
      "payable": false,
      "stateMutability": "nonpayable",
      "type": "constructor"
    },
    {
      "anonymous": false,
      "inputs": [
        {
          "indexed": false,
          "name": "_productId",
          "type": "uint256"
        },
        {
          "indexed": false,
          "name": "_name",
          "type": "string"
        },
        {
          "indexed": false,
          "name": "_category",
          "type": "string"
        },
        {
          "indexed": false,
          "name": "_quantity",
          "type": "uint256"
        },
        {
          "indexed": false,
          "name": "_imageLink",
          "type": "string"
        },
        {
          "indexed": false,
          "name": "_descriptionLink",
          "type": "string"
        },
        {
          "indexed": false,
          "name": "_startTime",
          "type": "uint256"
        },
        {
          "indexed": false,
          "name": "_price",
          "type": "uint256"
        },
        {
          "indexed": false,
          "name": "_productCondition",
          "type": "uint256"
        }
      ],
      "name": "NewProduct",
      "type": "event"
    },
    {
      "constant": false,
      "inputs": [
        {
          "name": "_name",
          "type": "string"
        },
        {
          "name": "_category",
          "type": "string"
        },
        {
          "name": "_imageLink",
          "type": "string"
        },
        {
          "name": "_descriptionLink",
          "type": "string"
        },
        {
          "name": "_startTime",
          "type": "uint256"
        },
        {
          "name": "_price",
          "type": "uint256"
        },
        {
          "name": "_productCondition",
          "type": "uint256"
        }
      ],
      "name": "addProductToStore",
      "outputs": [],
      "payable": false,
      "stateMutability": "nonpayable",
      "type": "function"
    },
    {
      "constant": true,
      "inputs": [
        {
          "name": "productId",
          "type": "uint256"
        }
      ],
      "name": "getProduct",
      "outputs": [
        {
          "name": "",
          "type": "uint256"
        },
        {
          "name": "",
          "type": "string"
        },
        {
          "name": "",
          "type": "string"
        },
        {
          "name": "",
          "type": "uint256"
        },
        {
          "name": "",
          "type": "string"
        },
        {
          "name": "",
          "type": "string"
        },
        {
          "name": "",
          "type": "uint256"
        },
        {
          "name": "",
          "type": "uint256"
        },
        {
          "name": "",
          "type": "uint8"
        },
        {
          "name": "",
          "type": "address"
        }
      ],
      "payable": false,
      "stateMutability": "view",
      "type": "function"
    },
    {
      "constant": false,
      "inputs": [
        {
          "name": "_productId",
          "type": "uint256"
        }
      ],
      "name": "buyProduct",
      "outputs": [],
      "payable": true,
      "stateMutability": "payable",
      "type": "function"
    },
    {
      "constant": true,
      "inputs": [
        {
          "name": "_productId",
          "type": "uint256"
        }
      ],
      "name": "escrowInfo",
      "outputs": [
        {
          "name": "",
          "type": "address"
        },
        {
          "name": "",
          "type": "address"
        },
        {
          "name": "",
          "type": "address"
        },
        {
          "name": "",
          "type": "bool"
        },
        {
          "name": "",
          "type": "uint256"
        },
        {
          "name": "",
          "type": "uint256"
        }
      ],
      "payable": false,
      "stateMutability": "view",
      "type": "function"
    },
    {
      "constant": false,
      "inputs": [
        {
          "name": "_productId",
          "type": "uint256"
        }
      ],
      "name": "releaseAmountToSeller",
      "outputs": [],
      "payable": false,
      "stateMutability": "nonpayable",
      "type": "function"
    },
    {
      "constant": false,
      "inputs": [
        {
          "name": "_productId",
          "type": "uint256"
        }
      ],
      "name": "releaseAmountToBuyer",
      "outputs": [],
      "payable": false,
      "stateMutability": "nonpayable",
      "type": "function"
    }
  ],
  "bytecode": "0x608060405234801561001057600080fd5b50604051602080612859833981018060405281019080805190602001909291905050506000808190555080600160006101000a81548173ffffffffffffffffffffffffffffffffffffffff021916908373ffffffffffffffffffffffffffffffffffffffff160217905550506127ce8061008b6000396000f30060806040526004361061008e576000357c0100000000000000000000000000000000000000000000000000000000900463ffffffff168063170dd1601461009357806383560525146101ec5780638642269e146102d85780639a3a7c69146102f8578063a8939abd14610325578063b9db15b414610352578063c897d5a6146105a0578063fe25e00a146105cb575b600080fd5b34801561009f57600080fd5b506101ea600480360381019080803590602001908201803590602001908080601f0160208091040260200160405190810160405280939291908181526020018383808284378201915050505050509192919290803590602001908201803590602001908080601f0160208091040260200160405190810160405280939291908181526020018383808284378201915050505050509192919290803590602001908201803590602001908080601f0160208091040260200160405190810160405280939291908181526020018383808284378201915050505050509192919290803590602001908201803590602001908080601f0160208091040260200160405190810160405280939291908181526020018383808284378201915050505050509192919290803590602001909291908035906020019092919080359060200190929190505050610622565b005b3480156101f857600080fd5b5061021760048036038101908080359060200190929190505050610a81565b604051808773ffffffffffffffffffffffffffffffffffffffff1673ffffffffffffffffffffffffffffffffffffffff1681526020018673ffffffffffffffffffffffffffffffffffffffff1673ffffffffffffffffffffffffffffffffffffffff1681526020018573ffffffffffffffffffffffffffffffffffffffff1673ffffffffffffffffffffffffffffffffffffffff16815260200184151515158152602001838152602001828152602001965050505050505060405180910390f35b6102f660048036038101908080359060200190929190505050610ba3565b005b34801561030457600080fd5b5061032360048036038101908080359060200190929190505050611320565b005b34801561033157600080fd5b5061035060048036038101908080359060200190929190505050611409565b005b34801561035e57600080fd5b5061037d600480360381019080803590602001909291905050506114f2565b604051808b815260200180602001806020018a815260200180602001806020018981526020018881526020018760018111156103b557fe5b60ff1681526020018673ffffffffffffffffffffffffffffffffffffffff1673ffffffffffffffffffffffffffffffffffffffff16815260200185810385528e818151815260200191508051906020019080838360005b8381101561042757808201518184015260208101905061040c565b50505050905090810190601f1680156104545780820380516001836020036101000a031916815260200191505b5085810384528d818151815260200191508051906020019080838360005b8381101561048d578082015181840152602081019050610472565b50505050905090810190601f1680156104ba5780820380516001836020036101000a031916815260200191505b5085810383528b818151815260200191508051906020019080838360005b838110156104f35780820151818401526020810190506104d8565b50505050905090810190601f1680156105205780820380516001836020036101000a031916815260200191505b5085810382528a818151815260200191508051906020019080838360005b8381101561055957808201518184015260208101905061053e565b50505050905090810190601f1680156105865780820380516001836020036101000a031916815260200191505b509e50505050505050505050505050505060405180910390f35b3480156105ac57600080fd5b506105b5611931565b6040518082815260200191505060405180910390f35b3480156105d757600080fd5b506105e0611937565b604051808273ffffffffffffffffffffffffffffffffffffffff1673ffffffffffffffffffffffffffffffffffffffff16815260200191505060405180910390f35b61062a61195d565b600160008082825401925050819055506101406040519081016040528060005481526020018981526020018881526020016001815260200187815260200186815260200185815260200184815260200183600181111561068657fe5b600181111561069157fe5b8152602001600073ffffffffffffffffffffffffffffffffffffffff16815250905080600260003373ffffffffffffffffffffffffffffffffffffffff1673ffffffffffffffffffffffffffffffffffffffff16815260200190815260200160002060008054815260200190815260200160002060008201518160000155602082015181600101908051906020019061072b9291906119d2565b5060408201518160020190805190602001906107489291906119d2565b5060608201518160030155608082015181600401908051906020019061076f9291906119d2565b5060a082015181600501908051906020019061078c9291906119d2565b5060c0820151816006015560e082015181600701556101008201518160080160006101000a81548160ff021916908360018111156107c657fe5b02179055506101208201518160080160016101000a81548173ffffffffffffffffffffffffffffffffffffffff021916908373ffffffffffffffffffffffffffffffffffffffff16021790555090505033600360008054815260200190815260200160002060006101000a81548173ffffffffffffffffffffffffffffffffffffffff021916908373ffffffffffffffffffffffffffffffffffffffff1602179055507f2abcca6cd195dcd9668afc18f74de01fe1d8f631a47b544d4efd4293f65c1497600054898960018a8a8a8a8a604051808a81526020018060200180602001898152602001806020018060200188815260200187815260200186815260200185810385528d818151815260200191508051906020019080838360005b838110156109005780820151818401526020810190506108e5565b50505050905090810190601f16801561092d5780820380516001836020036101000a031916815260200191505b5085810384528c818151815260200191508051906020019080838360005b8381101561096657808201518184015260208101905061094b565b50505050905090810190601f1680156109935780820380516001836020036101000a031916815260200191505b5085810383528a818151815260200191508051906020019080838360005b838110156109cc5780820151818401526020810190506109b1565b50505050905090810190601f1680156109f95780820380516001836020036101000a031916815260200191505b50858103825289818151815260200191508051906020019080838360005b83811015610a32578082015181840152602081019050610a17565b50505050905090810190601f168015610a5f5780820380516001836020036101000a031916815260200191505b509d505050505050505050505050505060405180910390a15050505050505050565b6000806000806000806005600088815260200190815260200160002060009054906101000a900473ffffffffffffffffffffffffffffffffffffffff1673ffffffffffffffffffffffffffffffffffffffff1663f3d259046040518163ffffffff167c010000000000000000000000000000000000000000000000000000000002815260040160c060405180830381600087803b158015610b2157600080fd5b505af1158015610b35573d6000803e3d6000fd5b505050506040513d60c0811015610b4b57600080fd5b8101908080519060200190929190805190602001909291908051906020019092919080519060200190929190805190602001909291908051906020019092919050505095509550955095509550955091939550919395565b610bab61195d565b6000600260006003600086815260200190815260200160002060009054906101000a900473ffffffffffffffffffffffffffffffffffffffff1673ffffffffffffffffffffffffffffffffffffffff1673ffffffffffffffffffffffffffffffffffffffff1681526020019081526020016000206000848152602001908152602001600020610140604051908101604052908160008201548152602001600182018054600181600116156101000203166002900480601f016020809104026020016040519081016040528092919081815260200182805460018160011615610100020316600290048015610ce05780601f10610cb557610100808354040283529160200191610ce0565b820191906000526020600020905b815481529060010190602001808311610cc357829003601f168201915b50505050508152602001600282018054600181600116156101000203166002900480601f016020809104026020016040519081016040528092919081815260200182805460018160011615610100020316600290048015610d825780601f10610d5757610100808354040283529160200191610d82565b820191906000526020600020905b815481529060010190602001808311610d6557829003601f168201915b5050505050815260200160038201548152602001600482018054600181600116156101000203166002900480601f016020809104026020016040519081016040528092919081815260200182805460018160011615610100020316600290048015610e2e5780601f10610e0357610100808354040283529160200191610e2e565b820191906000526020600020905b815481529060010190602001808311610e1157829003601f168201915b50505050508152602001600582018054600181600116156101000203166002900480601f016020809104026020016040519081016040528092919081815260200182805460018160011615610100020316600290048015610ed05780601f10610ea557610100808354040283529160200191610ed0565b820191906000526020600020905b815481529060010190602001808311610eb357829003601f168201915b5050505050815260200160068201548152602001600782015481526020016008820160009054906101000a900460ff166001811115610f0b57fe5b6001811115610f1657fe5b81526020016008820160019054906101000a900473ffffffffffffffffffffffffffffffffffffffff1673ffffffffffffffffffffffffffffffffffffffff1673ffffffffffffffffffffffffffffffffffffffff16815250509150600073ffffffffffffffffffffffffffffffffffffffff1682610120015173ffffffffffffffffffffffffffffffffffffffff16141515610fb257600080fd5b8160e001513410151515610fc557600080fd5b3382610120019073ffffffffffffffffffffffffffffffffffffffff16908173ffffffffffffffffffffffffffffffffffffffff1681525050600182606001818151039150818152505081600260006003600087815260200190815260200160002060009054906101000a900473ffffffffffffffffffffffffffffffffffffffff1673ffffffffffffffffffffffffffffffffffffffff1673ffffffffffffffffffffffffffffffffffffffff16815260200190815260200160002060008581526020019081526020016000206000820151816000015560208201518160010190805190602001906110b99291906119d2565b5060408201518160020190805190602001906110d69291906119d2565b506060820151816003015560808201518160040190805190602001906110fd9291906119d2565b5060a082015181600501908051906020019061111a9291906119d2565b5060c0820151816006015560e082015181600701556101008201518160080160006101000a81548160ff0219169083600181111561115457fe5b02179055506101208201518160080160016101000a81548173ffffffffffffffffffffffffffffffffffffffff021916908373ffffffffffffffffffffffffffffffffffffffff1602179055509050503483336003600087815260200190815260200160002060009054906101000a900473ffffffffffffffffffffffffffffffffffffffff16600160009054906101000a900473ffffffffffffffffffffffffffffffffffffffff16611206611a52565b808581526020018473ffffffffffffffffffffffffffffffffffffffff1673ffffffffffffffffffffffffffffffffffffffff1681526020018373ffffffffffffffffffffffffffffffffffffffff1673ffffffffffffffffffffffffffffffffffffffff1681526020018273ffffffffffffffffffffffffffffffffffffffff1673ffffffffffffffffffffffffffffffffffffffff1681526020019450505050506040518091039082f0801580156112c4573d6000803e3d6000fd5b5090509050806005600085815260200190815260200160002060006101000a81548173ffffffffffffffffffffffffffffffffffffffff021916908373ffffffffffffffffffffffffffffffffffffffff160217905550505050565b6005600082815260200190815260200160002060009054906101000a900473ffffffffffffffffffffffffffffffffffffffff1673ffffffffffffffffffffffffffffffffffffffff166358aad10b336040518263ffffffff167c0100000000000000000000000000000000000000000000000000000000028152600401808273ffffffffffffffffffffffffffffffffffffffff1673ffffffffffffffffffffffffffffffffffffffff168152602001915050600060405180830381600087803b1580156113ee57600080fd5b505af1158015611402573d6000803e3d6000fd5b5050505050565b6005600082815260200190815260200160002060009054906101000a900473ffffffffffffffffffffffffffffffffffffffff1673ffffffffffffffffffffffffffffffffffffffff1663a15dc0d8336040518263ffffffff167c0100000000000000000000000000000000000000000000000000000000028152600401808273ffffffffffffffffffffffffffffffffffffffff1673ffffffffffffffffffffffffffffffffffffffff168152602001915050600060405180830381600087803b1580156114d757600080fd5b505af11580156114eb573d6000803e3d6000fd5b5050505050565b6000606080600060608060008060008061150a61195d565b60026000600360008f815260200190815260200160002060009054906101000a900473ffffffffffffffffffffffffffffffffffffffff1673ffffffffffffffffffffffffffffffffffffffff1673ffffffffffffffffffffffffffffffffffffffff16815260200190815260200160002060008d8152602001908152602001600020610140604051908101604052908160008201548152602001600182018054600181600116156101000203166002900480601f01602080910402602001604051908101604052809291908181526020018280546001816001161561010002031660029004801561163d5780601f106116125761010080835404028352916020019161163d565b820191906000526020600020905b81548152906001019060200180831161162057829003601f168201915b50505050508152602001600282018054600181600116156101000203166002900480601f0160208091040260200160405190810160405280929190818152602001828054600181600116156101000203166002900480156116df5780601f106116b4576101008083540402835291602001916116df565b820191906000526020600020905b8154815290600101906020018083116116c257829003601f168201915b5050505050815260200160038201548152602001600482018054600181600116156101000203166002900480601f01602080910402602001604051908101604052809291908181526020018280546001816001161561010002031660029004801561178b5780601f106117605761010080835404028352916020019161178b565b820191906000526020600020905b81548152906001019060200180831161176e57829003601f168201915b50505050508152602001600582018054600181600116156101000203166002900480601f01602080910402602001604051908101604052809291908181526020018280546001816001161561010002031660029004801561182d5780601f106118025761010080835404028352916020019161182d565b820191906000526020600020905b81548152906001019060200180831161181057829003601f168201915b5050505050815260200160068201548152602001600782015481526020016008820160009054906101000a900460ff16600181111561186857fe5b600181111561187357fe5b81526020016008820160019054906101000a900473ffffffffffffffffffffffffffffffffffffffff1673ffffffffffffffffffffffffffffffffffffffff1673ffffffffffffffffffffffffffffffffffffffff16815250509050806000015181602001518260400151836060015184608001518560a001518660c001518760e001518861010001518961012001518898508797508595508494509a509a509a509a509a509a509a509a509a509a50509193959799509193959799565b60005481565b600160009054906101000a900473ffffffffffffffffffffffffffffffffffffffff1681565b610140604051908101604052806000815260200160608152602001606081526020016000815260200160608152602001606081526020016000815260200160008152602001600060018111156119af57fe5b8152602001600073ffffffffffffffffffffffffffffffffffffffff1681525090565b828054600181600116156101000203166002900490600052602060002090601f016020900481019282601f10611a1357805160ff1916838001178555611a41565b82800160010185558215611a41579182015b82811115611a40578251825591602001919060010190611a25565b5b509050611a4e9190611a62565b5090565b604051610d1b80611a8883390190565b611a8491905b80821115611a80576000816000905550600101611a68565b5090565b9056006080604052604051608080610d1b83398101806040528101908080519060200190929190805190602001909291908051906020019092919080519060200190929190505050826000806101000a81548173ffffffffffffffffffffffffffffffffffffffff021916908373ffffffffffffffffffffffffffffffffffffffff16021790555081600160006101000a81548173ffffffffffffffffffffffffffffffffffffffff021916908373ffffffffffffffffffffffffffffffffffffffff16021790555080600260006101000a81548173ffffffffffffffffffffffffffffffffffffffff021916908373ffffffffffffffffffffffffffffffffffffffff1602179055506000600960006101000a81548160ff0219169083151502179055503460048190555033600960016101000a81548173ffffffffffffffffffffffffffffffffffffffff021916908373ffffffffffffffffffffffffffffffffffffffff1602179055508360038190555050505050610b98806101836000396000f3006080604052600436106100ba576000357c0100000000000000000000000000000000000000000000000000000000900463ffffffff16806308551a53146100bf5780630bda4dbf1461011657806358aad10b146101415780637150d8ae146101845780638da5cb5b146101db578063a15dc0d814610232578063aa8c217c14610275578063b8d08db2146102a0578063c5ce3911146102cb578063d1a52e30146102f6578063f3d2590414610325578063fe25e00a146103fb575b600080fd5b3480156100cb57600080fd5b506100d4610452565b604051808273ffffffffffffffffffffffffffffffffffffffff1673ffffffffffffffffffffffffffffffffffffffff16815260200191505060405180910390f35b34801561012257600080fd5b5061012b610478565b6040518082815260200191505060405180910390f35b34801561014d57600080fd5b50610182600480360381019080803573ffffffffffffffffffffffffffffffffffffffff16906020019092919050505061047e565b005b34801561019057600080fd5b5061019961075d565b604051808273ffffffffffffffffffffffffffffffffffffffff1673ffffffffffffffffffffffffffffffffffffffff16815260200191505060405180910390f35b3480156101e757600080fd5b506101f0610782565b604051808273ffffffffffffffffffffffffffffffffffffffff1673ffffffffffffffffffffffffffffffffffffffff16815260200191505060405180910390f35b34801561023e57600080fd5b50610273600480360381019080803573ffffffffffffffffffffffffffffffffffffffff1690602001909291905050506107a8565b005b34801561028157600080fd5b5061028a610a86565b6040518082815260200191505060405180910390f35b3480156102ac57600080fd5b506102b5610a8c565b6040518082815260200191505060405180910390f35b3480156102d757600080fd5b506102e0610a92565b6040518082815260200191505060405180910390f35b34801561030257600080fd5b5061030b610a98565b604051808215151515815260200191505060405180910390f35b34801561033157600080fd5b5061033a610aab565b604051808773ffffffffffffffffffffffffffffffffffffffff1673ffffffffffffffffffffffffffffffffffffffff1681526020018673ffffffffffffffffffffffffffffffffffffffff1673ffffffffffffffffffffffffffffffffffffffff1681526020018573ffffffffffffffffffffffffffffffffffffffff1673ffffffffffffffffffffffffffffffffffffffff16815260200184151515158152602001838152602001828152602001965050505050505060405180910390f35b34801561040757600080fd5b50610410610b46565b604051808273ffffffffffffffffffffffffffffffffffffffff1673ffffffffffffffffffffffffffffffffffffffff16815260200191505060405180910390f35b600160009054906101000a900473ffffffffffffffffffffffffffffffffffffffff1681565b60085481565b3373ffffffffffffffffffffffffffffffffffffffff16600960019054906101000a900473ffffffffffffffffffffffffffffffffffffffff1673ffffffffffffffffffffffffffffffffffffffff161415156104da57600080fd5b60001515600960009054906101000a900460ff1615151415156104fc57600080fd5b6000809054906101000a900473ffffffffffffffffffffffffffffffffffffffff1673ffffffffffffffffffffffffffffffffffffffff168173ffffffffffffffffffffffffffffffffffffffff1614806105a45750600160009054906101000a900473ffffffffffffffffffffffffffffffffffffffff1673ffffffffffffffffffffffffffffffffffffffff168173ffffffffffffffffffffffffffffffffffffffff16145b806105fc5750600260009054906101000a900473ffffffffffffffffffffffffffffffffffffffff1673ffffffffffffffffffffffffffffffffffffffff168173ffffffffffffffffffffffffffffffffffffffff16145b8015610659575060011515600560008373ffffffffffffffffffffffffffffffffffffffff1673ffffffffffffffffffffffffffffffffffffffff16815260200190815260200160002060009054906101000a900460ff16151514155b156106c8576001600560008373ffffffffffffffffffffffffffffffffffffffff1673ffffffffffffffffffffffffffffffffffffffff16815260200190815260200160002060006101000a81548160ff02191690831515021790555060016007600082825401925050819055505b6002600754141561075a57600160009054906101000a900473ffffffffffffffffffffffffffffffffffffffff1673ffffffffffffffffffffffffffffffffffffffff166108fc6004549081150290604051600060405180830381858888f1935050505015801561073d573d6000803e3d6000fd5b506001600960006101000a81548160ff0219169083151502179055505b50565b6000809054906101000a900473ffffffffffffffffffffffffffffffffffffffff1681565b600960019054906101000a900473ffffffffffffffffffffffffffffffffffffffff1681565b3373ffffffffffffffffffffffffffffffffffffffff16600960019054906101000a900473ffffffffffffffffffffffffffffffffffffffff1673ffffffffffffffffffffffffffffffffffffffff1614151561080457600080fd5b60001515600960009054906101000a900460ff16151514151561082657600080fd5b6000809054906101000a900473ffffffffffffffffffffffffffffffffffffffff1673ffffffffffffffffffffffffffffffffffffffff168173ffffffffffffffffffffffffffffffffffffffff1614806108ce5750600160009054906101000a900473ffffffffffffffffffffffffffffffffffffffff1673ffffffffffffffffffffffffffffffffffffffff168173ffffffffffffffffffffffffffffffffffffffff16145b806109265750600260009054906101000a900473ffffffffffffffffffffffffffffffffffffffff1673ffffffffffffffffffffffffffffffffffffffff168173ffffffffffffffffffffffffffffffffffffffff16145b8015610983575060011515600660008373ffffffffffffffffffffffffffffffffffffffff1673ffffffffffffffffffffffffffffffffffffffff16815260200190815260200160002060009054906101000a900460ff16151514155b156109f2576001600660008373ffffffffffffffffffffffffffffffffffffffff1673ffffffffffffffffffffffffffffffffffffffff16815260200190815260200160002060006101000a81548160ff02191690831515021790555060016008600082825401925050819055505b60026008541415610a83576000809054906101000a900473ffffffffffffffffffffffffffffffffffffffff1673ffffffffffffffffffffffffffffffffffffffff166108fc6004549081150290604051600060405180830381858888f19350505050158015610a66573d6000803e3d6000fd5b506001600960006101000a81548160ff0219169083151502179055505b50565b60045481565b60075481565b60035481565b600960009054906101000a900460ff1681565b6000806000806000806000809054906101000a900473ffffffffffffffffffffffffffffffffffffffff16600160009054906101000a900473ffffffffffffffffffffffffffffffffffffffff16600260009054906101000a900473ffffffffffffffffffffffffffffffffffffffff16600960009054906101000a900460ff16600754600854955095509550955095509550909192939495565b600260009054906101000a900473ffffffffffffffffffffffffffffffffffffffff16815600a165627a7a7230582062bf73d7b8b878c1925dcb6a1ba3968ec1d5bcc1473191cd5b8e15565188f8a50029a165627a7a72305820b8be1d5bd1575f463b9e89bf5f3f023c14b938b1bc92c1d3b11b108dea9188790029",
  "source": "pragma solidity ^0.4.23;\n\nimport \"contracts/Escrow.sol\";\n\ncontract EcommerceStore {\n\n    enum ProductCondition{New, Used}\n\n    uint public productIndex;\n    address public arbiter;\n\n    // Admin able to add store or add another admin\n    // mapping(address => bool) admins;\n\n    // used for finding easily a store based on a productId\n    mapping(address => mapping(uint => Product)) stores;\n    mapping(uint => address) productIdInStore;\n\n    // hosted store informations\n    mapping(address => StoreDetails) storesDetails;\n\n    // productId mapping the address of the escrow contract\n    mapping(uint => address) productEscrow;\n\n    struct StoreDetails {\n        string name;\n        string category;\n        string imageHashLink;\n        string descriptionHashLink;\n    }\n\n    struct Product {\n        uint id;\n        string name;\n        string category;\n        uint quantity;\n        string imageLink;\n        string descriptionLink;\n        uint startTime;\n        uint256 price;\n        ProductCondition condition;\n        address buyer;\n    }\n\n    event NewProduct(uint _productId, string _name, string _category,  uint _quantity, string _imageLink, string _descriptionLink, uint _startTime, uint256 _price, uint _productCondition);\n\n    constructor(address _arbiter) public {\n        productIndex = 0;\n        arbiter = _arbiter;\n    }\n\n    // function addAdmin()\n    // function removeAdmin()\n\n    // function addStore()\n    // function removeStore()\n    // function updateStore()\n\n    function addProductToStore(string _name, string _category, string _imageLink, string _descriptionLink, uint _startTime, uint256 _price, uint _productCondition)\n    public\n    {\n        productIndex += 1;\n        Product memory product = Product(productIndex, _name, _category, 1, _imageLink, _descriptionLink, _startTime, _price, ProductCondition(_productCondition), 0);\n        stores[msg.sender][productIndex] = product;\n        productIdInStore[productIndex] = msg.sender;\n        emit NewProduct(productIndex, _name, _category, 1, _imageLink, _descriptionLink, _startTime, _price, _productCondition);\n    }\n\n    // function updateProduct()\n    // function removeProductFromStore()\n\n    function getProduct(uint productId)\n    public\n    view\n    returns (uint, string, string, uint, string, string, uint, uint256, ProductCondition, address) // uint\n    {\n      Product memory product = stores[productIdInStore[productId]][productId];\n      return (product.id, product.name, product.category, product.quantity, product.imageLink, product.descriptionLink, product.startTime, product.price, product.condition, product.buyer);\n  }\n\n\n  function buyProduct(uint _productId)\n  payable\n  public\n  {\n    Product memory product = stores[productIdInStore[_productId]][_productId];\n    require(product.buyer == address(0));\n    require(msg.value >= product.price);\n    product.buyer = msg.sender;\n    product.quantity -= 1;\n    stores[productIdInStore[_productId]][_productId] = product;\n    Escrow escrow = (new Escrow).value(msg.value)(_productId, msg.sender, productIdInStore[_productId], arbiter);\n    productEscrow[_productId] = escrow;\n}\n\nfunction escrowInfo(uint _productId)\nview\npublic\nreturns (address, address, address, bool, uint, uint)\n{\n    return Escrow(productEscrow[_productId]).escrowInfo();\n}\n\nfunction releaseAmountToSeller(uint _productId)\npublic\n{\n    return Escrow(productEscrow[_productId]).releaseAmountToSeller(msg.sender);\n}\n\nfunction releaseAmountToBuyer(uint _productId)\npublic {\n\n    return Escrow(productEscrow[_productId]).releaseAmountToBuyer(msg.sender);\n}\n}\n\n",
  "sourcePath": "/home/jonathan/Bureau/Ethereum/consensys-project/contracts/EcommerceStore.sol",
  "compiler": {
    "name": "solc",
    "version": "0.4.24+commit.e67f0147.Emscripten.clang"
  },
  "schemaVersion": "2.0.1",
  "updatedAt": "2018-08-17T18:13:27.722Z"
}