{
  "contractName": "EcommerceStore",
  "abi": [
    {
      "constant": true,
      "inputs": [],
      "name": "orderIndex",
      "outputs": [
        {
          "name": "",
          "type": "uint256"
        }
      ],
      "payable": false,
      "stateMutability": "view",
      "type": "function"
    },
    {
      "constant": true,
      "inputs": [
        {
          "name": "",
          "type": "address"
        }
      ],
      "name": "admins",
      "outputs": [
        {
          "name": "",
          "type": "bool"
        }
      ],
      "payable": false,
      "stateMutability": "view",
      "type": "function"
    },
    {
      "constant": true,
      "inputs": [
        {
          "name": "",
          "type": "address"
        }
      ],
      "name": "stores",
      "outputs": [
        {
          "name": "id",
          "type": "uint256"
        },
        {
          "name": "name",
          "type": "string"
        },
        {
          "name": "category",
          "type": "string"
        },
        {
          "name": "imageLink",
          "type": "string"
        },
        {
          "name": "descriptionLink",
          "type": "string"
        }
      ],
      "payable": false,
      "stateMutability": "view",
      "type": "function"
    },
    {
      "constant": true,
      "inputs": [
        {
          "name": "",
          "type": "address"
        },
        {
          "name": "",
          "type": "uint256"
        }
      ],
      "name": "orders",
      "outputs": [
        {
          "name": "id",
          "type": "uint256"
        },
        {
          "name": "productId",
          "type": "uint256"
        },
        {
          "name": "quantity",
          "type": "uint256"
        },
        {
          "name": "orderAddress",
          "type": "string"
        },
        {
          "name": "status",
          "type": "uint8"
        }
      ],
      "payable": false,
      "stateMutability": "view",
      "type": "function"
    },
    {
      "constant": true,
      "inputs": [
        {
          "name": "",
          "type": "uint256"
        }
      ],
      "name": "orderIdForBuyer",
      "outputs": [
        {
          "name": "",
          "type": "address"
        }
      ],
      "payable": false,
      "stateMutability": "view",
      "type": "function"
    },
    {
      "constant": true,
      "inputs": [],
      "name": "storeIndex",
      "outputs": [
        {
          "name": "",
          "type": "uint256"
        }
      ],
      "payable": false,
      "stateMutability": "view",
      "type": "function"
    },
    {
      "constant": true,
      "inputs": [
        {
          "name": "",
          "type": "uint256"
        }
      ],
      "name": "productIdInStore",
      "outputs": [
        {
          "name": "",
          "type": "address"
        }
      ],
      "payable": false,
      "stateMutability": "view",
      "type": "function"
    },
    {
      "constant": true,
      "inputs": [
        {
          "name": "",
          "type": "address"
        }
      ],
      "name": "approvedStores",
      "outputs": [
        {
          "name": "",
          "type": "bool"
        }
      ],
      "payable": false,
      "stateMutability": "view",
      "type": "function"
    },
    {
      "constant": true,
      "inputs": [],
      "name": "productIndex",
      "outputs": [
        {
          "name": "",
          "type": "uint256"
        }
      ],
      "payable": false,
      "stateMutability": "view",
      "type": "function"
    },
    {
      "constant": true,
      "inputs": [
        {
          "name": "",
          "type": "uint256"
        }
      ],
      "name": "productEscrow",
      "outputs": [
        {
          "name": "",
          "type": "address"
        }
      ],
      "payable": false,
      "stateMutability": "view",
      "type": "function"
    },
    {
      "constant": true,
      "inputs": [
        {
          "name": "",
          "type": "address"
        },
        {
          "name": "",
          "type": "uint256"
        }
      ],
      "name": "products",
      "outputs": [
        {
          "name": "id",
          "type": "uint256"
        },
        {
          "name": "name",
          "type": "string"
        },
        {
          "name": "category",
          "type": "string"
        },
        {
          "name": "quantity",
          "type": "uint256"
        },
        {
          "name": "imageLink",
          "type": "string"
        },
        {
          "name": "descriptionLink",
          "type": "string"
        },
        {
          "name": "price",
          "type": "uint256"
        }
      ],
      "payable": false,
      "stateMutability": "view",
      "type": "function"
    },
    {
      "constant": true,
      "inputs": [],
      "name": "arbiter",
      "outputs": [
        {
          "name": "",
          "type": "address"
        }
      ],
      "payable": false,
      "stateMutability": "view",
      "type": "function"
    },
    {
      "inputs": [
        {
          "name": "_arbiter",
          "type": "address"
        }
      ],
      "payable": false,
      "stateMutability": "nonpayable",
      "type": "constructor"
    },
    {
      "anonymous": false,
      "inputs": [
        {
          "indexed": false,
          "name": "_address",
          "type": "address"
        }
      ],
      "name": "NewAdmin",
      "type": "event"
    },
    {
      "anonymous": false,
      "inputs": [
        {
          "indexed": false,
          "name": "_address",
          "type": "address"
        }
      ],
      "name": "AdminDeleted",
      "type": "event"
    },
    {
      "anonymous": false,
      "inputs": [
        {
          "indexed": false,
          "name": "_id",
          "type": "uint256"
        },
        {
          "indexed": false,
          "name": "_address",
          "type": "address"
        },
        {
          "indexed": false,
          "name": "_name",
          "type": "string"
        },
        {
          "indexed": false,
          "name": "_category",
          "type": "string"
        },
        {
          "indexed": false,
          "name": "_imageLink",
          "type": "string"
        },
        {
          "indexed": false,
          "name": "_descriptionLink",
          "type": "string"
        }
      ],
      "name": "NewStore",
      "type": "event"
    },
    {
      "anonymous": false,
      "inputs": [
        {
          "indexed": false,
          "name": "_id",
          "type": "uint256"
        },
        {
          "indexed": false,
          "name": "_address",
          "type": "address"
        },
        {
          "indexed": false,
          "name": "_name",
          "type": "string"
        },
        {
          "indexed": false,
          "name": "_category",
          "type": "string"
        },
        {
          "indexed": false,
          "name": "_imageLink",
          "type": "string"
        },
        {
          "indexed": false,
          "name": "_descriptionLink",
          "type": "string"
        }
      ],
      "name": "StoreUpdated",
      "type": "event"
    },
    {
      "anonymous": false,
      "inputs": [
        {
          "indexed": false,
          "name": "_address",
          "type": "address"
        },
        {
          "indexed": false,
          "name": "_id",
          "type": "uint256"
        }
      ],
      "name": "StoreRemoved",
      "type": "event"
    },
    {
      "anonymous": false,
      "inputs": [
        {
          "indexed": false,
          "name": "_address",
          "type": "address"
        }
      ],
      "name": "StoreApproved",
      "type": "event"
    },
    {
      "anonymous": false,
      "inputs": [
        {
          "indexed": false,
          "name": "_storeAddress",
          "type": "address"
        },
        {
          "indexed": false,
          "name": "_storeId",
          "type": "uint256"
        },
        {
          "indexed": false,
          "name": "_id",
          "type": "uint256"
        },
        {
          "indexed": false,
          "name": "_name",
          "type": "string"
        },
        {
          "indexed": false,
          "name": "_category",
          "type": "string"
        },
        {
          "indexed": false,
          "name": "_quantity",
          "type": "uint256"
        },
        {
          "indexed": false,
          "name": "_imageLink",
          "type": "string"
        },
        {
          "indexed": false,
          "name": "_descriptionLink",
          "type": "string"
        },
        {
          "indexed": false,
          "name": "_price",
          "type": "uint256"
        }
      ],
      "name": "NewProduct",
      "type": "event"
    },
    {
      "anonymous": false,
      "inputs": [
        {
          "indexed": false,
          "name": "_id",
          "type": "uint256"
        },
        {
          "indexed": false,
          "name": "_name",
          "type": "string"
        },
        {
          "indexed": false,
          "name": "_category",
          "type": "string"
        },
        {
          "indexed": false,
          "name": "_quantity",
          "type": "uint256"
        },
        {
          "indexed": false,
          "name": "_imageLink",
          "type": "string"
        },
        {
          "indexed": false,
          "name": "_descriptionLink",
          "type": "string"
        },
        {
          "indexed": false,
          "name": "_price",
          "type": "uint256"
        }
      ],
      "name": "ProductUpdated",
      "type": "event"
    },
    {
      "anonymous": false,
      "inputs": [
        {
          "indexed": false,
          "name": "_id",
          "type": "uint256"
        }
      ],
      "name": "ProductRemoved",
      "type": "event"
    },
    {
      "anonymous": false,
      "inputs": [
        {
          "indexed": false,
          "name": "_buyer",
          "type": "address"
        },
        {
          "indexed": false,
          "name": "_seller",
          "type": "address"
        },
        {
          "indexed": false,
          "name": "_id",
          "type": "uint256"
        },
        {
          "indexed": false,
          "name": "_productId",
          "type": "uint256"
        },
        {
          "indexed": false,
          "name": "_quantity",
          "type": "uint256"
        },
        {
          "indexed": false,
          "name": "_orderAddress",
          "type": "string"
        },
        {
          "indexed": false,
          "name": "_arbiter",
          "type": "address"
        }
      ],
      "name": "NewOrder",
      "type": "event"
    },
    {
      "anonymous": false,
      "inputs": [
        {
          "indexed": false,
          "name": "_caller",
          "type": "address"
        },
        {
          "indexed": false,
          "name": "_orderId",
          "type": "uint256"
        },
        {
          "indexed": false,
          "name": "_fundDisbursed",
          "type": "bool"
        }
      ],
      "name": "FundReleaseToSeller",
      "type": "event"
    },
    {
      "anonymous": false,
      "inputs": [
        {
          "indexed": false,
          "name": "_caller",
          "type": "address"
        },
        {
          "indexed": false,
          "name": "_orderId",
          "type": "uint256"
        },
        {
          "indexed": false,
          "name": "_fundDisbursed",
          "type": "bool"
        }
      ],
      "name": "FundReleaseToBuyer",
      "type": "event"
    },
    {
      "constant": false,
      "inputs": [
        {
          "name": "_address",
          "type": "address"
        }
      ],
      "name": "addAdmin",
      "outputs": [],
      "payable": false,
      "stateMutability": "nonpayable",
      "type": "function"
    },
    {
      "constant": false,
      "inputs": [
        {
          "name": "_address",
          "type": "address"
        }
      ],
      "name": "removeAdmin",
      "outputs": [],
      "payable": false,
      "stateMutability": "nonpayable",
      "type": "function"
    },
    {
      "constant": false,
      "inputs": [
        {
          "name": "_name",
          "type": "string"
        },
        {
          "name": "_category",
          "type": "string"
        },
        {
          "name": "_imageLink",
          "type": "string"
        },
        {
          "name": "_descriptionLink",
          "type": "string"
        }
      ],
      "name": "addStore",
      "outputs": [],
      "payable": false,
      "stateMutability": "nonpayable",
      "type": "function"
    },
    {
      "constant": false,
      "inputs": [
        {
          "name": "_address",
          "type": "address"
        }
      ],
      "name": "removeStore",
      "outputs": [],
      "payable": false,
      "stateMutability": "nonpayable",
      "type": "function"
    },
    {
      "constant": false,
      "inputs": [
        {
          "name": "_name",
          "type": "string"
        },
        {
          "name": "_category",
          "type": "string"
        },
        {
          "name": "_imageLink",
          "type": "string"
        },
        {
          "name": "_descriptionLink",
          "type": "string"
        }
      ],
      "name": "updateStore",
      "outputs": [],
      "payable": false,
      "stateMutability": "nonpayable",
      "type": "function"
    },
    {
      "constant": false,
      "inputs": [
        {
          "name": "_address",
          "type": "address"
        }
      ],
      "name": "approveStore",
      "outputs": [],
      "payable": false,
      "stateMutability": "nonpayable",
      "type": "function"
    },
    {
      "constant": false,
      "inputs": [
        {
          "name": "_name",
          "type": "string"
        },
        {
          "name": "_category",
          "type": "string"
        },
        {
          "name": "_quantity",
          "type": "uint256"
        },
        {
          "name": "_imageLink",
          "type": "string"
        },
        {
          "name": "_descriptionLink",
          "type": "string"
        },
        {
          "name": "_price",
          "type": "uint256"
        }
      ],
      "name": "addProduct",
      "outputs": [],
      "payable": false,
      "stateMutability": "nonpayable",
      "type": "function"
    },
    {
      "constant": false,
      "inputs": [
        {
          "name": "_productId",
          "type": "uint256"
        },
        {
          "name": "_name",
          "type": "string"
        },
        {
          "name": "_category",
          "type": "string"
        },
        {
          "name": "_quantity",
          "type": "uint256"
        },
        {
          "name": "_imageLink",
          "type": "string"
        },
        {
          "name": "_descriptionLink",
          "type": "string"
        },
        {
          "name": "_price",
          "type": "uint256"
        }
      ],
      "name": "updateProduct",
      "outputs": [],
      "payable": false,
      "stateMutability": "nonpayable",
      "type": "function"
    },
    {
      "constant": false,
      "inputs": [
        {
          "name": "_productId",
          "type": "uint256"
        }
      ],
      "name": "removeProduct",
      "outputs": [],
      "payable": false,
      "stateMutability": "nonpayable",
      "type": "function"
    },
    {
      "constant": false,
      "inputs": [
        {
          "name": "_productId",
          "type": "uint256"
        },
        {
          "name": "_quantity",
          "type": "uint256"
        },
        {
          "name": "_orderAddress",
          "type": "string"
        }
      ],
      "name": "newOrder",
      "outputs": [],
      "payable": true,
      "stateMutability": "payable",
      "type": "function"
    },
    {
      "constant": true,
      "inputs": [
        {
          "name": "_orderId",
          "type": "uint256"
        }
      ],
      "name": "escrowInfo",
      "outputs": [
        {
          "name": "",
          "type": "address"
        },
        {
          "name": "",
          "type": "address"
        },
        {
          "name": "",
          "type": "address"
        },
        {
          "name": "",
          "type": "bool"
        },
        {
          "name": "",
          "type": "uint256"
        },
        {
          "name": "",
          "type": "uint256"
        }
      ],
      "payable": false,
      "stateMutability": "view",
      "type": "function"
    },
    {
      "constant": false,
      "inputs": [
        {
          "name": "_orderId",
          "type": "uint256"
        }
      ],
      "name": "releaseAmountToSeller",
      "outputs": [],
      "payable": false,
      "stateMutability": "nonpayable",
      "type": "function"
    },
    {
      "constant": false,
      "inputs": [
        {
          "name": "_orderId",
          "type": "uint256"
        }
      ],
      "name": "releaseAmountToBuyer",
      "outputs": [],
      "payable": false,
      "stateMutability": "nonpayable",
      "type": "function"
    }
  ],
  "bytecode": "0x608060405234801561001057600080fd5b50604051602080614fab833981018060405281019080805190602001909291905050506001600460003373ffffffffffffffffffffffffffffffffffffffff1673ffffffffffffffffffffffffffffffffffffffff16815260200190815260200160002060006101000a81548160ff0219169083151502179055507f71614071b88dee5e0b2ae578a9dd7b2ebbe9ae832ba419dc0242cd065a290b6c33604051808273ffffffffffffffffffffffffffffffffffffffff1673ffffffffffffffffffffffffffffffffffffffff16815260200191505060405180910390a1600180819055506001600081905550600160028190555080600360006101000a81548173ffffffffffffffffffffffffffffffffffffffff021916908373ffffffffffffffffffffffffffffffffffffffff16021790555050614e55806101566000396000f300608060405260043610610149576000357c0100000000000000000000000000000000000000000000000000000000900463ffffffff1680630202ae281461014e5780631785f53c146101be578063247ee9971461020157806330471fee1461035a57806331157c1514610385578063429b62e5146103c85780635ee95cae14610423578063621df534146104505780637048027514610657578063793b8c6d1461069a578063835605251461078a5780638dbe1a171461087657806391908a2e146108b95780639a3a7c69146109f4578063a261215814610a21578063a8939abd14610b5c578063b21539bd14610b89578063baa66e6414610bf6578063c0bc03c814610c21578063c18e6e5e14610c8e578063c897d5a614610ce9578063dd6cb58114610d14578063debe417314610e63578063fc64094914610ed0578063fe25e00a146110ef575b600080fd5b6101bc6004803603810190808035906020019092919080359060200190929190803590602001908201803590602001908080601f0160208091040260200160405190810160405280939291908181526020018383808284378201915050505050509192919290505050611146565b005b3480156101ca57600080fd5b506101ff600480360381019080803573ffffffffffffffffffffffffffffffffffffffff169060200190929190505050611816565b005b34801561020d57600080fd5b5061035860048036038101908080359060200190929190803590602001908201803590602001908080601f0160208091040260200160405190810160405280939291908181526020018383808284378201915050505050509192919290803590602001908201803590602001908080601f016020809104026020016040519081016040528093929190818152602001838380828437820191505050505050919291929080359060200190929190803590602001908201803590602001908080601f0160208091040260200160405190810160405280939291908181526020018383808284378201915050505050509192919290803590602001908201803590602001908080601f01602080910402602001604051908101604052809392919081815260200183838082843782019150505050505091929192908035906020019092919050505061198b565b005b34801561036657600080fd5b5061036f611d94565b6040518082815260200191505060405180910390f35b34801561039157600080fd5b506103c6600480360381019080803573ffffffffffffffffffffffffffffffffffffffff169060200190929190505050611d9a565b005b3480156103d457600080fd5b50610409600480360381019080803573ffffffffffffffffffffffffffffffffffffffff169060200190929190505050611eb7565b604051808215151515815260200191505060405180910390f35b34801561042f57600080fd5b5061044e60048036038101908080359060200190929190505050611ed7565b005b34801561045c57600080fd5b50610491600480360381019080803573ffffffffffffffffffffffffffffffffffffffff1690602001909291905050506120d4565b6040518086815260200180602001806020018060200180602001858103855289818151815260200191508051906020019080838360005b838110156104e35780820151818401526020810190506104c8565b50505050905090810190601f1680156105105780820380516001836020036101000a031916815260200191505b50858103845288818151815260200191508051906020019080838360005b8381101561054957808201518184015260208101905061052e565b50505050905090810190601f1680156105765780820380516001836020036101000a031916815260200191505b50858103835287818151815260200191508051906020019080838360005b838110156105af578082015181840152602081019050610594565b50505050905090810190601f1680156105dc5780820380516001836020036101000a031916815260200191505b50858103825286818151815260200191508051906020019080838360005b838110156106155780820151818401526020810190506105fa565b50505050905090810190601f1680156106425780820380516001836020036101000a031916815260200191505b50995050505050505050505060405180910390f35b34801561066357600080fd5b50610698600480360381019080803573ffffffffffffffffffffffffffffffffffffffff16906020019092919050505061236a565b005b3480156106a657600080fd5b506106e5600480360381019080803573ffffffffffffffffffffffffffffffffffffffff16906020019092919080359060200190929190505050612487565b604051808681526020018581526020018481526020018060200183600181111561070b57fe5b60ff168152602001828103825284818151815260200191508051906020019080838360005b8381101561074b578082015181840152602081019050610730565b50505050905090810190601f1680156107785780820380516001836020036101000a031916815260200191505b50965050505050505060405180910390f35b34801561079657600080fd5b506107b56004803603810190808035906020019092919050505061256f565b604051808773ffffffffffffffffffffffffffffffffffffffff1673ffffffffffffffffffffffffffffffffffffffff1681526020018673ffffffffffffffffffffffffffffffffffffffff1673ffffffffffffffffffffffffffffffffffffffff1681526020018573ffffffffffffffffffffffffffffffffffffffff1673ffffffffffffffffffffffffffffffffffffffff16815260200184151515158152602001838152602001828152602001965050505050505060405180910390f35b34801561088257600080fd5b506108b7600480360381019080803573ffffffffffffffffffffffffffffffffffffffff169060200190929190505050612691565b005b3480156108c557600080fd5b506109f2600480360381019080803590602001908201803590602001908080601f0160208091040260200160405190810160405280939291908181526020018383808284378201915050505050509192919290803590602001908201803590602001908080601f0160208091040260200160405190810160405280939291908181526020018383808284378201915050505050509192919290803590602001908201803590602001908080601f0160208091040260200160405190810160405280939291908181526020018383808284378201915050505050509192919290803590602001908201803590602001908080601f0160208091040260200160405190810160405280939291908181526020018383808284378201915050505050509192919290505050612b57565b005b348015610a0057600080fd5b50610a1f60048036038101908080359060200190929190505050612ed5565b005b348015610a2d57600080fd5b50610b5a600480360381019080803590602001908201803590602001908080601f0160208091040260200160405190810160405280939291908181526020018383808284378201915050505050509192919290803590602001908201803590602001908080601f0160208091040260200160405190810160405280939291908181526020018383808284378201915050505050509192919290803590602001908201803590602001908080601f0160208091040260200160405190810160405280939291908181526020018383808284378201915050505050509192919290803590602001908201803590602001908080601f016020809104026020016040519081016040528093929190818152602001838380828437820191505050505050919291929050505061305d565b005b348015610b6857600080fd5b50610b876004803603810190808035906020019092919050505061340f565b005b348015610b9557600080fd5b50610bb460048036038101908080359060200190929190505050613597565b604051808273ffffffffffffffffffffffffffffffffffffffff1673ffffffffffffffffffffffffffffffffffffffff16815260200191505060405180910390f35b348015610c0257600080fd5b50610c0b6135ca565b6040518082815260200191505060405180910390f35b348015610c2d57600080fd5b50610c4c600480360381019080803590602001909291905050506135d0565b604051808273ffffffffffffffffffffffffffffffffffffffff1673ffffffffffffffffffffffffffffffffffffffff16815260200191505060405180910390f35b348015610c9a57600080fd5b50610ccf600480360381019080803573ffffffffffffffffffffffffffffffffffffffff169060200190929190505050613603565b604051808215151515815260200191505060405180910390f35b348015610cf557600080fd5b50610cfe613623565b6040518082815260200191505060405180910390f35b348015610d2057600080fd5b50610e61600480360381019080803590602001908201803590602001908080601f0160208091040260200160405190810160405280939291908181526020018383808284378201915050505050509192919290803590602001908201803590602001908080601f016020809104026020016040519081016040528093929190818152602001838380828437820191505050505050919291929080359060200190929190803590602001908201803590602001908080601f0160208091040260200160405190810160405280939291908181526020018383808284378201915050505050509192919290803590602001908201803590602001908080601f016020809104026020016040519081016040528093929190818152602001838380828437820191505050505050919291929080359060200190929190505050613629565b005b348015610e6f57600080fd5b50610e8e60048036038101908080359060200190929190505050613a98565b604051808273ffffffffffffffffffffffffffffffffffffffff1673ffffffffffffffffffffffffffffffffffffffff16815260200191505060405180910390f35b348015610edc57600080fd5b50610f1b600480360381019080803573ffffffffffffffffffffffffffffffffffffffff16906020019092919080359060200190929190505050613acb565b604051808881526020018060200180602001878152602001806020018060200186815260200185810385528b818151815260200191508051906020019080838360005b83811015610f79578082015181840152602081019050610f5e565b50505050905090810190601f168015610fa65780820380516001836020036101000a031916815260200191505b5085810384528a818151815260200191508051906020019080838360005b83811015610fdf578082015181840152602081019050610fc4565b50505050905090810190601f16801561100c5780820380516001836020036101000a031916815260200191505b50858103835288818151815260200191508051906020019080838360005b8381101561104557808201518184015260208101905061102a565b50505050905090810190601f1680156110725780820380516001836020036101000a031916815260200191505b50858103825287818151815260200191508051906020019080838360005b838110156110ab578082015181840152602081019050611090565b50505050905090810190601f1680156110d85780820380516001836020036101000a031916815260200191505b509b50505050505050505050505060405180910390f35b3480156110fb57600080fd5b50611104613d7a565b604051808273ffffffffffffffffffffffffffffffffffffffff1673ffffffffffffffffffffffffffffffffffffffff16815260200191505060405180910390f35b61114e613f0c565b600084600073ffffffffffffffffffffffffffffffffffffffff166008600083815260200190815260200160002060009054906101000a900473ffffffffffffffffffffffffffffffffffffffff1673ffffffffffffffffffffffffffffffffffffffff16141515156111c057600080fd5b858580600760006008600086815260200190815260200160002060009054906101000a900473ffffffffffffffffffffffffffffffffffffffff1673ffffffffffffffffffffffffffffffffffffffff1673ffffffffffffffffffffffffffffffffffffffff16815260200190815260200160002060008481526020019081526020016000206003015410158015611259575060008114155b151561126457600080fd5b878780600760006008600086815260200190815260200160002060009054906101000a900473ffffffffffffffffffffffffffffffffffffffff1673ffffffffffffffffffffffffffffffffffffffff1673ffffffffffffffffffffffffffffffffffffffff1681526020019081526020016000206000848152602001908152602001600020600301540234101515156112fd57600080fd5b60a06040519081016040528060025481526020018b81526020018a81526020018981526020016000600181111561133057fe5b815250965086600960003373ffffffffffffffffffffffffffffffffffffffff1673ffffffffffffffffffffffffffffffffffffffff1681526020019081526020016000206000600254815260200190815260200160002060008201518160000155602082015181600101556040820151816002015560608201518160030190805190602001906113c2929190613f47565b5060808201518160040160006101000a81548160ff021916908360018111156113e757fe5b021790555090505033600a6000600254815260200190815260200160002060006101000a81548173ffffffffffffffffffffffffffffffffffffffff021916908373ffffffffffffffffffffffffffffffffffffffff1602179055508860076000600860008e815260200190815260200160002060009054906101000a900473ffffffffffffffffffffffffffffffffffffffff1673ffffffffffffffffffffffffffffffffffffffff1673ffffffffffffffffffffffffffffffffffffffff16815260200190815260200160002060008c8152602001908152602001600020600301600082825403925050819055503460025433600860008e815260200190815260200160002060009054906101000a900473ffffffffffffffffffffffffffffffffffffffff16600360009054906101000a900473ffffffffffffffffffffffffffffffffffffffff1661153b613fc7565b808581526020018473ffffffffffffffffffffffffffffffffffffffff1673ffffffffffffffffffffffffffffffffffffffff1681526020018373ffffffffffffffffffffffffffffffffffffffff1673ffffffffffffffffffffffffffffffffffffffff1681526020018273ffffffffffffffffffffffffffffffffffffffff1673ffffffffffffffffffffffffffffffffffffffff1681526020019450505050506040518091039082f0801580156115f9573d6000803e3d6000fd5b509050955085600b6000600254815260200190815260200160002060006101000a81548173ffffffffffffffffffffffffffffffffffffffff021916908373ffffffffffffffffffffffffffffffffffffffff1602179055507fd385d4bd32d34c5643fd95688c9bf7da12aad2345e277f2b4f8aaee2f0eb499433600860008d815260200190815260200160002060009054906101000a900473ffffffffffffffffffffffffffffffffffffffff166002548d8d8d600360009054906101000a900473ffffffffffffffffffffffffffffffffffffffff16604051808873ffffffffffffffffffffffffffffffffffffffff1673ffffffffffffffffffffffffffffffffffffffff1681526020018773ffffffffffffffffffffffffffffffffffffffff1673ffffffffffffffffffffffffffffffffffffffff168152602001868152602001858152602001848152602001806020018373ffffffffffffffffffffffffffffffffffffffff1673ffffffffffffffffffffffffffffffffffffffff168152602001828103825284818151815260200191508051906020019080838360005b838110156117b957808201518184015260208101905061179e565b50505050905090810190601f1680156117e65780820380516001836020036101000a031916815260200191505b509850505050505050505060405180910390a1600160026000828254019250508190555050505050505050505050565b60011515600460003373ffffffffffffffffffffffffffffffffffffffff1673ffffffffffffffffffffffffffffffffffffffff16815260200190815260200160002060009054906101000a900460ff16151514151561187557600080fd5b600460008273ffffffffffffffffffffffffffffffffffffffff1673ffffffffffffffffffffffffffffffffffffffff16815260200190815260200160002060009054906101000a900460ff1615156118cd57600080fd5b6000600460008373ffffffffffffffffffffffffffffffffffffffff1673ffffffffffffffffffffffffffffffffffffffff16815260200190815260200160002060006101000a81548160ff0219169083151502179055507f989ddfce057dad219e0ae16f691b121bb0e348f0d8ae0ad400b4d5ac8d616c8b81604051808273ffffffffffffffffffffffffffffffffffffffff1673ffffffffffffffffffffffffffffffffffffffff16815260200191505060405180910390a150565b611993613fd7565b876008600082815260200190815260200160002060009054906101000a900473ffffffffffffffffffffffffffffffffffffffff1673ffffffffffffffffffffffffffffffffffffffff163373ffffffffffffffffffffffffffffffffffffffff16141515611a0157600080fd5b88600073ffffffffffffffffffffffffffffffffffffffff166008600083815260200190815260200160002060009054906101000a900473ffffffffffffffffffffffffffffffffffffffff1673ffffffffffffffffffffffffffffffffffffffff1614151515611a7157600080fd5b60e0604051908101604052808b81526020018a815260200189815260200188815260200187815260200186815260200185815250925082600760003373ffffffffffffffffffffffffffffffffffffffff1673ffffffffffffffffffffffffffffffffffffffff16815260200190815260200160002060008c8152602001908152602001600020600082015181600001556020820151816001019080519060200190611b1e929190613f47565b506040820151816002019080519060200190611b3b929190613f47565b50606082015181600301556080820151816004019080519060200190611b62929190613f47565b5060a0820151816005019080519060200190611b7f929190613f47565b5060c082015181600601559050507f450982f9f72538461271dbc5c3bc2966100030c65cfd233a0382dc8121bc12198a8a8a8a8a8a8a604051808881526020018060200180602001878152602001806020018060200186815260200185810385528b818151815260200191508051906020019080838360005b83811015611c13578082015181840152602081019050611bf8565b50505050905090810190601f168015611c405780820380516001836020036101000a031916815260200191505b5085810384528a818151815260200191508051906020019080838360005b83811015611c79578082015181840152602081019050611c5e565b50505050905090810190601f168015611ca65780820380516001836020036101000a031916815260200191505b50858103835288818151815260200191508051906020019080838360005b83811015611cdf578082015181840152602081019050611cc4565b50505050905090810190601f168015611d0c5780820380516001836020036101000a031916815260200191505b50858103825287818151815260200191508051906020019080838360005b83811015611d45578082015181840152602081019050611d2a565b50505050905090810190601f168015611d725780820380516001836020036101000a031916815260200191505b509b50505050505050505050505060405180910390a150505050505050505050565b60025481565b60011515600460003373ffffffffffffffffffffffffffffffffffffffff1673ffffffffffffffffffffffffffffffffffffffff16815260200190815260200160002060009054906101000a900460ff161515141515611df957600080fd5b6001600660008373ffffffffffffffffffffffffffffffffffffffff1673ffffffffffffffffffffffffffffffffffffffff16815260200190815260200160002060006101000a81548160ff0219169083151502179055507f64f6ecbb7c389b2c41ec88fcdb57966c6dc74466fafbd0381c4e27f331ceac2a81604051808273ffffffffffffffffffffffffffffffffffffffff1673ffffffffffffffffffffffffffffffffffffffff16815260200191505060405180910390a150565b60046020528060005260406000206000915054906101000a900460ff1681565b806008600082815260200190815260200160002060009054906101000a900473ffffffffffffffffffffffffffffffffffffffff1673ffffffffffffffffffffffffffffffffffffffff163373ffffffffffffffffffffffffffffffffffffffff16141515611f4557600080fd5b81600073ffffffffffffffffffffffffffffffffffffffff166008600083815260200190815260200160002060009054906101000a900473ffffffffffffffffffffffffffffffffffffffff1673ffffffffffffffffffffffffffffffffffffffff1614151515611fb557600080fd5b600760003373ffffffffffffffffffffffffffffffffffffffff1673ffffffffffffffffffffffffffffffffffffffff168152602001908152602001600020600084815260200190815260200160002060008082016000905560018201600061201e9190614015565b60028201600061202e9190614015565b60038201600090556004820160006120469190614015565b6005820160006120569190614015565b6006820160009055505060086000600154815260200190815260200160002060006101000a81549073ffffffffffffffffffffffffffffffffffffffff02191690557f07015631cff457b5b13492c2045e70c6305a0a4aa773e432e79abbe2cf52c1eb836040518082815260200191505060405180910390a1505050565b6005602052806000526040600020600091509050806000015490806001018054600181600116156101000203166002900480601f0160208091040260200160405190810160405280929190818152602001828054600181600116156101000203166002900480156121865780601f1061215b57610100808354040283529160200191612186565b820191906000526020600020905b81548152906001019060200180831161216957829003601f168201915b505050505090806002018054600181600116156101000203166002900480601f0160208091040260200160405190810160405280929190818152602001828054600181600116156101000203166002900480156122245780601f106121f957610100808354040283529160200191612224565b820191906000526020600020905b81548152906001019060200180831161220757829003601f168201915b505050505090806003018054600181600116156101000203166002900480601f0160208091040260200160405190810160405280929190818152602001828054600181600116156101000203166002900480156122c25780601f10612297576101008083540402835291602001916122c2565b820191906000526020600020905b8154815290600101906020018083116122a557829003601f168201915b505050505090806004018054600181600116156101000203166002900480601f0160208091040260200160405190810160405280929190818152602001828054600181600116156101000203166002900480156123605780601f1061233557610100808354040283529160200191612360565b820191906000526020600020905b81548152906001019060200180831161234357829003601f168201915b5050505050905085565b60011515600460003373ffffffffffffffffffffffffffffffffffffffff1673ffffffffffffffffffffffffffffffffffffffff16815260200190815260200160002060009054906101000a900460ff1615151415156123c957600080fd5b6001600460008373ffffffffffffffffffffffffffffffffffffffff1673ffffffffffffffffffffffffffffffffffffffff16815260200190815260200160002060006101000a81548160ff0219169083151502179055507f71614071b88dee5e0b2ae578a9dd7b2ebbe9ae832ba419dc0242cd065a290b6c81604051808273ffffffffffffffffffffffffffffffffffffffff1673ffffffffffffffffffffffffffffffffffffffff16815260200191505060405180910390a150565b600960205281600052604060002060205280600052604060002060009150915050806000015490806001015490806002015490806003018054600181600116156101000203166002900480601f0160208091040260200160405190810160405280929190818152602001828054600181600116156101000203166002900480156125525780601f1061252757610100808354040283529160200191612552565b820191906000526020600020905b81548152906001019060200180831161253557829003601f168201915b5050505050908060040160009054906101000a900460ff16905085565b600080600080600080600b600088815260200190815260200160002060009054906101000a900473ffffffffffffffffffffffffffffffffffffffff1673ffffffffffffffffffffffffffffffffffffffff1663f3d259046040518163ffffffff167c010000000000000000000000000000000000000000000000000000000002815260040160c060405180830381600087803b15801561260f57600080fd5b505af1158015612623573d6000803e3d6000fd5b505050506040513d60c081101561263957600080fd5b8101908080519060200190929190805190602001909291908051906020019092919080519060200190929190805190602001909291908051906020019092919050505095509550955095509550955091939550919395565b60008060011515600460003373ffffffffffffffffffffffffffffffffffffffff1673ffffffffffffffffffffffffffffffffffffffff16815260200190815260200160002060009054906101000a900460ff161515148061273557506000600560003373ffffffffffffffffffffffffffffffffffffffff1673ffffffffffffffffffffffffffffffffffffffff16815260200190815260200160002060000154115b151561274057600080fd5b600460003373ffffffffffffffffffffffffffffffffffffffff1673ffffffffffffffffffffffffffffffffffffffff16815260200190815260200160002060009054906101000a900460ff161561296957600660008473ffffffffffffffffffffffffffffffffffffffff1673ffffffffffffffffffffffffffffffffffffffff16815260200190815260200160002060009054906101000a900460ff161561283d57600660008473ffffffffffffffffffffffffffffffffffffffff1673ffffffffffffffffffffffffffffffffffffffff16815260200190815260200160002060006101000a81549060ff021916905561283c83613da0565b5b8291506000600560008573ffffffffffffffffffffffffffffffffffffffff1673ffffffffffffffffffffffffffffffffffffffff1681526020019081526020016000206000015411156128d557600560008473ffffffffffffffffffffffffffffffffffffffff1673ffffffffffffffffffffffffffffffffffffffff1681526020019081526020016000206000015490506128da565b600090505b600560008473ffffffffffffffffffffffffffffffffffffffff1673ffffffffffffffffffffffffffffffffffffffff1681526020019081526020016000206000808201600090556001820160006129329190614015565b6002820160006129429190614015565b6003820160006129529190614015565b6004820160006129629190614015565b5050612ae7565b600660003373ffffffffffffffffffffffffffffffffffffffff1673ffffffffffffffffffffffffffffffffffffffff16815260200190815260200160002060009054906101000a900460ff1615612ae657600660003373ffffffffffffffffffffffffffffffffffffffff1673ffffffffffffffffffffffffffffffffffffffff16815260200190815260200160002060006101000a81549060ff0219169055612a1333613da0565b339150600560003373ffffffffffffffffffffffffffffffffffffffff1673ffffffffffffffffffffffffffffffffffffffff168152602001908152602001600020600001549050600560003373ffffffffffffffffffffffffffffffffffffffff1673ffffffffffffffffffffffffffffffffffffffff168152602001908152602001600020600080820160009055600182016000612ab39190614015565b600282016000612ac39190614015565b600382016000612ad39190614015565b600482016000612ae39190614015565b50505b5b7f866ad6bc1d4c37c9c81f580fb77d4f0a75ddc503bdd8e689d194d7b5fa8f196a8282604051808373ffffffffffffffffffffffffffffffffffffffff1673ffffffffffffffffffffffffffffffffffffffff1681526020018281526020019250505060405180910390a1505050565b612b5f61405d565b6000600560003373ffffffffffffffffffffffffffffffffffffffff1673ffffffffffffffffffffffffffffffffffffffff16815260200190815260200160002060000154141515612bb057600080fd5b60a060405190810160405280600054815260200186815260200185815260200184815260200183815250905080600560003373ffffffffffffffffffffffffffffffffffffffff1673ffffffffffffffffffffffffffffffffffffffff168152602001908152602001600020600082015181600001556020820151816001019080519060200190612c42929190613f47565b506040820151816002019080519060200190612c5f929190613f47565b506060820151816003019080519060200190612c7c929190613f47565b506080820151816004019080519060200190612c99929190613f47565b509050507fad5eb7a8cef108a44cdae7039b6f9583e7c8989bdaf322ac2fb0e5c3e88dad0d6000543387878787604051808781526020018673ffffffffffffffffffffffffffffffffffffffff1673ffffffffffffffffffffffffffffffffffffffff16815260200180602001806020018060200180602001858103855289818151815260200191508051906020019080838360005b83811015612d4a578082015181840152602081019050612d2f565b50505050905090810190601f168015612d775780820380516001836020036101000a031916815260200191505b50858103845288818151815260200191508051906020019080838360005b83811015612db0578082015181840152602081019050612d95565b50505050905090810190601f168015612ddd5780820380516001836020036101000a031916815260200191505b50858103835287818151815260200191508051906020019080838360005b83811015612e16578082015181840152602081019050612dfb565b50505050905090810190601f168015612e435780820380516001836020036101000a031916815260200191505b50858103825286818151815260200191508051906020019080838360005b83811015612e7c578082015181840152602081019050612e61565b50505050905090810190601f168015612ea95780820380516001836020036101000a031916815260200191505b509a505050505050505050505060405180910390a1600160008082825401925050819055505050505050565b6000600b600083815260200190815260200160002060009054906101000a900473ffffffffffffffffffffffffffffffffffffffff1673ffffffffffffffffffffffffffffffffffffffff166358aad10b336040518263ffffffff167c0100000000000000000000000000000000000000000000000000000000028152600401808273ffffffffffffffffffffffffffffffffffffffff1673ffffffffffffffffffffffffffffffffffffffff168152602001915050602060405180830381600087803b158015612fa557600080fd5b505af1158015612fb9573d6000803e3d6000fd5b505050506040513d6020811015612fcf57600080fd5b810190808051906020019092919050505090507fe952c4c99a0f877a622376d1af72df46f18aa28a6787cbd3ec9dcceb43afa5b3338383604051808473ffffffffffffffffffffffffffffffffffffffff1673ffffffffffffffffffffffffffffffffffffffff16815260200183815260200182151515158152602001935050505060405180910390a15050565b600061306761405d565b6000600560003373ffffffffffffffffffffffffffffffffffffffff1673ffffffffffffffffffffffffffffffffffffffff168152602001908152602001600020600001541115156130b857600080fd5b600560003373ffffffffffffffffffffffffffffffffffffffff1673ffffffffffffffffffffffffffffffffffffffff16815260200190815260200160002060000154915060a06040519081016040528083815260200187815260200186815260200185815260200184815250905080600560003373ffffffffffffffffffffffffffffffffffffffff1673ffffffffffffffffffffffffffffffffffffffff16815260200190815260200160002060008201518160000155602082015181600101908051906020019061318d929190613f47565b5060408201518160020190805190602001906131aa929190613f47565b5060608201518160030190805190602001906131c7929190613f47565b5060808201518160040190805190602001906131e4929190613f47565b509050507fcea9e67e6d0d92d590041a594e09840b224b4f5fdc03196a78899d4e6e8916e0823388888888604051808781526020018673ffffffffffffffffffffffffffffffffffffffff1673ffffffffffffffffffffffffffffffffffffffff16815260200180602001806020018060200180602001858103855289818151815260200191508051906020019080838360005b83811015613293578082015181840152602081019050613278565b50505050905090810190601f1680156132c05780820380516001836020036101000a031916815260200191505b50858103845288818151815260200191508051906020019080838360005b838110156132f95780820151818401526020810190506132de565b50505050905090810190601f1680156133265780820380516001836020036101000a031916815260200191505b50858103835287818151815260200191508051906020019080838360005b8381101561335f578082015181840152602081019050613344565b50505050905090810190601f16801561338c5780820380516001836020036101000a031916815260200191505b50858103825286818151815260200191508051906020019080838360005b838110156133c55780820151818401526020810190506133aa565b50505050905090810190601f1680156133f25780820380516001836020036101000a031916815260200191505b509a505050505050505050505060405180910390a1505050505050565b6000600b600083815260200190815260200160002060009054906101000a900473ffffffffffffffffffffffffffffffffffffffff1673ffffffffffffffffffffffffffffffffffffffff1663a15dc0d8336040518263ffffffff167c0100000000000000000000000000000000000000000000000000000000028152600401808273ffffffffffffffffffffffffffffffffffffffff1673ffffffffffffffffffffffffffffffffffffffff168152602001915050602060405180830381600087803b1580156134df57600080fd5b505af11580156134f3573d6000803e3d6000fd5b505050506040513d602081101561350957600080fd5b810190808051906020019092919050505090507f8aba56f24d4cb460a0ab50233a09db7fefb91ccda5a22a341492d74f906236b5338383604051808473ffffffffffffffffffffffffffffffffffffffff1673ffffffffffffffffffffffffffffffffffffffff16815260200183815260200182151515158152602001935050505060405180910390a15050565b600a6020528060005260406000206000915054906101000a900473ffffffffffffffffffffffffffffffffffffffff1681565b60005481565b60086020528060005260406000206000915054906101000a900473ffffffffffffffffffffffffffffffffffffffff1681565b60066020528060005260406000206000915054906101000a900460ff1681565b60015481565b613631613fd7565b60011515600660003373ffffffffffffffffffffffffffffffffffffffff1673ffffffffffffffffffffffffffffffffffffffff16815260200190815260200160002060009054906101000a900460ff16151514151561369057600080fd5b60e060405190810160405280600154815260200188815260200187815260200186815260200185815260200184815260200183815250905080600760003373ffffffffffffffffffffffffffffffffffffffff1673ffffffffffffffffffffffffffffffffffffffff16815260200190815260200160002060006001548152602001908152602001600020600082015181600001556020820151816001019080519060200190613741929190613f47565b50604082015181600201908051906020019061375e929190613f47565b50606082015181600301556080820151816004019080519060200190613785929190613f47565b5060a08201518160050190805190602001906137a2929190613f47565b5060c082015181600601559050503360086000600154815260200190815260200160002060006101000a81548173ffffffffffffffffffffffffffffffffffffffff021916908373ffffffffffffffffffffffffffffffffffffffff1602179055507fd140a29ecb454d7952258c89cc66d88dc11f992b780d3cb81dc4860e3d7f295933600560003373ffffffffffffffffffffffffffffffffffffffff1673ffffffffffffffffffffffffffffffffffffffff168152602001908152602001600020600001546001548a8a8a8a8a8a604051808a73ffffffffffffffffffffffffffffffffffffffff1673ffffffffffffffffffffffffffffffffffffffff1681526020018981526020018881526020018060200180602001878152602001806020018060200186815260200185810385528b818151815260200191508051906020019080838360005b838110156139085780820151818401526020810190506138ed565b50505050905090810190601f1680156139355780820380516001836020036101000a031916815260200191505b5085810384528a818151815260200191508051906020019080838360005b8381101561396e578082015181840152602081019050613953565b50505050905090810190601f16801561399b5780820380516001836020036101000a031916815260200191505b50858103835288818151815260200191508051906020019080838360005b838110156139d45780820151818401526020810190506139b9565b50505050905090810190601f168015613a015780820380516001836020036101000a031916815260200191505b50858103825287818151815260200191508051906020019080838360005b83811015613a3a578082015181840152602081019050613a1f565b50505050905090810190601f168015613a675780820380516001836020036101000a031916815260200191505b509d505050505050505050505050505060405180910390a16001806000828254019250508190555050505050505050565b600b6020528060005260406000206000915054906101000a900473ffffffffffffffffffffffffffffffffffffffff1681565b600760205281600052604060002060205280600052604060002060009150915050806000015490806001018054600181600116156101000203166002900480601f016020809104026020016040519081016040528092919081815260200182805460018160011615610100020316600290048015613b8a5780601f10613b5f57610100808354040283529160200191613b8a565b820191906000526020600020905b815481529060010190602001808311613b6d57829003601f168201915b505050505090806002018054600181600116156101000203166002900480601f016020809104026020016040519081016040528092919081815260200182805460018160011615610100020316600290048015613c285780601f10613bfd57610100808354040283529160200191613c28565b820191906000526020600020905b815481529060010190602001808311613c0b57829003601f168201915b505050505090806003015490806004018054600181600116156101000203166002900480601f016020809104026020016040519081016040528092919081815260200182805460018160011615610100020316600290048015613ccc5780601f10613ca157610100808354040283529160200191613ccc565b820191906000526020600020905b815481529060010190602001808311613caf57829003601f168201915b505050505090806005018054600181600116156101000203166002900480601f016020809104026020016040519081016040528092919081815260200182805460018160011615610100020316600290048015613d6a5780601f10613d3f57610100808354040283529160200191613d6a565b820191906000526020600020905b815481529060010190602001808311613d4d57829003601f168201915b5050505050908060060154905087565b600360009054906101000a900473ffffffffffffffffffffffffffffffffffffffff1681565b6000600190505b60015481111515613f08578173ffffffffffffffffffffffffffffffffffffffff166008600083815260200190815260200160002060009054906101000a900473ffffffffffffffffffffffffffffffffffffffff1673ffffffffffffffffffffffffffffffffffffffff161415613efb576008600082815260200190815260200160002060006101000a81549073ffffffffffffffffffffffffffffffffffffffff0219169055600760008373ffffffffffffffffffffffffffffffffffffffff1673ffffffffffffffffffffffffffffffffffffffff1681526020019081526020016000206000828152602001908152602001600020600080820160009055600182016000613eb89190614015565b600282016000613ec89190614015565b6003820160009055600482016000613ee09190614015565b600582016000613ef09190614015565b600682016000905550505b8080600101915050613da7565b5050565b60a0604051908101604052806000815260200160008152602001600081526020016060815260200160006001811115613f4157fe5b81525090565b828054600181600116156101000203166002900490600052602060002090601f016020900481019282601f10613f8857805160ff1916838001178555613fb6565b82800160010185558215613fb6579182015b82811115613fb5578251825591602001919060010190613f9a565b5b509050613fc3919061408d565b5090565b604051610d77806140b383390190565b60e060405190810160405280600081526020016060815260200160608152602001600081526020016060815260200160608152602001600081525090565b50805460018160011615610100020316600290046000825580601f1061403b575061405a565b601f016020900490600052602060002090810190614059919061408d565b5b50565b60a06040519081016040528060008152602001606081526020016060815260200160608152602001606081525090565b6140af91905b808211156140ab576000816000905550600101614093565b5090565b9056006080604052604051608080610d778339810180604052810190808051906020019092919080519060200190929190805190602001909291908051906020019092919050505083600381905550826000806101000a81548173ffffffffffffffffffffffffffffffffffffffff021916908373ffffffffffffffffffffffffffffffffffffffff16021790555081600160006101000a81548173ffffffffffffffffffffffffffffffffffffffff021916908373ffffffffffffffffffffffffffffffffffffffff16021790555080600260006101000a81548173ffffffffffffffffffffffffffffffffffffffff021916908373ffffffffffffffffffffffffffffffffffffffff1602179055506000600960006101000a81548160ff0219169083151502179055503460048190555033600960016101000a81548173ffffffffffffffffffffffffffffffffffffffff021916908373ffffffffffffffffffffffffffffffffffffffff16021790555050505050610bf4806101836000396000f3006080604052600436106100ba576000357c0100000000000000000000000000000000000000000000000000000000900463ffffffff16806308551a53146100bf5780630bda4dbf14610116578063163de5e5146101415780632df0d5b61461016c57806358aad10b1461019b5780637150d8ae146101f65780638da5cb5b1461024d578063a15dc0d8146102a4578063aa8c217c146102ff578063b8d08db21461032a578063f3d2590414610355578063fe25e00a1461042b575b600080fd5b3480156100cb57600080fd5b506100d4610482565b604051808273ffffffffffffffffffffffffffffffffffffffff1673ffffffffffffffffffffffffffffffffffffffff16815260200191505060405180910390f35b34801561012257600080fd5b5061012b6104a8565b6040518082815260200191505060405180910390f35b34801561014d57600080fd5b506101566104ae565b6040518082815260200191505060405180910390f35b34801561017857600080fd5b506101816104b4565b604051808215151515815260200191505060405180910390f35b3480156101a757600080fd5b506101dc600480360381019080803573ffffffffffffffffffffffffffffffffffffffff1690602001909291905050506104c7565b604051808215151515815260200191505060405180910390f35b34801561020257600080fd5b5061020b6107bc565b604051808273ffffffffffffffffffffffffffffffffffffffff1673ffffffffffffffffffffffffffffffffffffffff16815260200191505060405180910390f35b34801561025957600080fd5b506102626107e1565b604051808273ffffffffffffffffffffffffffffffffffffffff1673ffffffffffffffffffffffffffffffffffffffff16815260200191505060405180910390f35b3480156102b057600080fd5b506102e5600480360381019080803573ffffffffffffffffffffffffffffffffffffffff169060200190929190505050610807565b604051808215151515815260200191505060405180910390f35b34801561030b57600080fd5b50610314610afb565b6040518082815260200191505060405180910390f35b34801561033657600080fd5b5061033f610b01565b6040518082815260200191505060405180910390f35b34801561036157600080fd5b5061036a610b07565b604051808773ffffffffffffffffffffffffffffffffffffffff1673ffffffffffffffffffffffffffffffffffffffff1681526020018673ffffffffffffffffffffffffffffffffffffffff1673ffffffffffffffffffffffffffffffffffffffff1681526020018573ffffffffffffffffffffffffffffffffffffffff1673ffffffffffffffffffffffffffffffffffffffff16815260200184151515158152602001838152602001828152602001965050505050505060405180910390f35b34801561043757600080fd5b50610440610ba2565b604051808273ffffffffffffffffffffffffffffffffffffffff1673ffffffffffffffffffffffffffffffffffffffff16815260200191505060405180910390f35b600160009054906101000a900473ffffffffffffffffffffffffffffffffffffffff1681565b60085481565b60035481565b600960009054906101000a900460ff1681565b60003373ffffffffffffffffffffffffffffffffffffffff16600960019054906101000a900473ffffffffffffffffffffffffffffffffffffffff1673ffffffffffffffffffffffffffffffffffffffff1614151561052557600080fd5b60001515600960009054906101000a900460ff16151514151561054757600080fd5b6000809054906101000a900473ffffffffffffffffffffffffffffffffffffffff1673ffffffffffffffffffffffffffffffffffffffff168273ffffffffffffffffffffffffffffffffffffffff1614806105ef5750600160009054906101000a900473ffffffffffffffffffffffffffffffffffffffff1673ffffffffffffffffffffffffffffffffffffffff168273ffffffffffffffffffffffffffffffffffffffff16145b806106475750600260009054906101000a900473ffffffffffffffffffffffffffffffffffffffff1673ffffffffffffffffffffffffffffffffffffffff168273ffffffffffffffffffffffffffffffffffffffff16145b80156106a4575060011515600560008473ffffffffffffffffffffffffffffffffffffffff1673ffffffffffffffffffffffffffffffffffffffff16815260200190815260200160002060009054906101000a900460ff16151514155b15610713576001600560008473ffffffffffffffffffffffffffffffffffffffff1673ffffffffffffffffffffffffffffffffffffffff16815260200190815260200160002060006101000a81548160ff02191690831515021790555060016007600082825401925050819055505b600260075414156107a557600160009054906101000a900473ffffffffffffffffffffffffffffffffffffffff1673ffffffffffffffffffffffffffffffffffffffff166108fc6004549081150290604051600060405180830381858888f19350505050158015610788573d6000803e3d6000fd5b506001600960006101000a81548160ff0219169083151502179055505b600960009054906101000a900460ff169050919050565b6000809054906101000a900473ffffffffffffffffffffffffffffffffffffffff1681565b600960019054906101000a900473ffffffffffffffffffffffffffffffffffffffff1681565b60003373ffffffffffffffffffffffffffffffffffffffff16600960019054906101000a900473ffffffffffffffffffffffffffffffffffffffff1673ffffffffffffffffffffffffffffffffffffffff1614151561086557600080fd5b60001515600960009054906101000a900460ff16151514151561088757600080fd5b6000809054906101000a900473ffffffffffffffffffffffffffffffffffffffff1673ffffffffffffffffffffffffffffffffffffffff168273ffffffffffffffffffffffffffffffffffffffff16148061092f5750600160009054906101000a900473ffffffffffffffffffffffffffffffffffffffff1673ffffffffffffffffffffffffffffffffffffffff168273ffffffffffffffffffffffffffffffffffffffff16145b806109875750600260009054906101000a900473ffffffffffffffffffffffffffffffffffffffff1673ffffffffffffffffffffffffffffffffffffffff168273ffffffffffffffffffffffffffffffffffffffff16145b80156109e4575060011515600660008473ffffffffffffffffffffffffffffffffffffffff1673ffffffffffffffffffffffffffffffffffffffff16815260200190815260200160002060009054906101000a900460ff16151514155b15610a53576001600660008473ffffffffffffffffffffffffffffffffffffffff1673ffffffffffffffffffffffffffffffffffffffff16815260200190815260200160002060006101000a81548160ff02191690831515021790555060016008600082825401925050819055505b60026008541415610ae4576000809054906101000a900473ffffffffffffffffffffffffffffffffffffffff1673ffffffffffffffffffffffffffffffffffffffff166108fc6004549081150290604051600060405180830381858888f19350505050158015610ac7573d6000803e3d6000fd5b506001600960006101000a81548160ff0219169083151502179055505b600960009054906101000a900460ff169050919050565b60045481565b60075481565b6000806000806000806000809054906101000a900473ffffffffffffffffffffffffffffffffffffffff16600160009054906101000a900473ffffffffffffffffffffffffffffffffffffffff16600260009054906101000a900473ffffffffffffffffffffffffffffffffffffffff16600960009054906101000a900460ff16600754600854955095509550955095509550909192939495565b600260009054906101000a900473ffffffffffffffffffffffffffffffffffffffff16815600a165627a7a7230582031d3d3dec6556402b984eaba0feb4b0cc7c2a2a35cd211366f2ecf6ac30442ba0029a165627a7a723058209b9812080c561469eb786f879f839c8d1fade0adb89a83535a702b626bf38c9f0029",
  "source": "pragma solidity ^0.4.23;\n\nimport \"contracts/Escrow.sol\";\n\ncontract EcommerceStore {\n\n  enum OrderStatus{CREATED, PAYER}\n\n  uint public storeIndex;\n  uint public productIndex;\n  uint public orderIndex;\n  address public arbiter;\n\n  // Check if address is admin\n  mapping(address => bool) public admins;\n\n  // Store details\n  mapping(address => Store) public stores;\n  mapping(address => bool) public approvedStores;\n\n  // used for finding easily a store based on a productId\n  mapping(address => mapping(uint => Product)) public products;\n  mapping(uint => address) public productIdInStore;\n\n\n  mapping(address => mapping(uint => Order)) public orders;\n  mapping(uint => address) public orderIdForBuyer;\n\n  // productId mapping the address of the escrow contract\n  mapping(uint => address) public productEscrow;\n\n  struct Store {\n    uint id;\n    string name;\n    string category;\n    string imageLink;\n    string descriptionLink;\n  }\n\n  struct Product {\n    uint id;\n    string name;\n    string category;\n    uint quantity;\n    string imageLink;\n    string descriptionLink;\n    uint256 price;\n  }\n\n  struct Order {\n    uint id;\n    uint productId;\n    uint quantity;\n    string orderAddress;\n    OrderStatus status;\n  }\n\n  modifier onlyAdmin() {\n    require (admins[msg.sender] == true);\n    _;\n  }\n\n  // check if work\n  modifier onlyStoreOwner() {\n    require (stores[msg.sender].id > 0);\n    _;\n  }\n\n  // check if work\n  modifier onlyAdminOrStoreOwner() {\n    require (admins[msg.sender] == true || stores[msg.sender].id > 0);\n    _;\n  }\n\n  modifier onlyProductOwner(uint _id) {\n    require (msg.sender == productIdInStore[_id]);\n    _;\n  }\n\n  modifier storeNotExist() {\n    require (stores[msg.sender].id == 0);\n    _;\n  }\n\n  modifier onlyApprovedStores() {\n    require (approvedStores[msg.sender] == true);\n    _;\n  }\n\n  modifier productExist(uint _id) {\n    require (productIdInStore[_id] != address(0));\n    _;\n  }\n\n  modifier productHasEnoughtQuantity(uint _productId, uint _orderQuantity) {\n    require (products[productIdInStore[_productId]][_productId].quantity >= _orderQuantity && _orderQuantity != 0);\n    _;\n  }\n\n  modifier OrderPriceIsEnought(uint _productId, uint _orderQuantity) {\n    require (msg.value >= (products[productIdInStore[_productId]][_productId].quantity * _orderQuantity));\n    _;\n  }\n\n\n  event NewAdmin(address _address);\n  event AdminDeleted(address _address);\n\n  event NewStore(uint _id, address _address, string _name, string _category, string _imageLink, string _descriptionLink);\n  event StoreUpdated(uint _id, address _address, string _name, string _category, string _imageLink, string _descriptionLink);\n  event StoreRemoved(address _address, uint _id);\n  event StoreApproved(address _address);\n\n  event NewProduct(address _storeAddress, uint _storeId, uint _id, string _name, string _category,  uint _quantity, string _imageLink, string _descriptionLink, uint256 _price);\n  event ProductUpdated(uint _id, string _name, string _category,  uint _quantity, string _imageLink, string _descriptionLink, uint256 _price);\n  event ProductRemoved(uint _id);\n\n  event NewOrder(address _buyer,address _seller, uint _id, uint _productId, uint _quantity, string _orderAddress,address _arbiter);\n\n  event FundReleaseToSeller(address _caller, uint _orderId, bool _fundDisbursed);\n  event FundReleaseToBuyer(address _caller, uint _orderId, bool _fundDisbursed);\n\n  constructor(address _arbiter) public {\n    admins[msg.sender] = true;\n    emit NewAdmin(msg.sender);\n    productIndex = 1;\n    storeIndex = 1;\n    orderIndex = 1;\n    arbiter = _arbiter;\n  }\n\n  function addAdmin(address _address)\n  public\n  onlyAdmin\n  {\n    admins[_address] = true;\n    emit NewAdmin(_address);\n  }\n\n  function removeAdmin(address _address)\n  public\n  onlyAdmin\n  {\n    require(admins[_address]);\n    admins[_address] = false;\n    emit AdminDeleted(_address);\n  }\n\n  function addStore(string _name, string _category, string _imageLink, string _descriptionLink)\n  public\n  storeNotExist\n  {\n    Store memory store = Store(storeIndex, _name, _category, _imageLink, _descriptionLink);\n    stores[msg.sender] = store;\n    emit NewStore(storeIndex, msg.sender, _name, _category, _imageLink, _descriptionLink);\n    storeIndex += 1;\n  }\n\n  function removeStore(address _address)\n  public\n  onlyAdminOrStoreOwner\n  {\n    address storeAddress;\n    uint storeId;\n    if (admins[msg.sender]) {\n      if(approvedStores[_address]) {\n        delete approvedStores[_address];\n        removeAllProductFromStore(_address);\n      }\n      storeAddress = _address;\n      if (stores[_address].id > 0) {\n        storeId = stores[_address].id;\n      }\n      else {\n        storeId = 0;\n      }\n      delete stores[_address];\n    }\n    else if (approvedStores[msg.sender]) {\n      delete approvedStores[msg.sender];\n      removeAllProductFromStore(msg.sender);\n      storeAddress = msg.sender;\n      storeId = stores[msg.sender].id;\n      delete stores[msg.sender];\n    }\n    emit StoreRemoved(storeAddress, storeId);\n  }\n\n  function updateStore(string _name, string _category, string _imageLink, string _descriptionLink)\n  public\n  onlyStoreOwner\n  {\n    uint storeId = stores[msg.sender].id;\n    Store memory store = Store(storeId, _name, _category, _imageLink, _descriptionLink);\n    stores[msg.sender] = store;\n    emit StoreUpdated(storeId, msg.sender, _name, _category, _imageLink, _descriptionLink);\n  }\n\n  function approveStore(address _address)\n  public\n  onlyAdmin\n  {\n    approvedStores[_address] = true;\n    emit StoreApproved(_address);\n  }\n\n  function addProduct(string _name, string _category, uint _quantity, string _imageLink, string _descriptionLink, uint256 _price)\n  public\n  onlyApprovedStores\n  {\n    Product memory product = Product(productIndex, _name, _category, _quantity, _imageLink, _descriptionLink, _price);\n    products[msg.sender][productIndex] = product;\n    productIdInStore[productIndex] = msg.sender;\n    emit NewProduct(msg.sender, stores[msg.sender].id, productIndex, _name, _category, _quantity, _imageLink, _descriptionLink, _price);\n    productIndex += 1;\n  }\n\n  function updateProduct(uint _productId, string _name, string _category, uint _quantity, string _imageLink, string _descriptionLink, uint256 _price)\n  public\n  onlyProductOwner(_productId)\n  productExist(_productId)\n  {\n    Product memory product = Product(_productId, _name, _category, _quantity, _imageLink, _descriptionLink, _price);\n    products[msg.sender][_productId] = product;\n    emit ProductUpdated(_productId, _name, _category, _quantity, _imageLink, _descriptionLink, _price);\n  }\n\n  function removeProduct(uint _productId)\n  public\n  onlyProductOwner(_productId)\n  productExist(_productId)\n  {\n    delete products[msg.sender][_productId];\n    delete productIdInStore[productIndex];\n    emit ProductRemoved(_productId);\n  }\n\n  function removeAllProductFromStore(address _storeAddress)\n  internal\n  {\n    for (uint i=1; i<=productIndex; i++) {\n      if (productIdInStore[i] == _storeAddress) {\n        delete productIdInStore[i];\n        delete products[_storeAddress][i];\n      }\n    }\n  }\n  // payable\n  function newOrder(uint _productId, uint _quantity, string _orderAddress)\n  payable\n  public\n  productExist(_productId)\n  productHasEnoughtQuantity(_productId, _quantity)\n  OrderPriceIsEnought(_productId, _quantity)\n  {\n    Order memory order = Order(orderIndex, _productId, _quantity, _orderAddress, OrderStatus.CREATED);\n    orders[msg.sender][orderIndex] = order;\n    orderIdForBuyer[orderIndex] = msg.sender;\n    products[productIdInStore[_productId]][_productId].quantity -= _quantity;\n    Escrow escrow = (new Escrow).value(msg.value)(orderIndex, msg.sender, productIdInStore[_productId], arbiter);\n    productEscrow[orderIndex] = escrow;\n    emit NewOrder(msg.sender, productIdInStore[_productId], orderIndex, _productId, _quantity, _orderAddress, arbiter);\n    orderIndex += 1;\n  }\n\n  function escrowInfo(uint _orderId)\n  view\n  public\n  returns (address, address, address, bool, uint, uint)\n  {\n    return Escrow(productEscrow[_orderId]).escrowInfo();\n  }\n\n  function releaseAmountToSeller(uint _orderId)\n  public\n  {\n    bool disbursed = Escrow(productEscrow[_orderId]).releaseAmountToSeller(msg.sender);\n    emit FundReleaseToSeller(msg.sender, _orderId, disbursed);\n  }\n\n  function releaseAmountToBuyer(uint _orderId)\n  public {\n    bool disbursed = Escrow(productEscrow[_orderId]).releaseAmountToBuyer(msg.sender);\n    emit FundReleaseToBuyer(msg.sender, _orderId, disbursed);\n  }\n\n}\n\n\n",
  "sourcePath": "/home/jonathan/Bureau/Ethereum/consensys-project/contracts/EcommerceStore.sol",
  "compiler": {
    "name": "solc",
    "version": "0.4.24+commit.e67f0147.Emscripten.clang"
  },
  "schemaVersion": "2.0.1",
  "updatedAt": "2018-08-25T14:03:26.110Z"
}