{
  "contractName": "EcommerceStore",
  "abi": [
    {
      "constant": true,
      "inputs": [],
      "name": "orderIndex",
      "outputs": [
        {
          "name": "",
          "type": "uint256"
        }
      ],
      "payable": false,
      "stateMutability": "view",
      "type": "function"
    },
    {
      "constant": true,
      "inputs": [
        {
          "name": "",
          "type": "address"
        }
      ],
      "name": "admins",
      "outputs": [
        {
          "name": "",
          "type": "bool"
        }
      ],
      "payable": false,
      "stateMutability": "view",
      "type": "function"
    },
    {
      "constant": true,
      "inputs": [
        {
          "name": "",
          "type": "address"
        }
      ],
      "name": "stores",
      "outputs": [
        {
          "name": "id",
          "type": "uint256"
        },
        {
          "name": "name",
          "type": "string"
        },
        {
          "name": "category",
          "type": "string"
        },
        {
          "name": "imageLink",
          "type": "string"
        },
        {
          "name": "descriptionLink",
          "type": "string"
        }
      ],
      "payable": false,
      "stateMutability": "view",
      "type": "function"
    },
    {
      "constant": true,
      "inputs": [
        {
          "name": "",
          "type": "address"
        },
        {
          "name": "",
          "type": "uint256"
        }
      ],
      "name": "orders",
      "outputs": [
        {
          "name": "id",
          "type": "uint256"
        },
        {
          "name": "productId",
          "type": "uint256"
        },
        {
          "name": "quantity",
          "type": "uint256"
        },
        {
          "name": "orderAddress",
          "type": "string"
        },
        {
          "name": "status",
          "type": "uint8"
        }
      ],
      "payable": false,
      "stateMutability": "view",
      "type": "function"
    },
    {
      "constant": true,
      "inputs": [
        {
          "name": "",
          "type": "uint256"
        }
      ],
      "name": "orderIdForBuyer",
      "outputs": [
        {
          "name": "",
          "type": "address"
        }
      ],
      "payable": false,
      "stateMutability": "view",
      "type": "function"
    },
    {
      "constant": true,
      "inputs": [],
      "name": "storeIndex",
      "outputs": [
        {
          "name": "",
          "type": "uint256"
        }
      ],
      "payable": false,
      "stateMutability": "view",
      "type": "function"
    },
    {
      "constant": true,
      "inputs": [
        {
          "name": "",
          "type": "uint256"
        }
      ],
      "name": "productIdInStore",
      "outputs": [
        {
          "name": "",
          "type": "address"
        }
      ],
      "payable": false,
      "stateMutability": "view",
      "type": "function"
    },
    {
      "constant": true,
      "inputs": [
        {
          "name": "",
          "type": "address"
        }
      ],
      "name": "approvedStores",
      "outputs": [
        {
          "name": "",
          "type": "bool"
        }
      ],
      "payable": false,
      "stateMutability": "view",
      "type": "function"
    },
    {
      "constant": true,
      "inputs": [],
      "name": "productIndex",
      "outputs": [
        {
          "name": "",
          "type": "uint256"
        }
      ],
      "payable": false,
      "stateMutability": "view",
      "type": "function"
    },
    {
      "constant": true,
      "inputs": [
        {
          "name": "",
          "type": "uint256"
        }
      ],
      "name": "productEscrow",
      "outputs": [
        {
          "name": "",
          "type": "address"
        }
      ],
      "payable": false,
      "stateMutability": "view",
      "type": "function"
    },
    {
      "constant": true,
      "inputs": [
        {
          "name": "",
          "type": "address"
        },
        {
          "name": "",
          "type": "uint256"
        }
      ],
      "name": "products",
      "outputs": [
        {
          "name": "id",
          "type": "uint256"
        },
        {
          "name": "name",
          "type": "string"
        },
        {
          "name": "category",
          "type": "string"
        },
        {
          "name": "quantity",
          "type": "uint256"
        },
        {
          "name": "imageLink",
          "type": "string"
        },
        {
          "name": "descriptionLink",
          "type": "string"
        },
        {
          "name": "price",
          "type": "uint256"
        }
      ],
      "payable": false,
      "stateMutability": "view",
      "type": "function"
    },
    {
      "constant": true,
      "inputs": [],
      "name": "arbiter",
      "outputs": [
        {
          "name": "",
          "type": "address"
        }
      ],
      "payable": false,
      "stateMutability": "view",
      "type": "function"
    },
    {
      "inputs": [],
      "payable": false,
      "stateMutability": "nonpayable",
      "type": "constructor"
    },
    {
      "anonymous": false,
      "inputs": [
        {
          "indexed": false,
          "name": "_address",
          "type": "address"
        }
      ],
      "name": "NewAdmin",
      "type": "event"
    },
    {
      "anonymous": false,
      "inputs": [
        {
          "indexed": false,
          "name": "_address",
          "type": "address"
        }
      ],
      "name": "AdminDeleted",
      "type": "event"
    },
    {
      "anonymous": false,
      "inputs": [
        {
          "indexed": false,
          "name": "_id",
          "type": "uint256"
        },
        {
          "indexed": false,
          "name": "_address",
          "type": "address"
        },
        {
          "indexed": false,
          "name": "_name",
          "type": "string"
        },
        {
          "indexed": false,
          "name": "_category",
          "type": "string"
        },
        {
          "indexed": false,
          "name": "_imageLink",
          "type": "string"
        },
        {
          "indexed": false,
          "name": "_descriptionLink",
          "type": "string"
        }
      ],
      "name": "NewStore",
      "type": "event"
    },
    {
      "anonymous": false,
      "inputs": [
        {
          "indexed": false,
          "name": "_id",
          "type": "uint256"
        },
        {
          "indexed": false,
          "name": "_address",
          "type": "address"
        },
        {
          "indexed": false,
          "name": "_name",
          "type": "string"
        },
        {
          "indexed": false,
          "name": "_category",
          "type": "string"
        },
        {
          "indexed": false,
          "name": "_imageLink",
          "type": "string"
        },
        {
          "indexed": false,
          "name": "_descriptionLink",
          "type": "string"
        }
      ],
      "name": "StoreUpdated",
      "type": "event"
    },
    {
      "anonymous": false,
      "inputs": [
        {
          "indexed": false,
          "name": "_address",
          "type": "address"
        },
        {
          "indexed": false,
          "name": "_id",
          "type": "uint256"
        }
      ],
      "name": "StoreRemoved",
      "type": "event"
    },
    {
      "anonymous": false,
      "inputs": [
        {
          "indexed": false,
          "name": "_address",
          "type": "address"
        }
      ],
      "name": "StoreApproved",
      "type": "event"
    },
    {
      "anonymous": false,
      "inputs": [
        {
          "indexed": false,
          "name": "_storeAddress",
          "type": "address"
        },
        {
          "indexed": false,
          "name": "_storeId",
          "type": "uint256"
        },
        {
          "indexed": false,
          "name": "_id",
          "type": "uint256"
        },
        {
          "indexed": false,
          "name": "_name",
          "type": "string"
        },
        {
          "indexed": false,
          "name": "_category",
          "type": "string"
        },
        {
          "indexed": false,
          "name": "_quantity",
          "type": "uint256"
        },
        {
          "indexed": false,
          "name": "_imageLink",
          "type": "string"
        },
        {
          "indexed": false,
          "name": "_descriptionLink",
          "type": "string"
        },
        {
          "indexed": false,
          "name": "_price",
          "type": "uint256"
        }
      ],
      "name": "NewProduct",
      "type": "event"
    },
    {
      "anonymous": false,
      "inputs": [
        {
          "indexed": false,
          "name": "_id",
          "type": "uint256"
        },
        {
          "indexed": false,
          "name": "_name",
          "type": "string"
        },
        {
          "indexed": false,
          "name": "_category",
          "type": "string"
        },
        {
          "indexed": false,
          "name": "_quantity",
          "type": "uint256"
        },
        {
          "indexed": false,
          "name": "_imageLink",
          "type": "string"
        },
        {
          "indexed": false,
          "name": "_descriptionLink",
          "type": "string"
        },
        {
          "indexed": false,
          "name": "_price",
          "type": "uint256"
        }
      ],
      "name": "ProductUpdated",
      "type": "event"
    },
    {
      "anonymous": false,
      "inputs": [
        {
          "indexed": false,
          "name": "_id",
          "type": "uint256"
        }
      ],
      "name": "ProductRemoved",
      "type": "event"
    },
    {
      "anonymous": false,
      "inputs": [
        {
          "indexed": false,
          "name": "_buyer",
          "type": "address"
        },
        {
          "indexed": false,
          "name": "_seller",
          "type": "address"
        },
        {
          "indexed": false,
          "name": "_id",
          "type": "uint256"
        },
        {
          "indexed": false,
          "name": "_productId",
          "type": "uint256"
        },
        {
          "indexed": false,
          "name": "_quantity",
          "type": "uint256"
        },
        {
          "indexed": false,
          "name": "_orderAddress",
          "type": "string"
        },
        {
          "indexed": false,
          "name": "_orderStatus",
          "type": "uint8"
        }
      ],
      "name": "NewOrder",
      "type": "event"
    },
    {
      "constant": false,
      "inputs": [
        {
          "name": "_address",
          "type": "address"
        }
      ],
      "name": "addAdmin",
      "outputs": [],
      "payable": false,
      "stateMutability": "nonpayable",
      "type": "function"
    },
    {
      "constant": false,
      "inputs": [
        {
          "name": "_address",
          "type": "address"
        }
      ],
      "name": "removeAdmin",
      "outputs": [],
      "payable": false,
      "stateMutability": "nonpayable",
      "type": "function"
    },
    {
      "constant": false,
      "inputs": [
        {
          "name": "_name",
          "type": "string"
        },
        {
          "name": "_category",
          "type": "string"
        },
        {
          "name": "_imageLink",
          "type": "string"
        },
        {
          "name": "_descriptionLink",
          "type": "string"
        }
      ],
      "name": "addStore",
      "outputs": [],
      "payable": false,
      "stateMutability": "nonpayable",
      "type": "function"
    },
    {
      "constant": false,
      "inputs": [
        {
          "name": "_address",
          "type": "address"
        }
      ],
      "name": "removeStore",
      "outputs": [],
      "payable": false,
      "stateMutability": "nonpayable",
      "type": "function"
    },
    {
      "constant": false,
      "inputs": [
        {
          "name": "_name",
          "type": "string"
        },
        {
          "name": "_category",
          "type": "string"
        },
        {
          "name": "_imageLink",
          "type": "string"
        },
        {
          "name": "_descriptionLink",
          "type": "string"
        }
      ],
      "name": "updateStore",
      "outputs": [],
      "payable": false,
      "stateMutability": "nonpayable",
      "type": "function"
    },
    {
      "constant": false,
      "inputs": [
        {
          "name": "_address",
          "type": "address"
        }
      ],
      "name": "approveStore",
      "outputs": [],
      "payable": false,
      "stateMutability": "nonpayable",
      "type": "function"
    },
    {
      "constant": false,
      "inputs": [
        {
          "name": "_name",
          "type": "string"
        },
        {
          "name": "_category",
          "type": "string"
        },
        {
          "name": "_quantity",
          "type": "uint256"
        },
        {
          "name": "_imageLink",
          "type": "string"
        },
        {
          "name": "_descriptionLink",
          "type": "string"
        },
        {
          "name": "_price",
          "type": "uint256"
        }
      ],
      "name": "addProduct",
      "outputs": [],
      "payable": false,
      "stateMutability": "nonpayable",
      "type": "function"
    },
    {
      "constant": false,
      "inputs": [
        {
          "name": "_productId",
          "type": "uint256"
        },
        {
          "name": "_name",
          "type": "string"
        },
        {
          "name": "_category",
          "type": "string"
        },
        {
          "name": "_quantity",
          "type": "uint256"
        },
        {
          "name": "_imageLink",
          "type": "string"
        },
        {
          "name": "_descriptionLink",
          "type": "string"
        },
        {
          "name": "_price",
          "type": "uint256"
        }
      ],
      "name": "updateProduct",
      "outputs": [],
      "payable": false,
      "stateMutability": "nonpayable",
      "type": "function"
    },
    {
      "constant": false,
      "inputs": [
        {
          "name": "_productId",
          "type": "uint256"
        }
      ],
      "name": "removeProduct",
      "outputs": [],
      "payable": false,
      "stateMutability": "nonpayable",
      "type": "function"
    },
    {
      "constant": false,
      "inputs": [
        {
          "name": "_storeAddress",
          "type": "address"
        },
        {
          "name": "_productId",
          "type": "uint256"
        },
        {
          "name": "_quantity",
          "type": "uint256"
        },
        {
          "name": "_orderAddress",
          "type": "string"
        }
      ],
      "name": "newOrder",
      "outputs": [],
      "payable": true,
      "stateMutability": "payable",
      "type": "function"
    },
    {
      "constant": true,
      "inputs": [
        {
          "name": "_orderId",
          "type": "uint256"
        }
      ],
      "name": "escrowInfo",
      "outputs": [
        {
          "name": "",
          "type": "address"
        },
        {
          "name": "",
          "type": "address"
        },
        {
          "name": "",
          "type": "address"
        },
        {
          "name": "",
          "type": "bool"
        },
        {
          "name": "",
          "type": "uint256"
        },
        {
          "name": "",
          "type": "uint256"
        }
      ],
      "payable": false,
      "stateMutability": "view",
      "type": "function"
    },
    {
      "constant": false,
      "inputs": [
        {
          "name": "_orderId",
          "type": "uint256"
        }
      ],
      "name": "releaseAmountToSeller",
      "outputs": [],
      "payable": false,
      "stateMutability": "nonpayable",
      "type": "function"
    },
    {
      "constant": false,
      "inputs": [
        {
          "name": "_orderId",
          "type": "uint256"
        }
      ],
      "name": "releaseAmountToBuyer",
      "outputs": [],
      "payable": false,
      "stateMutability": "nonpayable",
      "type": "function"
    }
  ],
  "bytecode": "0x608060405234801561001057600080fd5b506001600460003373ffffffffffffffffffffffffffffffffffffffff1673ffffffffffffffffffffffffffffffffffffffff16815260200190815260200160002060006101000a81548160ff0219169083151502179055507f71614071b88dee5e0b2ae578a9dd7b2ebbe9ae832ba419dc0242cd065a290b6c33604051808273ffffffffffffffffffffffffffffffffffffffff1673ffffffffffffffffffffffffffffffffffffffff16815260200191505060405180910390a1600180819055506001600081905550600160028190555033600360006101000a81548173ffffffffffffffffffffffffffffffffffffffff021916908373ffffffffffffffffffffffffffffffffffffffff160217905550614b95806101336000396000f300608060405260043610610149576000357c0100000000000000000000000000000000000000000000000000000000900463ffffffff1680631785f53c1461014e578063247ee997146101915780632d45b849146102ea57806330471fee1461037a57806331157c15146103a5578063429b62e5146103e85780635ee95cae14610443578063621df534146104705780637048027514610677578063793b8c6d146106ba57806383560525146107aa5780638dbe1a171461089657806391908a2e146108d95780639a3a7c6914610a14578063a261215814610a41578063a8939abd14610b7c578063b21539bd14610ba9578063baa66e6414610c16578063c0bc03c814610c41578063c18e6e5e14610cae578063c897d5a614610d09578063dd6cb58114610d34578063debe417314610e83578063fc64094914610ef0578063fe25e00a1461110f575b600080fd5b34801561015a57600080fd5b5061018f600480360381019080803573ffffffffffffffffffffffffffffffffffffffff169060200190929190505050611166565b005b34801561019d57600080fd5b506102e860048036038101908080359060200190929190803590602001908201803590602001908080601f0160208091040260200160405190810160405280939291908181526020018383808284378201915050505050509192919290803590602001908201803590602001908080601f016020809104026020016040519081016040528093929190818152602001838380828437820191505050505050919291929080359060200190929190803590602001908201803590602001908080601f0160208091040260200160405190810160405280939291908181526020018383808284378201915050505050509192919290803590602001908201803590602001908080601f0160208091040260200160405190810160405280939291908181526020018383808284378201915050505050509192919290803590602001909291905050506112db565b005b610378600480360381019080803573ffffffffffffffffffffffffffffffffffffffff1690602001909291908035906020019092919080359060200190929190803590602001908201803590602001908080601f01602080910402602001604051908101604052809392919081815260200183838082843782019150505050505091929192905050506116e4565b005b34801561038657600080fd5b5061038f611c6e565b6040518082815260200191505060405180910390f35b3480156103b157600080fd5b506103e6600480360381019080803573ffffffffffffffffffffffffffffffffffffffff169060200190929190505050611c74565b005b3480156103f457600080fd5b50610429600480360381019080803573ffffffffffffffffffffffffffffffffffffffff169060200190929190505050611d91565b604051808215151515815260200191505060405180910390f35b34801561044f57600080fd5b5061046e60048036038101908080359060200190929190505050611db1565b005b34801561047c57600080fd5b506104b1600480360381019080803573ffffffffffffffffffffffffffffffffffffffff169060200190929190505050611fae565b6040518086815260200180602001806020018060200180602001858103855289818151815260200191508051906020019080838360005b838110156105035780820151818401526020810190506104e8565b50505050905090810190601f1680156105305780820380516001836020036101000a031916815260200191505b50858103845288818151815260200191508051906020019080838360005b8381101561056957808201518184015260208101905061054e565b50505050905090810190601f1680156105965780820380516001836020036101000a031916815260200191505b50858103835287818151815260200191508051906020019080838360005b838110156105cf5780820151818401526020810190506105b4565b50505050905090810190601f1680156105fc5780820380516001836020036101000a031916815260200191505b50858103825286818151815260200191508051906020019080838360005b8381101561063557808201518184015260208101905061061a565b50505050905090810190601f1680156106625780820380516001836020036101000a031916815260200191505b50995050505050505050505060405180910390f35b34801561068357600080fd5b506106b8600480360381019080803573ffffffffffffffffffffffffffffffffffffffff169060200190929190505050612244565b005b3480156106c657600080fd5b50610705600480360381019080803573ffffffffffffffffffffffffffffffffffffffff16906020019092919080359060200190929190505050612361565b604051808681526020018581526020018481526020018060200183600181111561072b57fe5b60ff168152602001828103825284818151815260200191508051906020019080838360005b8381101561076b578082015181840152602081019050610750565b50505050905090810190601f1680156107985780820380516001836020036101000a031916815260200191505b50965050505050505060405180910390f35b3480156107b657600080fd5b506107d560048036038101908080359060200190929190505050612449565b604051808773ffffffffffffffffffffffffffffffffffffffff1673ffffffffffffffffffffffffffffffffffffffff1681526020018673ffffffffffffffffffffffffffffffffffffffff1673ffffffffffffffffffffffffffffffffffffffff1681526020018573ffffffffffffffffffffffffffffffffffffffff1673ffffffffffffffffffffffffffffffffffffffff16815260200184151515158152602001838152602001828152602001965050505050505060405180910390f35b3480156108a257600080fd5b506108d7600480360381019080803573ffffffffffffffffffffffffffffffffffffffff16906020019092919050505061256b565b005b3480156108e557600080fd5b50610a12600480360381019080803590602001908201803590602001908080601f0160208091040260200160405190810160405280939291908181526020018383808284378201915050505050509192919290803590602001908201803590602001908080601f0160208091040260200160405190810160405280939291908181526020018383808284378201915050505050509192919290803590602001908201803590602001908080601f0160208091040260200160405190810160405280939291908181526020018383808284378201915050505050509192919290803590602001908201803590602001908080601f0160208091040260200160405190810160405280939291908181526020018383808284378201915050505050509192919290505050612a31565b005b348015610a2057600080fd5b50610a3f60048036038101908080359060200190929190505050612daf565b005b348015610a4d57600080fd5b50610b7a600480360381019080803590602001908201803590602001908080601f0160208091040260200160405190810160405280939291908181526020018383808284378201915050505050509192919290803590602001908201803590602001908080601f0160208091040260200160405190810160405280939291908181526020018383808284378201915050505050509192919290803590602001908201803590602001908080601f0160208091040260200160405190810160405280939291908181526020018383808284378201915050505050509192919290803590602001908201803590602001908080601f0160208091040260200160405190810160405280939291908181526020018383808284378201915050505050509192919290505050612e98565b005b348015610b8857600080fd5b50610ba76004803603810190808035906020019092919050505061324a565b005b348015610bb557600080fd5b50610bd460048036038101908080359060200190929190505050613333565b604051808273ffffffffffffffffffffffffffffffffffffffff1673ffffffffffffffffffffffffffffffffffffffff16815260200191505060405180910390f35b348015610c2257600080fd5b50610c2b613366565b6040518082815260200191505060405180910390f35b348015610c4d57600080fd5b50610c6c6004803603810190808035906020019092919050505061336c565b604051808273ffffffffffffffffffffffffffffffffffffffff1673ffffffffffffffffffffffffffffffffffffffff16815260200191505060405180910390f35b348015610cba57600080fd5b50610cef600480360381019080803573ffffffffffffffffffffffffffffffffffffffff16906020019092919050505061339f565b604051808215151515815260200191505060405180910390f35b348015610d1557600080fd5b50610d1e6133bf565b6040518082815260200191505060405180910390f35b348015610d4057600080fd5b50610e81600480360381019080803590602001908201803590602001908080601f0160208091040260200160405190810160405280939291908181526020018383808284378201915050505050509192919290803590602001908201803590602001908080601f016020809104026020016040519081016040528093929190818152602001838380828437820191505050505050919291929080359060200190929190803590602001908201803590602001908080601f0160208091040260200160405190810160405280939291908181526020018383808284378201915050505050509192919290803590602001908201803590602001908080601f0160208091040260200160405190810160405280939291908181526020018383808284378201915050505050509192919290803590602001909291905050506133c5565b005b348015610e8f57600080fd5b50610eae60048036038101908080359060200190929190505050613834565b604051808273ffffffffffffffffffffffffffffffffffffffff1673ffffffffffffffffffffffffffffffffffffffff16815260200191505060405180910390f35b348015610efc57600080fd5b50610f3b600480360381019080803573ffffffffffffffffffffffffffffffffffffffff16906020019092919080359060200190929190505050613867565b604051808881526020018060200180602001878152602001806020018060200186815260200185810385528b818151815260200191508051906020019080838360005b83811015610f99578082015181840152602081019050610f7e565b50505050905090810190601f168015610fc65780820380516001836020036101000a031916815260200191505b5085810384528a818151815260200191508051906020019080838360005b83811015610fff578082015181840152602081019050610fe4565b50505050905090810190601f16801561102c5780820380516001836020036101000a031916815260200191505b50858103835288818151815260200191508051906020019080838360005b8381101561106557808201518184015260208101905061104a565b50505050905090810190601f1680156110925780820380516001836020036101000a031916815260200191505b50858103825287818151815260200191508051906020019080838360005b838110156110cb5780820151818401526020810190506110b0565b50505050905090810190601f1680156110f85780820380516001836020036101000a031916815260200191505b509b50505050505050505050505060405180910390f35b34801561111b57600080fd5b50611124613b16565b604051808273ffffffffffffffffffffffffffffffffffffffff1673ffffffffffffffffffffffffffffffffffffffff16815260200191505060405180910390f35b60011515600460003373ffffffffffffffffffffffffffffffffffffffff1673ffffffffffffffffffffffffffffffffffffffff16815260200190815260200160002060009054906101000a900460ff1615151415156111c557600080fd5b600460008273ffffffffffffffffffffffffffffffffffffffff1673ffffffffffffffffffffffffffffffffffffffff16815260200190815260200160002060009054906101000a900460ff16151561121d57600080fd5b6000600460008373ffffffffffffffffffffffffffffffffffffffff1673ffffffffffffffffffffffffffffffffffffffff16815260200190815260200160002060006101000a81548160ff0219169083151502179055507f989ddfce057dad219e0ae16f691b121bb0e348f0d8ae0ad400b4d5ac8d616c8b81604051808273ffffffffffffffffffffffffffffffffffffffff1673ffffffffffffffffffffffffffffffffffffffff16815260200191505060405180910390a150565b6112e3613ca8565b876008600082815260200190815260200160002060009054906101000a900473ffffffffffffffffffffffffffffffffffffffff1673ffffffffffffffffffffffffffffffffffffffff163373ffffffffffffffffffffffffffffffffffffffff1614151561135157600080fd5b88600073ffffffffffffffffffffffffffffffffffffffff166008600083815260200190815260200160002060009054906101000a900473ffffffffffffffffffffffffffffffffffffffff1673ffffffffffffffffffffffffffffffffffffffff16141515156113c157600080fd5b60e0604051908101604052808b81526020018a815260200189815260200188815260200187815260200186815260200185815250925082600760003373ffffffffffffffffffffffffffffffffffffffff1673ffffffffffffffffffffffffffffffffffffffff16815260200190815260200160002060008c815260200190815260200160002060008201518160000155602082015181600101908051906020019061146e929190613ce6565b50604082015181600201908051906020019061148b929190613ce6565b506060820151816003015560808201518160040190805190602001906114b2929190613ce6565b5060a08201518160050190805190602001906114cf929190613ce6565b5060c082015181600601559050507f450982f9f72538461271dbc5c3bc2966100030c65cfd233a0382dc8121bc12198a8a8a8a8a8a8a604051808881526020018060200180602001878152602001806020018060200186815260200185810385528b818151815260200191508051906020019080838360005b83811015611563578082015181840152602081019050611548565b50505050905090810190601f1680156115905780820380516001836020036101000a031916815260200191505b5085810384528a818151815260200191508051906020019080838360005b838110156115c95780820151818401526020810190506115ae565b50505050905090810190601f1680156115f65780820380516001836020036101000a031916815260200191505b50858103835288818151815260200191508051906020019080838360005b8381101561162f578082015181840152602081019050611614565b50505050905090810190601f16801561165c5780820380516001836020036101000a031916815260200191505b50858103825287818151815260200191508051906020019080838360005b8381101561169557808201518184015260208101905061167a565b50505050905090810190601f1680156116c25780820380516001836020036101000a031916815260200191505b509b50505050505050505050505060405180910390a150505050505050505050565b6116ec613d66565b600084600073ffffffffffffffffffffffffffffffffffffffff166008600083815260200190815260200160002060009054906101000a900473ffffffffffffffffffffffffffffffffffffffff1673ffffffffffffffffffffffffffffffffffffffff161415151561175e57600080fd5b86868680600760008573ffffffffffffffffffffffffffffffffffffffff1673ffffffffffffffffffffffffffffffffffffffff168152602001908152602001600020600084815260200190815260200160002060030154101515156117c357600080fd5b89898980600760008573ffffffffffffffffffffffffffffffffffffffff1673ffffffffffffffffffffffffffffffffffffffff16815260200190815260200160002060008481526020019081526020016000206003015402341015151561182a57600080fd5b60a06040519081016040528060025481526020018d81526020018c81526020018b81526020016000600181111561185d57fe5b815250985088600960003373ffffffffffffffffffffffffffffffffffffffff1673ffffffffffffffffffffffffffffffffffffffff1681526020019081526020016000206000600254815260200190815260200160002060008201518160000155602082015181600101556040820151816002015560608201518160030190805190602001906118ef929190613ce6565b5060808201518160040160006101000a81548160ff0219169083600181111561191457fe5b021790555090505033600a6000600254815260200190815260200160002060006101000a81548173ffffffffffffffffffffffffffffffffffffffff021916908373ffffffffffffffffffffffffffffffffffffffff1602179055508a600760008f73ffffffffffffffffffffffffffffffffffffffff1673ffffffffffffffffffffffffffffffffffffffff16815260200190815260200160002060008e81526020019081526020016000206003016000828254039250508190555034600254338f600360009054906101000a900473ffffffffffffffffffffffffffffffffffffffff16611a02613da1565b808581526020018473ffffffffffffffffffffffffffffffffffffffff1673ffffffffffffffffffffffffffffffffffffffff1681526020018373ffffffffffffffffffffffffffffffffffffffff1673ffffffffffffffffffffffffffffffffffffffff1681526020018273ffffffffffffffffffffffffffffffffffffffff1673ffffffffffffffffffffffffffffffffffffffff1681526020019450505050506040518091039082f080158015611ac0573d6000803e3d6000fd5b509050975087600b6000600254815260200190815260200160002060006101000a81548173ffffffffffffffffffffffffffffffffffffffff021916908373ffffffffffffffffffffffffffffffffffffffff1602179055507f0a9df7acf9857af57b074fcb803280c8d86ab9c386f1ae2f2e7bf8f0798fa468338e6002548f8f8f6000604051808873ffffffffffffffffffffffffffffffffffffffff1673ffffffffffffffffffffffffffffffffffffffff1681526020018773ffffffffffffffffffffffffffffffffffffffff1673ffffffffffffffffffffffffffffffffffffffff16815260200186815260200185815260200184815260200180602001836001811115611bce57fe5b60ff168152602001828103825284818151815260200191508051906020019080838360005b83811015611c0e578082015181840152602081019050611bf3565b50505050905090810190601f168015611c3b5780820380516001836020036101000a031916815260200191505b509850505050505050505060405180910390a1600160026000828254019250508190555050505050505050505050505050565b60025481565b60011515600460003373ffffffffffffffffffffffffffffffffffffffff1673ffffffffffffffffffffffffffffffffffffffff16815260200190815260200160002060009054906101000a900460ff161515141515611cd357600080fd5b6001600660008373ffffffffffffffffffffffffffffffffffffffff1673ffffffffffffffffffffffffffffffffffffffff16815260200190815260200160002060006101000a81548160ff0219169083151502179055507f64f6ecbb7c389b2c41ec88fcdb57966c6dc74466fafbd0381c4e27f331ceac2a81604051808273ffffffffffffffffffffffffffffffffffffffff1673ffffffffffffffffffffffffffffffffffffffff16815260200191505060405180910390a150565b60046020528060005260406000206000915054906101000a900460ff1681565b806008600082815260200190815260200160002060009054906101000a900473ffffffffffffffffffffffffffffffffffffffff1673ffffffffffffffffffffffffffffffffffffffff163373ffffffffffffffffffffffffffffffffffffffff16141515611e1f57600080fd5b81600073ffffffffffffffffffffffffffffffffffffffff166008600083815260200190815260200160002060009054906101000a900473ffffffffffffffffffffffffffffffffffffffff1673ffffffffffffffffffffffffffffffffffffffff1614151515611e8f57600080fd5b600760003373ffffffffffffffffffffffffffffffffffffffff1673ffffffffffffffffffffffffffffffffffffffff1681526020019081526020016000206000848152602001908152602001600020600080820160009055600182016000611ef89190613db1565b600282016000611f089190613db1565b6003820160009055600482016000611f209190613db1565b600582016000611f309190613db1565b6006820160009055505060086000600154815260200190815260200160002060006101000a81549073ffffffffffffffffffffffffffffffffffffffff02191690557f07015631cff457b5b13492c2045e70c6305a0a4aa773e432e79abbe2cf52c1eb836040518082815260200191505060405180910390a1505050565b6005602052806000526040600020600091509050806000015490806001018054600181600116156101000203166002900480601f0160208091040260200160405190810160405280929190818152602001828054600181600116156101000203166002900480156120605780601f1061203557610100808354040283529160200191612060565b820191906000526020600020905b81548152906001019060200180831161204357829003601f168201915b505050505090806002018054600181600116156101000203166002900480601f0160208091040260200160405190810160405280929190818152602001828054600181600116156101000203166002900480156120fe5780601f106120d3576101008083540402835291602001916120fe565b820191906000526020600020905b8154815290600101906020018083116120e157829003601f168201915b505050505090806003018054600181600116156101000203166002900480601f01602080910402602001604051908101604052809291908181526020018280546001816001161561010002031660029004801561219c5780601f106121715761010080835404028352916020019161219c565b820191906000526020600020905b81548152906001019060200180831161217f57829003601f168201915b505050505090806004018054600181600116156101000203166002900480601f01602080910402602001604051908101604052809291908181526020018280546001816001161561010002031660029004801561223a5780601f1061220f5761010080835404028352916020019161223a565b820191906000526020600020905b81548152906001019060200180831161221d57829003601f168201915b5050505050905085565b60011515600460003373ffffffffffffffffffffffffffffffffffffffff1673ffffffffffffffffffffffffffffffffffffffff16815260200190815260200160002060009054906101000a900460ff1615151415156122a357600080fd5b6001600460008373ffffffffffffffffffffffffffffffffffffffff1673ffffffffffffffffffffffffffffffffffffffff16815260200190815260200160002060006101000a81548160ff0219169083151502179055507f71614071b88dee5e0b2ae578a9dd7b2ebbe9ae832ba419dc0242cd065a290b6c81604051808273ffffffffffffffffffffffffffffffffffffffff1673ffffffffffffffffffffffffffffffffffffffff16815260200191505060405180910390a150565b600960205281600052604060002060205280600052604060002060009150915050806000015490806001015490806002015490806003018054600181600116156101000203166002900480601f01602080910402602001604051908101604052809291908181526020018280546001816001161561010002031660029004801561242c5780601f106124015761010080835404028352916020019161242c565b820191906000526020600020905b81548152906001019060200180831161240f57829003601f168201915b5050505050908060040160009054906101000a900460ff16905085565b600080600080600080600b600088815260200190815260200160002060009054906101000a900473ffffffffffffffffffffffffffffffffffffffff1673ffffffffffffffffffffffffffffffffffffffff1663f3d259046040518163ffffffff167c010000000000000000000000000000000000000000000000000000000002815260040160c060405180830381600087803b1580156124e957600080fd5b505af11580156124fd573d6000803e3d6000fd5b505050506040513d60c081101561251357600080fd5b8101908080519060200190929190805190602001909291908051906020019092919080519060200190929190805190602001909291908051906020019092919050505095509550955095509550955091939550919395565b60008060011515600460003373ffffffffffffffffffffffffffffffffffffffff1673ffffffffffffffffffffffffffffffffffffffff16815260200190815260200160002060009054906101000a900460ff161515148061260f57506000600560003373ffffffffffffffffffffffffffffffffffffffff1673ffffffffffffffffffffffffffffffffffffffff16815260200190815260200160002060000154115b151561261a57600080fd5b600460003373ffffffffffffffffffffffffffffffffffffffff1673ffffffffffffffffffffffffffffffffffffffff16815260200190815260200160002060009054906101000a900460ff161561284357600660008473ffffffffffffffffffffffffffffffffffffffff1673ffffffffffffffffffffffffffffffffffffffff16815260200190815260200160002060009054906101000a900460ff161561271757600660008473ffffffffffffffffffffffffffffffffffffffff1673ffffffffffffffffffffffffffffffffffffffff16815260200190815260200160002060006101000a81549060ff021916905561271683613b3c565b5b8291506000600560008573ffffffffffffffffffffffffffffffffffffffff1673ffffffffffffffffffffffffffffffffffffffff1681526020019081526020016000206000015411156127af57600560008473ffffffffffffffffffffffffffffffffffffffff1673ffffffffffffffffffffffffffffffffffffffff1681526020019081526020016000206000015490506127b4565b600090505b600560008473ffffffffffffffffffffffffffffffffffffffff1673ffffffffffffffffffffffffffffffffffffffff16815260200190815260200160002060008082016000905560018201600061280c9190613db1565b60028201600061281c9190613db1565b60038201600061282c9190613db1565b60048201600061283c9190613db1565b50506129c1565b600660003373ffffffffffffffffffffffffffffffffffffffff1673ffffffffffffffffffffffffffffffffffffffff16815260200190815260200160002060009054906101000a900460ff16156129c057600660003373ffffffffffffffffffffffffffffffffffffffff1673ffffffffffffffffffffffffffffffffffffffff16815260200190815260200160002060006101000a81549060ff02191690556128ed33613b3c565b339150600560003373ffffffffffffffffffffffffffffffffffffffff1673ffffffffffffffffffffffffffffffffffffffff168152602001908152602001600020600001549050600560003373ffffffffffffffffffffffffffffffffffffffff1673ffffffffffffffffffffffffffffffffffffffff16815260200190815260200160002060008082016000905560018201600061298d9190613db1565b60028201600061299d9190613db1565b6003820160006129ad9190613db1565b6004820160006129bd9190613db1565b50505b5b7f866ad6bc1d4c37c9c81f580fb77d4f0a75ddc503bdd8e689d194d7b5fa8f196a8282604051808373ffffffffffffffffffffffffffffffffffffffff1673ffffffffffffffffffffffffffffffffffffffff1681526020018281526020019250505060405180910390a1505050565b612a39613df9565b6000600560003373ffffffffffffffffffffffffffffffffffffffff1673ffffffffffffffffffffffffffffffffffffffff16815260200190815260200160002060000154141515612a8a57600080fd5b60a060405190810160405280600054815260200186815260200185815260200184815260200183815250905080600560003373ffffffffffffffffffffffffffffffffffffffff1673ffffffffffffffffffffffffffffffffffffffff168152602001908152602001600020600082015181600001556020820151816001019080519060200190612b1c929190613ce6565b506040820151816002019080519060200190612b39929190613ce6565b506060820151816003019080519060200190612b56929190613ce6565b506080820151816004019080519060200190612b73929190613ce6565b509050507fad5eb7a8cef108a44cdae7039b6f9583e7c8989bdaf322ac2fb0e5c3e88dad0d6000543387878787604051808781526020018673ffffffffffffffffffffffffffffffffffffffff1673ffffffffffffffffffffffffffffffffffffffff16815260200180602001806020018060200180602001858103855289818151815260200191508051906020019080838360005b83811015612c24578082015181840152602081019050612c09565b50505050905090810190601f168015612c515780820380516001836020036101000a031916815260200191505b50858103845288818151815260200191508051906020019080838360005b83811015612c8a578082015181840152602081019050612c6f565b50505050905090810190601f168015612cb75780820380516001836020036101000a031916815260200191505b50858103835287818151815260200191508051906020019080838360005b83811015612cf0578082015181840152602081019050612cd5565b50505050905090810190601f168015612d1d5780820380516001836020036101000a031916815260200191505b50858103825286818151815260200191508051906020019080838360005b83811015612d56578082015181840152602081019050612d3b565b50505050905090810190601f168015612d835780820380516001836020036101000a031916815260200191505b509a505050505050505050505060405180910390a1600160008082825401925050819055505050505050565b600b600082815260200190815260200160002060009054906101000a900473ffffffffffffffffffffffffffffffffffffffff1673ffffffffffffffffffffffffffffffffffffffff166358aad10b336040518263ffffffff167c0100000000000000000000000000000000000000000000000000000000028152600401808273ffffffffffffffffffffffffffffffffffffffff1673ffffffffffffffffffffffffffffffffffffffff168152602001915050600060405180830381600087803b158015612e7d57600080fd5b505af1158015612e91573d6000803e3d6000fd5b5050505050565b6000612ea2613df9565b6000600560003373ffffffffffffffffffffffffffffffffffffffff1673ffffffffffffffffffffffffffffffffffffffff16815260200190815260200160002060000154111515612ef357600080fd5b600560003373ffffffffffffffffffffffffffffffffffffffff1673ffffffffffffffffffffffffffffffffffffffff16815260200190815260200160002060000154915060a06040519081016040528083815260200187815260200186815260200185815260200184815250905080600560003373ffffffffffffffffffffffffffffffffffffffff1673ffffffffffffffffffffffffffffffffffffffff168152602001908152602001600020600082015181600001556020820151816001019080519060200190612fc8929190613ce6565b506040820151816002019080519060200190612fe5929190613ce6565b506060820151816003019080519060200190613002929190613ce6565b50608082015181600401908051906020019061301f929190613ce6565b509050507fcea9e67e6d0d92d590041a594e09840b224b4f5fdc03196a78899d4e6e8916e0823388888888604051808781526020018673ffffffffffffffffffffffffffffffffffffffff1673ffffffffffffffffffffffffffffffffffffffff16815260200180602001806020018060200180602001858103855289818151815260200191508051906020019080838360005b838110156130ce5780820151818401526020810190506130b3565b50505050905090810190601f1680156130fb5780820380516001836020036101000a031916815260200191505b50858103845288818151815260200191508051906020019080838360005b83811015613134578082015181840152602081019050613119565b50505050905090810190601f1680156131615780820380516001836020036101000a031916815260200191505b50858103835287818151815260200191508051906020019080838360005b8381101561319a57808201518184015260208101905061317f565b50505050905090810190601f1680156131c75780820380516001836020036101000a031916815260200191505b50858103825286818151815260200191508051906020019080838360005b838110156132005780820151818401526020810190506131e5565b50505050905090810190601f16801561322d5780820380516001836020036101000a031916815260200191505b509a505050505050505050505060405180910390a1505050505050565b600b600082815260200190815260200160002060009054906101000a900473ffffffffffffffffffffffffffffffffffffffff1673ffffffffffffffffffffffffffffffffffffffff1663a15dc0d8336040518263ffffffff167c0100000000000000000000000000000000000000000000000000000000028152600401808273ffffffffffffffffffffffffffffffffffffffff1673ffffffffffffffffffffffffffffffffffffffff168152602001915050600060405180830381600087803b15801561331857600080fd5b505af115801561332c573d6000803e3d6000fd5b5050505050565b600a6020528060005260406000206000915054906101000a900473ffffffffffffffffffffffffffffffffffffffff1681565b60005481565b60086020528060005260406000206000915054906101000a900473ffffffffffffffffffffffffffffffffffffffff1681565b60066020528060005260406000206000915054906101000a900460ff1681565b60015481565b6133cd613ca8565b60011515600660003373ffffffffffffffffffffffffffffffffffffffff1673ffffffffffffffffffffffffffffffffffffffff16815260200190815260200160002060009054906101000a900460ff16151514151561342c57600080fd5b60e060405190810160405280600154815260200188815260200187815260200186815260200185815260200184815260200183815250905080600760003373ffffffffffffffffffffffffffffffffffffffff1673ffffffffffffffffffffffffffffffffffffffff168152602001908152602001600020600060015481526020019081526020016000206000820151816000015560208201518160010190805190602001906134dd929190613ce6565b5060408201518160020190805190602001906134fa929190613ce6565b50606082015181600301556080820151816004019080519060200190613521929190613ce6565b5060a082015181600501908051906020019061353e929190613ce6565b5060c082015181600601559050503360086000600154815260200190815260200160002060006101000a81548173ffffffffffffffffffffffffffffffffffffffff021916908373ffffffffffffffffffffffffffffffffffffffff1602179055507fd140a29ecb454d7952258c89cc66d88dc11f992b780d3cb81dc4860e3d7f295933600560003373ffffffffffffffffffffffffffffffffffffffff1673ffffffffffffffffffffffffffffffffffffffff168152602001908152602001600020600001546001548a8a8a8a8a8a604051808a73ffffffffffffffffffffffffffffffffffffffff1673ffffffffffffffffffffffffffffffffffffffff1681526020018981526020018881526020018060200180602001878152602001806020018060200186815260200185810385528b818151815260200191508051906020019080838360005b838110156136a4578082015181840152602081019050613689565b50505050905090810190601f1680156136d15780820380516001836020036101000a031916815260200191505b5085810384528a818151815260200191508051906020019080838360005b8381101561370a5780820151818401526020810190506136ef565b50505050905090810190601f1680156137375780820380516001836020036101000a031916815260200191505b50858103835288818151815260200191508051906020019080838360005b83811015613770578082015181840152602081019050613755565b50505050905090810190601f16801561379d5780820380516001836020036101000a031916815260200191505b50858103825287818151815260200191508051906020019080838360005b838110156137d65780820151818401526020810190506137bb565b50505050905090810190601f1680156138035780820380516001836020036101000a031916815260200191505b509d505050505050505050505050505060405180910390a16001806000828254019250508190555050505050505050565b600b6020528060005260406000206000915054906101000a900473ffffffffffffffffffffffffffffffffffffffff1681565b600760205281600052604060002060205280600052604060002060009150915050806000015490806001018054600181600116156101000203166002900480601f0160208091040260200160405190810160405280929190818152602001828054600181600116156101000203166002900480156139265780601f106138fb57610100808354040283529160200191613926565b820191906000526020600020905b81548152906001019060200180831161390957829003601f168201915b505050505090806002018054600181600116156101000203166002900480601f0160208091040260200160405190810160405280929190818152602001828054600181600116156101000203166002900480156139c45780601f10613999576101008083540402835291602001916139c4565b820191906000526020600020905b8154815290600101906020018083116139a757829003601f168201915b505050505090806003015490806004018054600181600116156101000203166002900480601f016020809104026020016040519081016040528092919081815260200182805460018160011615610100020316600290048015613a685780601f10613a3d57610100808354040283529160200191613a68565b820191906000526020600020905b815481529060010190602001808311613a4b57829003601f168201915b505050505090806005018054600181600116156101000203166002900480601f016020809104026020016040519081016040528092919081815260200182805460018160011615610100020316600290048015613b065780601f10613adb57610100808354040283529160200191613b06565b820191906000526020600020905b815481529060010190602001808311613ae957829003601f168201915b5050505050908060060154905087565b600360009054906101000a900473ffffffffffffffffffffffffffffffffffffffff1681565b6000600190505b60015481111515613ca4578173ffffffffffffffffffffffffffffffffffffffff166008600083815260200190815260200160002060009054906101000a900473ffffffffffffffffffffffffffffffffffffffff1673ffffffffffffffffffffffffffffffffffffffff161415613c97576008600082815260200190815260200160002060006101000a81549073ffffffffffffffffffffffffffffffffffffffff0219169055600760008373ffffffffffffffffffffffffffffffffffffffff1673ffffffffffffffffffffffffffffffffffffffff1681526020019081526020016000206000828152602001908152602001600020600080820160009055600182016000613c549190613db1565b600282016000613c649190613db1565b6003820160009055600482016000613c7c9190613db1565b600582016000613c8c9190613db1565b600682016000905550505b8080600101915050613b43565b5050565b60e060405190810160405280600081526020016060815260200160608152602001600081526020016060815260200160608152602001600081525090565b828054600181600116156101000203166002900490600052602060002090601f016020900481019282601f10613d2757805160ff1916838001178555613d55565b82800160010185558215613d55579182015b82811115613d54578251825591602001919060010190613d39565b5b509050613d629190613e29565b5090565b60a0604051908101604052806000815260200160008152602001600081526020016060815260200160006001811115613d9b57fe5b81525090565b604051610d1b80613e4f83390190565b50805460018160011615610100020316600290046000825580601f10613dd75750613df6565b601f016020900490600052602060002090810190613df59190613e29565b5b50565b60a06040519081016040528060008152602001606081526020016060815260200160608152602001606081525090565b613e4b91905b80821115613e47576000816000905550600101613e2f565b5090565b9056006080604052604051608080610d1b8339810180604052810190808051906020019092919080519060200190929190805190602001909291908051906020019092919050505083600381905550826000806101000a81548173ffffffffffffffffffffffffffffffffffffffff021916908373ffffffffffffffffffffffffffffffffffffffff16021790555081600160006101000a81548173ffffffffffffffffffffffffffffffffffffffff021916908373ffffffffffffffffffffffffffffffffffffffff16021790555080600260006101000a81548173ffffffffffffffffffffffffffffffffffffffff021916908373ffffffffffffffffffffffffffffffffffffffff1602179055506000600960006101000a81548160ff0219169083151502179055503460048190555033600960016101000a81548173ffffffffffffffffffffffffffffffffffffffff021916908373ffffffffffffffffffffffffffffffffffffffff16021790555050505050610b98806101836000396000f3006080604052600436106100ba576000357c0100000000000000000000000000000000000000000000000000000000900463ffffffff16806308551a53146100bf5780630bda4dbf14610116578063163de5e51461014157806358aad10b1461016c5780637150d8ae146101af5780638da5cb5b14610206578063a15dc0d81461025d578063aa8c217c146102a0578063b8d08db2146102cb578063d1a52e30146102f6578063f3d2590414610325578063fe25e00a146103fb575b600080fd5b3480156100cb57600080fd5b506100d4610452565b604051808273ffffffffffffffffffffffffffffffffffffffff1673ffffffffffffffffffffffffffffffffffffffff16815260200191505060405180910390f35b34801561012257600080fd5b5061012b610478565b6040518082815260200191505060405180910390f35b34801561014d57600080fd5b5061015661047e565b6040518082815260200191505060405180910390f35b34801561017857600080fd5b506101ad600480360381019080803573ffffffffffffffffffffffffffffffffffffffff169060200190929190505050610484565b005b3480156101bb57600080fd5b506101c4610763565b604051808273ffffffffffffffffffffffffffffffffffffffff1673ffffffffffffffffffffffffffffffffffffffff16815260200191505060405180910390f35b34801561021257600080fd5b5061021b610788565b604051808273ffffffffffffffffffffffffffffffffffffffff1673ffffffffffffffffffffffffffffffffffffffff16815260200191505060405180910390f35b34801561026957600080fd5b5061029e600480360381019080803573ffffffffffffffffffffffffffffffffffffffff1690602001909291905050506107ae565b005b3480156102ac57600080fd5b506102b5610a8c565b6040518082815260200191505060405180910390f35b3480156102d757600080fd5b506102e0610a92565b6040518082815260200191505060405180910390f35b34801561030257600080fd5b5061030b610a98565b604051808215151515815260200191505060405180910390f35b34801561033157600080fd5b5061033a610aab565b604051808773ffffffffffffffffffffffffffffffffffffffff1673ffffffffffffffffffffffffffffffffffffffff1681526020018673ffffffffffffffffffffffffffffffffffffffff1673ffffffffffffffffffffffffffffffffffffffff1681526020018573ffffffffffffffffffffffffffffffffffffffff1673ffffffffffffffffffffffffffffffffffffffff16815260200184151515158152602001838152602001828152602001965050505050505060405180910390f35b34801561040757600080fd5b50610410610b46565b604051808273ffffffffffffffffffffffffffffffffffffffff1673ffffffffffffffffffffffffffffffffffffffff16815260200191505060405180910390f35b600160009054906101000a900473ffffffffffffffffffffffffffffffffffffffff1681565b60085481565b60035481565b3373ffffffffffffffffffffffffffffffffffffffff16600960019054906101000a900473ffffffffffffffffffffffffffffffffffffffff1673ffffffffffffffffffffffffffffffffffffffff161415156104e057600080fd5b60001515600960009054906101000a900460ff16151514151561050257600080fd5b6000809054906101000a900473ffffffffffffffffffffffffffffffffffffffff1673ffffffffffffffffffffffffffffffffffffffff168173ffffffffffffffffffffffffffffffffffffffff1614806105aa5750600160009054906101000a900473ffffffffffffffffffffffffffffffffffffffff1673ffffffffffffffffffffffffffffffffffffffff168173ffffffffffffffffffffffffffffffffffffffff16145b806106025750600260009054906101000a900473ffffffffffffffffffffffffffffffffffffffff1673ffffffffffffffffffffffffffffffffffffffff168173ffffffffffffffffffffffffffffffffffffffff16145b801561065f575060011515600560008373ffffffffffffffffffffffffffffffffffffffff1673ffffffffffffffffffffffffffffffffffffffff16815260200190815260200160002060009054906101000a900460ff16151514155b156106ce576001600560008373ffffffffffffffffffffffffffffffffffffffff1673ffffffffffffffffffffffffffffffffffffffff16815260200190815260200160002060006101000a81548160ff02191690831515021790555060016007600082825401925050819055505b6002600754141561076057600160009054906101000a900473ffffffffffffffffffffffffffffffffffffffff1673ffffffffffffffffffffffffffffffffffffffff166108fc6004549081150290604051600060405180830381858888f19350505050158015610743573d6000803e3d6000fd5b506001600960006101000a81548160ff0219169083151502179055505b50565b6000809054906101000a900473ffffffffffffffffffffffffffffffffffffffff1681565b600960019054906101000a900473ffffffffffffffffffffffffffffffffffffffff1681565b3373ffffffffffffffffffffffffffffffffffffffff16600960019054906101000a900473ffffffffffffffffffffffffffffffffffffffff1673ffffffffffffffffffffffffffffffffffffffff1614151561080a57600080fd5b60001515600960009054906101000a900460ff16151514151561082c57600080fd5b6000809054906101000a900473ffffffffffffffffffffffffffffffffffffffff1673ffffffffffffffffffffffffffffffffffffffff168173ffffffffffffffffffffffffffffffffffffffff1614806108d45750600160009054906101000a900473ffffffffffffffffffffffffffffffffffffffff1673ffffffffffffffffffffffffffffffffffffffff168173ffffffffffffffffffffffffffffffffffffffff16145b8061092c5750600260009054906101000a900473ffffffffffffffffffffffffffffffffffffffff1673ffffffffffffffffffffffffffffffffffffffff168173ffffffffffffffffffffffffffffffffffffffff16145b8015610989575060011515600660008373ffffffffffffffffffffffffffffffffffffffff1673ffffffffffffffffffffffffffffffffffffffff16815260200190815260200160002060009054906101000a900460ff16151514155b156109f8576001600660008373ffffffffffffffffffffffffffffffffffffffff1673ffffffffffffffffffffffffffffffffffffffff16815260200190815260200160002060006101000a81548160ff02191690831515021790555060016008600082825401925050819055505b60026008541415610a89576000809054906101000a900473ffffffffffffffffffffffffffffffffffffffff1673ffffffffffffffffffffffffffffffffffffffff166108fc6004549081150290604051600060405180830381858888f19350505050158015610a6c573d6000803e3d6000fd5b506001600960006101000a81548160ff0219169083151502179055505b50565b60045481565b60075481565b600960009054906101000a900460ff1681565b6000806000806000806000809054906101000a900473ffffffffffffffffffffffffffffffffffffffff16600160009054906101000a900473ffffffffffffffffffffffffffffffffffffffff16600260009054906101000a900473ffffffffffffffffffffffffffffffffffffffff16600960009054906101000a900460ff16600754600854955095509550955095509550909192939495565b600260009054906101000a900473ffffffffffffffffffffffffffffffffffffffff16815600a165627a7a72305820e0996d276adf7fef749fa2fd7c6f69b41bd5ae788196f07f21a1c7fc547821460029a165627a7a723058203b05a4cd060b07f0ca27a34de63ffd5a5141b9e20bb0b79863a4384e50341ace0029",
  "source": "pragma solidity ^0.4.23;\n\nimport \"contracts/Escrow.sol\";\n\ncontract EcommerceStore {\n\n  enum OrderStatus{Payed, Delivered}\n\n  uint public storeIndex;\n  uint public productIndex;\n  uint public orderIndex;\n  address public arbiter;\n\n  // Check if address is admin\n  mapping(address => bool) public admins;\n\n  // Store details\n  mapping(address => Store) public stores;\n  mapping(address => bool) public approvedStores;\n\n  // used for finding easily a store based on a productId\n  mapping(address => mapping(uint => Product)) public products;\n  mapping(uint => address) public productIdInStore;\n\n\n  mapping(address => mapping(uint => Order)) public orders;\n  mapping(uint => address) public orderIdForBuyer;\n\n  // productId mapping the address of the escrow contract\n  mapping(uint => address) public productEscrow;\n\n  struct Store {\n    uint id;\n    string name;\n    string category;\n    string imageLink;\n    string descriptionLink;\n  }\n\n  struct Product {\n    uint id;\n    string name;\n    string category;\n    uint quantity;\n    string imageLink;\n    string descriptionLink;\n    uint256 price;\n  }\n\n  struct Order {\n    uint id;\n    uint productId;\n    uint quantity;\n    string orderAddress;\n    OrderStatus status;\n  }\n\n  modifier onlyAdmin() {\n    require (admins[msg.sender] == true);\n    _;\n  }\n\n  // check if work\n  modifier onlyStoreOwner() {\n    require (stores[msg.sender].id > 0);\n    _;\n  }\n\n  // check if work\n  modifier onlyAdminOrStoreOwner() {\n    require (admins[msg.sender] == true || stores[msg.sender].id > 0);\n    _;\n  }\n\n  modifier onlyProductOwner(uint _id) {\n    require (msg.sender == productIdInStore[_id]);\n    _;\n  }\n\n  modifier storeNotExist() {\n    require (stores[msg.sender].id == 0);\n    _;\n  }\n\n  modifier onlyApprovedStores() {\n    require (approvedStores[msg.sender] == true);\n    _;\n  }\n\n  modifier productExist(uint _id) {\n    require (productIdInStore[_id] != 0x0000000000000000000000000000000000000000);\n    _;\n  }\n\n  modifier productHasEnoughtQuantity(address _storeAddress, uint _productId, uint _orderQuantity) {\n    require (products[_storeAddress][_productId].quantity >= _orderQuantity);\n    _;\n  }\n\n  modifier OrderPriceIsEnought(address _storeAddress, uint _productId, uint _orderQuantity) {\n    require (msg.value >= (products[_storeAddress][_productId].quantity * _orderQuantity));\n    _;\n  }\n\n\n  event NewAdmin(address _address);\n  event AdminDeleted(address _address);\n\n  event NewStore(uint _id, address _address, string _name, string _category, string _imageLink, string _descriptionLink);\n  event StoreUpdated(uint _id, address _address, string _name, string _category, string _imageLink, string _descriptionLink);\n  event StoreRemoved(address _address, uint _id);\n  event StoreApproved(address _address);\n\n  event NewProduct(address _storeAddress, uint _storeId, uint _id, string _name, string _category,  uint _quantity, string _imageLink, string _descriptionLink, uint256 _price);\n  event ProductUpdated(uint _id, string _name, string _category,  uint _quantity, string _imageLink, string _descriptionLink, uint256 _price);\n  event ProductRemoved(uint _id);\n\n  event NewOrder(address _buyer,address _seller, uint _id, uint _productId, uint _quantity, string _orderAddress, OrderStatus _orderStatus);\n\n  constructor() public {\n    admins[msg.sender] = true;\n    emit NewAdmin(msg.sender);\n    productIndex = 1;\n    storeIndex = 1;\n    orderIndex = 1;\n    arbiter = msg.sender;\n  }\n\n  function addAdmin(address _address)\n  public\n  onlyAdmin\n  {\n    admins[_address] = true;\n    emit NewAdmin(_address);\n  }\n\n  function removeAdmin(address _address)\n  public\n  onlyAdmin\n  {\n    require(admins[_address]);\n    admins[_address] = false;\n    emit AdminDeleted(_address);\n  }\n\n  function addStore(string _name, string _category, string _imageLink, string _descriptionLink)\n  public\n  storeNotExist\n  {\n    Store memory store = Store(storeIndex, _name, _category, _imageLink, _descriptionLink);\n    stores[msg.sender] = store;\n    emit NewStore(storeIndex, msg.sender, _name, _category, _imageLink, _descriptionLink);\n    storeIndex += 1;\n  }\n\n  function removeStore(address _address)\n  public\n  onlyAdminOrStoreOwner\n  {\n    address storeAddress;\n    uint storeId;\n    if (admins[msg.sender]) {\n      if(approvedStores[_address]) {\n        delete approvedStores[_address];\n        removeAllProductFromStore(_address);\n      }\n      storeAddress = _address;\n      if (stores[_address].id > 0) {\n        storeId = stores[_address].id;\n      }\n      else {\n        storeId = 0;\n      }\n      delete stores[_address];\n    }\n    else if (approvedStores[msg.sender]) {\n      delete approvedStores[msg.sender];\n      removeAllProductFromStore(msg.sender);\n      storeAddress = msg.sender;\n      storeId = stores[msg.sender].id;\n      delete stores[msg.sender];\n    }\n    emit StoreRemoved(storeAddress, storeId);\n  }\n\n  function updateStore(string _name, string _category, string _imageLink, string _descriptionLink)\n  public\n  onlyStoreOwner\n  {\n    uint storeId = stores[msg.sender].id;\n    Store memory store = Store(storeId, _name, _category, _imageLink, _descriptionLink);\n    stores[msg.sender] = store;\n    emit StoreUpdated(storeId, msg.sender, _name, _category, _imageLink, _descriptionLink);\n  }\n\n  function approveStore(address _address)\n  public\n  onlyAdmin\n  {\n    approvedStores[_address] = true;\n    emit StoreApproved(_address);\n  }\n\n  function addProduct(string _name, string _category, uint _quantity, string _imageLink, string _descriptionLink, uint256 _price)\n  public\n  onlyApprovedStores\n  {\n    Product memory product = Product(productIndex, _name, _category, _quantity, _imageLink, _descriptionLink, _price);\n    products[msg.sender][productIndex] = product;\n    productIdInStore[productIndex] = msg.sender;\n    emit NewProduct(msg.sender, stores[msg.sender].id, productIndex, _name, _category, _quantity, _imageLink, _descriptionLink, _price);\n    productIndex += 1;\n  }\n\n  function updateProduct(uint _productId, string _name, string _category, uint _quantity, string _imageLink, string _descriptionLink, uint256 _price)\n  public\n  onlyProductOwner(_productId)\n  productExist(_productId)\n  {\n    Product memory product = Product(_productId, _name, _category, _quantity, _imageLink, _descriptionLink, _price);\n    products[msg.sender][_productId] = product;\n    emit ProductUpdated(_productId, _name, _category, _quantity, _imageLink, _descriptionLink, _price);\n  }\n\n  function removeProduct(uint _productId)\n  public\n  onlyProductOwner(_productId)\n  productExist(_productId)\n  {\n    delete products[msg.sender][_productId];\n    delete productIdInStore[productIndex];\n    emit ProductRemoved(_productId);\n  }\n\n  function removeAllProductFromStore(address _storeAddress)\n  internal\n  {\n    for (uint i=1; i<=productIndex; i++) {\n      if (productIdInStore[i] == _storeAddress) {\n        delete productIdInStore[i];\n        delete products[_storeAddress][i];\n      }\n    }\n  }\n  // payable\n  function newOrder(address _storeAddress, uint _productId, uint _quantity, string _orderAddress)\n  payable\n  public\n  productExist(_productId)\n  productHasEnoughtQuantity(_storeAddress, _productId, _quantity)\n  OrderPriceIsEnought(_storeAddress, _productId, _quantity)\n  {\n    Order memory order = Order(orderIndex, _productId, _quantity, _orderAddress, OrderStatus.Payed);\n    orders[msg.sender][orderIndex] = order;\n    orderIdForBuyer[orderIndex] = msg.sender;\n    products[_storeAddress][_productId].quantity -= _quantity;\n    Escrow escrow = (new Escrow).value(msg.value)(orderIndex, msg.sender, _storeAddress, arbiter);\n    productEscrow[orderIndex] = escrow;\n    emit NewOrder(msg.sender, _storeAddress, orderIndex, _productId, _quantity, _orderAddress, OrderStatus.Payed);\n    orderIndex += 1;\n  }\n\n  function escrowInfo(uint _orderId)\n  view\n  public\n  returns (address, address, address, bool, uint, uint)\n  {\n    return Escrow(productEscrow[_orderId]).escrowInfo();\n  }\n\n  function releaseAmountToSeller(uint _orderId)\n  public\n  {\n    return Escrow(productEscrow[_orderId]).releaseAmountToSeller(msg.sender);\n  }\n\n  function releaseAmountToBuyer(uint _orderId)\n  public {\n\n    return Escrow(productEscrow[_orderId]).releaseAmountToBuyer(msg.sender);\n  }\n\n}\n\n",
  "sourcePath": "/home/jonathan/Bureau/Ethereum/consensys-project/contracts/EcommerceStore.sol",
  "compiler": {
    "name": "solc",
    "version": "0.4.24+commit.e67f0147.Emscripten.clang"
  },
  "schemaVersion": "2.0.1",
  "updatedAt": "2018-08-23T22:16:57.693Z"
}