{
  "contractName": "Escrow",
  "abi": [
    {
      "constant": true,
      "inputs": [],
      "name": "seller",
      "outputs": [
        {
          "name": "",
          "type": "address"
        }
      ],
      "payable": false,
      "stateMutability": "view",
      "type": "function"
    },
    {
      "constant": true,
      "inputs": [],
      "name": "refundCount",
      "outputs": [
        {
          "name": "",
          "type": "uint256"
        }
      ],
      "payable": false,
      "stateMutability": "view",
      "type": "function"
    },
    {
      "constant": true,
      "inputs": [],
      "name": "orderId",
      "outputs": [
        {
          "name": "",
          "type": "uint256"
        }
      ],
      "payable": false,
      "stateMutability": "view",
      "type": "function"
    },
    {
      "constant": true,
      "inputs": [],
      "name": "fundDisbursed",
      "outputs": [
        {
          "name": "",
          "type": "bool"
        }
      ],
      "payable": false,
      "stateMutability": "view",
      "type": "function"
    },
    {
      "constant": true,
      "inputs": [],
      "name": "buyer",
      "outputs": [
        {
          "name": "",
          "type": "address"
        }
      ],
      "payable": false,
      "stateMutability": "view",
      "type": "function"
    },
    {
      "constant": true,
      "inputs": [],
      "name": "owner",
      "outputs": [
        {
          "name": "",
          "type": "address"
        }
      ],
      "payable": false,
      "stateMutability": "view",
      "type": "function"
    },
    {
      "constant": true,
      "inputs": [],
      "name": "amount",
      "outputs": [
        {
          "name": "",
          "type": "uint256"
        }
      ],
      "payable": false,
      "stateMutability": "view",
      "type": "function"
    },
    {
      "constant": true,
      "inputs": [],
      "name": "releaseCount",
      "outputs": [
        {
          "name": "",
          "type": "uint256"
        }
      ],
      "payable": false,
      "stateMutability": "view",
      "type": "function"
    },
    {
      "constant": true,
      "inputs": [],
      "name": "arbiter",
      "outputs": [
        {
          "name": "",
          "type": "address"
        }
      ],
      "payable": false,
      "stateMutability": "view",
      "type": "function"
    },
    {
      "inputs": [
        {
          "name": "_orderId",
          "type": "uint256"
        },
        {
          "name": "_buyer",
          "type": "address"
        },
        {
          "name": "_seller",
          "type": "address"
        },
        {
          "name": "_arbiter",
          "type": "address"
        }
      ],
      "payable": true,
      "stateMutability": "payable",
      "type": "constructor"
    },
    {
      "constant": true,
      "inputs": [],
      "name": "escrowInfo",
      "outputs": [
        {
          "name": "",
          "type": "address"
        },
        {
          "name": "",
          "type": "address"
        },
        {
          "name": "",
          "type": "address"
        },
        {
          "name": "",
          "type": "bool"
        },
        {
          "name": "",
          "type": "uint256"
        },
        {
          "name": "",
          "type": "uint256"
        }
      ],
      "payable": false,
      "stateMutability": "view",
      "type": "function"
    },
    {
      "constant": false,
      "inputs": [
        {
          "name": "caller",
          "type": "address"
        }
      ],
      "name": "releaseAmountToSeller",
      "outputs": [
        {
          "name": "",
          "type": "bool"
        }
      ],
      "payable": false,
      "stateMutability": "nonpayable",
      "type": "function"
    },
    {
      "constant": false,
      "inputs": [
        {
          "name": "caller",
          "type": "address"
        }
      ],
      "name": "releaseAmountToBuyer",
      "outputs": [
        {
          "name": "",
          "type": "bool"
        }
      ],
      "payable": false,
      "stateMutability": "nonpayable",
      "type": "function"
    }
  ],
  "bytecode": "0x6080604052604051608080610d778339810180604052810190808051906020019092919080519060200190929190805190602001909291908051906020019092919050505083600381905550826000806101000a81548173ffffffffffffffffffffffffffffffffffffffff021916908373ffffffffffffffffffffffffffffffffffffffff16021790555081600160006101000a81548173ffffffffffffffffffffffffffffffffffffffff021916908373ffffffffffffffffffffffffffffffffffffffff16021790555080600260006101000a81548173ffffffffffffffffffffffffffffffffffffffff021916908373ffffffffffffffffffffffffffffffffffffffff1602179055506000600960006101000a81548160ff0219169083151502179055503460048190555033600960016101000a81548173ffffffffffffffffffffffffffffffffffffffff021916908373ffffffffffffffffffffffffffffffffffffffff16021790555050505050610bf4806101836000396000f3006080604052600436106100ba576000357c0100000000000000000000000000000000000000000000000000000000900463ffffffff16806308551a53146100bf5780630bda4dbf14610116578063163de5e5146101415780632df0d5b61461016c57806358aad10b1461019b5780637150d8ae146101f65780638da5cb5b1461024d578063a15dc0d8146102a4578063aa8c217c146102ff578063b8d08db21461032a578063f3d2590414610355578063fe25e00a1461042b575b600080fd5b3480156100cb57600080fd5b506100d4610482565b604051808273ffffffffffffffffffffffffffffffffffffffff1673ffffffffffffffffffffffffffffffffffffffff16815260200191505060405180910390f35b34801561012257600080fd5b5061012b6104a8565b6040518082815260200191505060405180910390f35b34801561014d57600080fd5b506101566104ae565b6040518082815260200191505060405180910390f35b34801561017857600080fd5b506101816104b4565b604051808215151515815260200191505060405180910390f35b3480156101a757600080fd5b506101dc600480360381019080803573ffffffffffffffffffffffffffffffffffffffff1690602001909291905050506104c7565b604051808215151515815260200191505060405180910390f35b34801561020257600080fd5b5061020b6107bc565b604051808273ffffffffffffffffffffffffffffffffffffffff1673ffffffffffffffffffffffffffffffffffffffff16815260200191505060405180910390f35b34801561025957600080fd5b506102626107e1565b604051808273ffffffffffffffffffffffffffffffffffffffff1673ffffffffffffffffffffffffffffffffffffffff16815260200191505060405180910390f35b3480156102b057600080fd5b506102e5600480360381019080803573ffffffffffffffffffffffffffffffffffffffff169060200190929190505050610807565b604051808215151515815260200191505060405180910390f35b34801561030b57600080fd5b50610314610afb565b6040518082815260200191505060405180910390f35b34801561033657600080fd5b5061033f610b01565b6040518082815260200191505060405180910390f35b34801561036157600080fd5b5061036a610b07565b604051808773ffffffffffffffffffffffffffffffffffffffff1673ffffffffffffffffffffffffffffffffffffffff1681526020018673ffffffffffffffffffffffffffffffffffffffff1673ffffffffffffffffffffffffffffffffffffffff1681526020018573ffffffffffffffffffffffffffffffffffffffff1673ffffffffffffffffffffffffffffffffffffffff16815260200184151515158152602001838152602001828152602001965050505050505060405180910390f35b34801561043757600080fd5b50610440610ba2565b604051808273ffffffffffffffffffffffffffffffffffffffff1673ffffffffffffffffffffffffffffffffffffffff16815260200191505060405180910390f35b600160009054906101000a900473ffffffffffffffffffffffffffffffffffffffff1681565b60085481565b60035481565b600960009054906101000a900460ff1681565b60003373ffffffffffffffffffffffffffffffffffffffff16600960019054906101000a900473ffffffffffffffffffffffffffffffffffffffff1673ffffffffffffffffffffffffffffffffffffffff1614151561052557600080fd5b60001515600960009054906101000a900460ff16151514151561054757600080fd5b6000809054906101000a900473ffffffffffffffffffffffffffffffffffffffff1673ffffffffffffffffffffffffffffffffffffffff168273ffffffffffffffffffffffffffffffffffffffff1614806105ef5750600160009054906101000a900473ffffffffffffffffffffffffffffffffffffffff1673ffffffffffffffffffffffffffffffffffffffff168273ffffffffffffffffffffffffffffffffffffffff16145b806106475750600260009054906101000a900473ffffffffffffffffffffffffffffffffffffffff1673ffffffffffffffffffffffffffffffffffffffff168273ffffffffffffffffffffffffffffffffffffffff16145b80156106a4575060011515600560008473ffffffffffffffffffffffffffffffffffffffff1673ffffffffffffffffffffffffffffffffffffffff16815260200190815260200160002060009054906101000a900460ff16151514155b15610713576001600560008473ffffffffffffffffffffffffffffffffffffffff1673ffffffffffffffffffffffffffffffffffffffff16815260200190815260200160002060006101000a81548160ff02191690831515021790555060016007600082825401925050819055505b600260075414156107a557600160009054906101000a900473ffffffffffffffffffffffffffffffffffffffff1673ffffffffffffffffffffffffffffffffffffffff166108fc6004549081150290604051600060405180830381858888f19350505050158015610788573d6000803e3d6000fd5b506001600960006101000a81548160ff0219169083151502179055505b600960009054906101000a900460ff169050919050565b6000809054906101000a900473ffffffffffffffffffffffffffffffffffffffff1681565b600960019054906101000a900473ffffffffffffffffffffffffffffffffffffffff1681565b60003373ffffffffffffffffffffffffffffffffffffffff16600960019054906101000a900473ffffffffffffffffffffffffffffffffffffffff1673ffffffffffffffffffffffffffffffffffffffff1614151561086557600080fd5b60001515600960009054906101000a900460ff16151514151561088757600080fd5b6000809054906101000a900473ffffffffffffffffffffffffffffffffffffffff1673ffffffffffffffffffffffffffffffffffffffff168273ffffffffffffffffffffffffffffffffffffffff16148061092f5750600160009054906101000a900473ffffffffffffffffffffffffffffffffffffffff1673ffffffffffffffffffffffffffffffffffffffff168273ffffffffffffffffffffffffffffffffffffffff16145b806109875750600260009054906101000a900473ffffffffffffffffffffffffffffffffffffffff1673ffffffffffffffffffffffffffffffffffffffff168273ffffffffffffffffffffffffffffffffffffffff16145b80156109e4575060011515600660008473ffffffffffffffffffffffffffffffffffffffff1673ffffffffffffffffffffffffffffffffffffffff16815260200190815260200160002060009054906101000a900460ff16151514155b15610a53576001600660008473ffffffffffffffffffffffffffffffffffffffff1673ffffffffffffffffffffffffffffffffffffffff16815260200190815260200160002060006101000a81548160ff02191690831515021790555060016008600082825401925050819055505b60026008541415610ae4576000809054906101000a900473ffffffffffffffffffffffffffffffffffffffff1673ffffffffffffffffffffffffffffffffffffffff166108fc6004549081150290604051600060405180830381858888f19350505050158015610ac7573d6000803e3d6000fd5b506001600960006101000a81548160ff0219169083151502179055505b600960009054906101000a900460ff169050919050565b60045481565b60075481565b6000806000806000806000809054906101000a900473ffffffffffffffffffffffffffffffffffffffff16600160009054906101000a900473ffffffffffffffffffffffffffffffffffffffff16600260009054906101000a900473ffffffffffffffffffffffffffffffffffffffff16600960009054906101000a900460ff16600754600854955095509550955095509550909192939495565b600260009054906101000a900473ffffffffffffffffffffffffffffffffffffffff16815600a165627a7a723058204b834a4bfa0e50a88570116d872f359cc9a08218cacc429aa69ebaa91d337c970029",
  "source": "pragma solidity ^0.4.23;\n\ncontract Escrow {\n\n  // Address of buyer's order\n  address public buyer;\n  // Address of seller's order\n  address public seller;\n  // Address of arbiter's order\n  address public arbiter;\n\n  // Id of the corresponding order\n  uint public orderId;\n  // Amount of the order\n  uint public amount;\n  // Mapping of address that asked to release fund\n  mapping(address => bool) releaseAmount;\n  // Mapping of address that asked to refund fund\n  mapping(address => bool) refundAmount;\n  // Number of people that asked to release fund\n  uint public releaseCount;\n  // Number of people that asked to refund fund\n  uint public refundCount;\n  // Boolean that indicate if fund has been release\n  bool public fundDisbursed;\n  // Address of EcommerceStore smart contract\n  address public owner;\n\n  /**\n  * Constructor setting initial data at smart contract creation\n  *\n  * @param _orderId Id of the corresponding order\n  * @param _buyer Address of the buyer\n  * @param _seller Address of the seller\n  * @param _arbiter Address of the escrow arbiter\n  */\n  constructor(uint _orderId, address _buyer, address _seller, address _arbiter) payable public {\n    orderId = _orderId;\n    buyer = _buyer;\n    seller = _seller;\n    arbiter = _arbiter;\n    fundDisbursed = false;\n    amount = msg.value;\n    owner = msg.sender;\n  }\n\n  /**\n  * Get escrow contract informations\n  *\n  * @return address of the buyer\n  * @return address of the seller\n  * @return address of the arbiter arbiter\n  * @return bool true if fund has been disbursed or false if not\n  * @return uint count of participant that asked for releasing fund\n  * @return uint count of participant that asked for refunding fund\n  */\n  function escrowInfo()\n  view\n  public\n  returns (address, address, address, bool, uint, uint)\n  {\n    return (buyer, seller, arbiter, fundDisbursed, releaseCount, refundCount);\n  }\n\n  /**\n  * Caller allow fund to be release to seller\n  *\n  * @param caller Address of the caller\n  */\n  function releaseAmountToSeller(address caller)\n  public\n  returns(bool)\n  {\n    require(owner == msg.sender);\n    require(fundDisbursed == false);\n    if ((caller == buyer || caller == seller || caller == arbiter) && (releaseAmount[caller] != true)) {\n      releaseAmount[caller] = true;\n      releaseCount += 1;\n    }\n    if (releaseCount == 2) {\n      seller.transfer(amount);\n      fundDisbursed = true;\n    }\n    return(fundDisbursed);\n  }\n\n  /**\n  * Caller allow fund to be release to buyer\n  *\n  * @param caller Address of the caller\n  */\n  function releaseAmountToBuyer(address caller)\n  public\n  returns(bool)\n  {\n    require(owner == msg.sender);\n    require(fundDisbursed == false);\n    if ((caller == buyer || caller == seller || caller == arbiter) && (refundAmount[caller] != true))  {\n      refundAmount[caller] = true;\n      refundCount += 1;\n    }\n    if (refundCount == 2) {\n      buyer.transfer(amount);\n      fundDisbursed = true;\n    }\n    return(fundDisbursed);\n  }\n}\n",
  "sourcePath": "contracts/Escrow.sol",
  "compiler": {
    "name": "solc",
    "version": "0.4.24+commit.e67f0147.Emscripten.clang"
  },
  "schemaVersion": "2.0.1",
  "updatedAt": "2018-08-26T20:22:53.780Z"
}